:100000000C942A000C94DE100C9411110C944411E1
:100010000C9447000C9447000C94EB0A0C94470096
:100020000C94B80A0C94850A0C94E10E0C94A50E5D
:100030000C9447000C9447000C9447000C94470024
:100040000C9447000C9447000C9447000C94470014
:100050000C94470011241FBECFE5D8E0DEBFCDBF12
:1000600011E0A0E6B0E0E4ECF8E402C005900D92E7
:10007000AA36B107D9F711E0AAE6B1E001C01D9296
:10008000AC38B107E1F70E94D7230C9460240C949C
:100090000000EF92FF920F931F937B018C0120E0F1
:1000A00030E040E05FE40E94F50388238CF0C80153
:1000B000B70120E030E040E05FE40E94C1010E940F
:1000C000E3049B01AC01205030404040504806C042
:1000D000C801B7010E94E3049B01AC01B901CA0148
:1000E0001F910F91FF90EF900895A0E0B0E0EBE733
:1000F000F0E00C94E423DC012B01FA019C91923096
:1001000008F439C1EB018881823008F433C194309E
:1001100069F4843009F02FC111969C91119789815F
:10012000981709F428C1A0E6B0E025C1843009F48D
:1001300021C18230A9F4923009F01DC19A01AD01AC
:1001400088E0EA010990AE01E90109929E0181501F
:10015000C1F7E201898111969C918923818308C1AD
:10016000923009F407C112962D903C901397EB0141
:100170008A819B811496AD90BD90CD90DC901797AD
:10018000EC80FD800E811F819101281B390BB90184
:1001900037FF04C066277727621B730B6032710537
:1001A0000CF061C0121613066CF537014801062EDB
:1001B00004C096948794779467940A94D2F721E0C8
:1001C00030E040E050E004C0220F331F441F551FB1
:1001D0006A95D2F721503040404050402E213F21B7
:1001E00040235123211531054105510521F021E01E
:1001F00030E040E050E079018A01E628F72808293C
:1002000019293CC0232BD1F1260E371E350146019A
:10021000062E04C096948794779467940A94D2F734
:1002200021E030E040E050E004C0220F331F441FC3
:10023000551F6A95D2F721503040404050402A2146
:100240003B214C215D21211531054105510521F04E
:1002500021E030E040E050E059016A01A628B728CB
:10026000C828D9280BC0821593052CF01C01AA249C
:10027000BB24650103C0EE24FF24870111969C91E5
:10028000D20111968C91981709F445C0992339F041
:10029000A80197012A193B094C095D0906C0A6016E
:1002A00095012E193F09400B510B57FD08C01182D3
:1002B0003382228224833583468357831DC081E0A5
:1002C00081833382228288279927DC01821B930B4A
:1002D000A40BB50B84839583A683B7830DC0220F2F
:1002E000331F441F551F24833583468357838281E0
:1002F000938101979383828324813581468157813D
:10030000DA01C9010197A109B1098F5F9F4FAF4F72
:10031000BF4328F30BC0918333822282EA0CFB1C7B
:100320000C1D1D1DE482F5820683178383E0808304
:10033000248135814681578157FF1AC0C901AA27F8
:1003400097FDA095BA2F81709070A070B0705695EF
:10035000479537952795822B932BA42BB52B848318
:100360009583A683B7838281938101969383828349
:10037000DF0101C0D201CD01CDB7DEB7E2E10C94BF
:100380000024A0E2B0E0E7ECF1E00C94F0236983F4
:100390007A838B839C832D833E834F835887E9E048
:1003A000EE2EF12CEC0EFD1ECE010196B7010E943F
:1003B000D4068E010F5E1F4FCE010596B8010E9434
:1003C000D4068A8991E089278A8BC701B801AE01DA
:1003D000475E5F4F0E9475000E94FF05A096E6E011
:1003E0000C940C24A0E2B0E0E8EFF1E00C94F023D0
:1003F00069837A838B839C832D833E834F835887C5
:10040000F9E0EF2EF12CEC0EFD1ECE010196B701A6
:100410000E94D4068E010F5E1F4FCE010596B801D3
:100420000E94D406C701B801AE01475E5F4F0E942B
:1004300075000E94FF05A096E6E00C940C24A0E253
:10044000B0E0E5E2F2E00C94E42369837A838B83E5
:100450009C832D833E834F835887CE010196BE0136
:10046000675F7F4F0E94D406CE010596BE016F5E86
:100470007F4F0E94D4069985923088F08989823016
:10048000C8F0943019F4823051F404C0843029F457
:10049000923081F480E690E0C6C0923049F420E0CA
:1004A0009A858A89981321E02A87CE010996BBC0D4
:1004B000823049F420E09A858A89981321E02A8BBA
:1004C000CE014196B0C02D843E844F8458886D88FB
:1004D0007E888F88988CEE24FF248701AA24BB2471
:1004E000650140E050E060E070E0E0E0F0E0C10174
:1004F00081709070892BE9F0E60CF71C081D191D1E
:100500009A01AB012A0D3B1D4C1D5D1D80E090E062
:10051000A0E0B0E0E614F7040805190520F481E036
:1005200090E0A0E0B0E0BA01A901480F591F6A1F8E
:100530007B1FAA0CBB1CCC1CDD1C97FE08C081E0F5
:1005400090E0A0E0B0E0A82AB92ACA2ADB2A3196B6
:10055000E032F10549F0660C771C881C991C569412
:10056000479437942794C3CFFA85EA892B893C892D
:100570008B859C85280F391F2E5F3F4F17C0CA01FE
:1005800081709070892B61F016950795F794E79428
:1005900080E090E0A0E0B0E8E82AF92A0A2B1B2BC3
:1005A00076956795579547952F5F3F4F77FDE7CF36
:1005B0000CC0440F551F661F771F17FD4160EE0CDE
:1005C000FF1C001F111F21503040403090E05907A0
:1005D00090E0690790E4790760F32B8F3C8FDB0193
:1005E000CA018F779070A070B07080349105A1051A
:1005F000B10561F447FD0AC0E114F10401051105DC
:1006000029F0405C5F4F6F4F7F4F40781A8EFE1786
:1006100011F081E08A8F4D8F5E8F6F8F78A383E01A
:10062000898FCE0149960E94FF05A096E2E10C94C5
:100630000024A8E1B0E0EFE1F3E00C94EC2369833F
:100640007A838B839C832D833E834F835887B9E0C5
:10065000EB2EF12CEC0EFD1ECE010196B7010E948F
:10066000D4068E010F5E1F4FCE010596B8010E9481
:10067000D4062985223008F47EC03989323010F43E
:10068000B8017CC08A859A8989278A87243011F02D
:10069000223031F4231709F06EC060E670E06EC0BE
:1006A000343039F41D861E861F86188A1C861B86E8
:1006B00004C0323021F484E08987B7015FC02B8504
:1006C0003C858B899C89281B390B3C872B87ED84C3
:1006D000FE840F851889AD88BE88CF88D88CEA142F
:1006E000FB040C051D0540F4EE0CFF1C001F111F40
:1006F000215030403C872B8720E030E040E050E044
:1007000080E090E0A0E0B0E460E070E0EA14FB0478
:100710000C051D0540F0282B392B4A2B5B2BEA18C2
:10072000FB080C091D09B695A79597958795EE0CC2
:10073000FF1C001F111F6F5F7F4F6F31710531F775
:10074000DA01C9018F779070A070B0708034910584
:10075000A105B10561F427FD0AC0E114F10401050A
:10076000110529F0205C3F4F4F4F5F4F20782D87B8
:100770003E874F87588BBE01675F7F4FCB010E943A
:10078000FF056896EAE00C940824A8E1B0E0EBECE1
:10079000F3E00C94F02369837A838B839C832D830D
:1007A0003E834F83588789E0E82EF12CEC0EFD1E26
:1007B000CE010196B7010E94D4068E010F5E1F4F35
:1007C000CE010596B8010E94D4068985823040F09A
:1007D0008989823028F0C701B8010E944C0701C006
:1007E0008FEF6896E6E00C940C24A8E1B0E0EBEF04
:1007F000F3E00C94F02369837A838B839C832D83AD
:100800003E834F83588789E0E82EF12CEC0EFD1EC5
:10081000CE010196B7010E94D4068E010F5E1F4FD4
:10082000CE010596B8010E94D4068985823040F039
:100830008989823028F0C701B8010E944C0701C0A5
:100840008FEF6896E6E00C940C24A8E1B0E0EBE2B0
:10085000F4E00C94F02369837A838B839C832D834B
:100860003E834F83588789E0E82EF12CEC0EFD1E65
:10087000CE010196B7010E94D4068E010F5E1F4F74
:10088000CE010596B8010E94D4068985823040F0D9
:100890008989823028F0C701B8010E944C0701C045
:1008A00081E06896E6E00C940C24A8E1B0E0EBE56A
:1008B000F4E00C94F02369837A838B839C832D83EB
:1008C0003E834F83588789E0E82EF12CEC0EFD1E05
:1008D000CE010196B7010E94D4068E010F5E1F4F14
:1008E000CE010596B8010E94D4068985823040F079
:1008F0008989823028F0C701B8010E944C0701C0E5
:1009000081E06896E6E00C940C24A8E0B0E0EBE807
:10091000F4E00C94ED239B01AC0183E08983DA01C0
:10092000C9018827B7FD83959927AA27BB27B82E29
:10093000211531054105510519F482E089833AC03A
:100940008823A9F0203080E0380780E0480780E85D
:10095000580729F460E070E080E09FEC30C0EE249E
:10096000FF248701E21AF30A040B150B02C0790178
:100970008A018EE1C82ED12CDC82CB82ED82FE82F0
:100980000F831887C801B7010E94B0050197181698
:10099000190684F4082E04C0EE0CFF1C001F111F62
:1009A0000A94D2F7ED82FE820F831887C81AD90AFB
:1009B000DC82CB82BA82CE0101960E94FF05289686
:1009C000E9E00C940924ACE0B0E0E9EEF4E00C942A
:1009D000F42369837A838B839C83CE010196BE01C5
:1009E0006B5F7F4F0E94D4068D81823061F182302F
:1009F00050F1843021F48E81882351F12EC02F8153
:100A0000388537FD20C06E812F3131051CF06623FB
:100A1000F9F023C08EE190E0821B930B29853A8583
:100A20004B855C8504C056954795379527958A95E3
:100A3000D2F76623B1F050954095309521953F4F00
:100A40004F4F5F4F0EC020E030E040E050E009C063
:100A50002FEF3FEF4FEF5FE704C020E030E040E0D2
:100A600050E8B901CA012C96E2E00C941024A8E0E9
:100A7000B0E0EDE3F5E00C94EC237B018C01611513
:100A800071058105910519F482E0898360C083E0D6
:100A900089838EE1C82ED12CDC82CB82ED82FE824E
:100AA0000F831887C801B7010E94B005FC01319778
:100AB000F7FF3BC0222733272E1B3F0B570168014E
:100AC000022E04C0D694C794B794A7940A94D2F780
:100AD00040E050E060E070E081E090E0A0E0B0E055
:100AE00004C0880F991FAA1FBB1F2A95D2F7019730
:100AF000A109B1098E219F21A023B1230097A1054F
:100B0000B10521F041E050E060E070E04A295B2946
:100B10006C297D294D835E836F8378878EE190E019
:100B20008E1B9F0B9C838B8312C0309781F00E2EFF
:100B300004C0EE0CFF1C001F111F0A94D2F7ED82B7
:100B4000FE820F831887CE1ADF0ADC82CB821A82DC
:100B5000CE0101960E94FF052896EAE00C94082435
:100B6000EF92FF920F931F937B018C0180E0E816B8
:100B700080E0F80681E0080780E0180788F48FEF2E
:100B8000E816F1040105110531F028F088E090E045
:100B9000A0E0B0E017C080E090E0A0E0B0E012C0BC
:100BA00080E0E81680E0F80680E0080781E018079A
:100BB00028F088E190E0A0E0B0E004C080E190E09F
:100BC000A0E0B0E020E230E040E050E0281B390B2C
:100BD0004A0B5B0B04C016950795F794E7948A952A
:100BE000D2F7F701E859FF4F8081281B31094109ED
:100BF0005109C9011F910F91FF90EF900895DF9265
:100C0000EF92FF920F931F93FC01E480F580068121
:100C10001781D1808081823048F480E090E0A0E1AB
:100C2000B0E0E82AF92A0A2B1B2BA5C0843009F46E
:100C30009FC0823021F4EE24FF24870105C0E11417
:100C4000F1040105110519F4E0E0F0E096C06281BD
:100C500073819FEF623879070CF05BC022E83FEFA9
:100C6000261B370B2A3131052CF020E030E040E024
:100C700050E02AC0B801A701022E04C076956795FE
:100C8000579547950A94D2F781E090E0A0E0B0E054
:100C900004C0880F991FAA1FBB1F2A95D2F701977E
:100CA000A109B1098E219F21A023B1230097A1059D
:100CB000B10521F081E090E0A0E0B0E09A01AB0145
:100CC000282B392B4A2B5B2BDA01C9018F779070C7
:100CD000A070B07080349105A105B10539F427FFEB
:100CE00009C0205C3F4F4F4F5F4F04C0215C3F4F16
:100CF0004F4F5F4FE0E0F0E02030A0E03A07A0E087
:100D00004A07A0E45A0710F0E1E0F0E079018A0117
:100D100027C06038710564F5FB01E158FF4FD80129
:100D2000C7018F779070A070B07080349105A105D5
:100D3000B10539F4E7FE0DC080E490E0A0E0B0E03A
:100D400004C08FE390E0A0E0B0E0E80EF91E0A1FB7
:100D50001B1F17FF05C016950795F794E79431966A
:100D600087E016950795F794E7948A95D1F705C023
:100D7000EE24FF248701EFEFF0E06E2F67956627E2
:100D80006795902F9F77D794DD24D7948E2F8695E3
:100D9000492F462B582F5D29B701CA011F910F918A
:100DA000FF90EF90DF900895FC01DB0140815181BD
:100DB0002281622F6F7770E0221F2227221F9381EA
:100DC000892F880F822B282F30E0991F9927991F90
:100DD00011969C93119721153105A9F541155105DF
:100DE0006105710511F482E037C082E89FEF139628
:100DF0009C938E9312979A01AB0167E0220F331FE9
:100E0000441F551F6A95D1F783E08C930DC0220FC4
:100E1000331F441F551F12968D919C911397019774
:100E200013969C938E931297203080E0380780E0D1
:100E3000480780E4580758F314962D933D934D933B
:100E40005C93179708952F3F310579F441155105AB
:100E50006105710519F484E08C93089564FF03C063
:100E600081E08C9312C01C9210C02F573040139613
:100E70003C932E93129783E08C9387E0440F551F89
:100E8000661F771F8A95D1F7706414964D935D9312
:100E90006D937C93179708951F93DC01FB019C9140
:100EA000923008F447C08081823008F443C0943007
:100EB00051F411961C91843099F58181682F70E06E
:100EC000611B71093FC0843021F0923031F48230CF
:100ED000B9F18181882389F12DC011961C91119758
:100EE0008230F1F081811817D9F412962D913C913E
:100EF0001397828193818217930794F028173907FB
:100F0000BCF014968D919D910D90BC91A02D2481E3
:100F1000358146815781281739074A075B0718F43E
:100F2000112341F00AC082179307A407B50740F4C4
:100F3000112319F061E070E005C06FEF7FEF02C090
:100F400060E070E0CB011F910895DF93CF9300D054
:100F5000CDB7DEB78A8381E089838A81803108F04A
:100F600083C08A818823F1F4AFE4B0E0EFE4F0E0DD
:100F700080818E7F8C93AFE4B0E0EFE4F0E080817D
:100F80008D7F8C93AEE4B0E0EEE4F0E08081877F6B
:100F90008C93AEE4B0E0EEE4F0E080818F7E8C9341
:100FA000198262C08A818730F1F4AFE4B0E0EFE4E7
:100FB000F0E0808181608C93AFE4B0E0EFE4F0E09A
:100FC000808182608C93AEE4B0E0EEE4F0E080815A
:100FD00088608C93AEE4B0E0EEE4F0E080818F7E38
:100FE0008C93198241C08A818E30F1F4AFE4B0E075
:100FF000EFE4F0E080818E7F8C93AFE4B0E0EFE42B
:10100000F0E0808182608C93AEE4B0E0EEE4F0E04A
:10101000808188608C93AEE4B0E0EEE4F0E0808103
:1010200080618C93198220C08A818F30E9F4AFE40B
:10103000B0E0EFE4F0E0808181608C93AFE4B0E059
:10104000EFE4F0E0808182608C93AEE4B0E0EEE407
:10105000F0E0808188608C93AEE4B0E0EEE4F0E0F4
:10106000808180618C93198289810F900F90CF913C
:10107000DF910895DF93CF9300D000D0CDB7DEB7D6
:101080008A837C836B8381E089838A81883008F03E
:101090006BC08A81823009F5AEE4B0E0EEE4F0E0A6
:1010A00080818E7F8C93AEE4B0E0EEE4F0E080814E
:1010B00082608C93AEE4B0E0EEE4F0E080818B7F60
:1010C0008C93EB81FC818DEB97E3A6E0B5E3808305
:1010D0009183A283B383198247C08A81833009F543
:1010E000AEE4B0E0EEE4F0E0808181608C93AEE4A9
:1010F000B0E0EEE4F0E0808182608C93AEE4B0E09A
:10110000EEE4F0E080818B7F8C93EB81FC818DEBB2
:1011100097E3A6E8B6E380839183A283B383198221
:1011200023C08A81853001F5AEE4B0E0EEE4F0E062
:10113000808181608C93AEE4B0E0EEE4F0E08081E9
:101140008D7F8C93AEE4B0E0EEE4F0E080818460CB
:101150008C93EB81FC818DEB97E3A6E8B8E3808369
:101160009183A283B383198289810F900F900F908E
:101170000F90CF91DF910895DF93CF9300D00F921E
:10118000CDB7DEB78A836B8381E089838A81823021
:1011900008F072C08B81823008F06EC08B8188238A
:1011A000A9F58A818823B9F4AFE4B0E0EFE4F0E078
:1011B00080818F7B8C93AFE4B0E0EFE4F0E080813E
:1011C00080688C93A1E3B0E0E1E3F0E0808180628D
:1011D0008C93198251C08A81813009F04DC0AFE4EF
:1011E000B0E0EFE4F0E0808180648C93AFE4B0E0A5
:1011F000EFE4F0E0808180688C93A1E3B0E0E1E36C
:10120000F0E0808180628C93198236C08B818130BE
:1012100099F58A818823B9F4AFE4B0E0EFE4F0E017
:1012200080818F7E8C93AFE4B0E0EFE4F0E08081CA
:1012300080628C93A1E3B0E0E1E3F0E08081806123
:101240008C93198219C08A818130B1F4AFE4B0E087
:10125000EFE4F0E0808180618C93AFE4B0E0EFE4F4
:10126000F0E0808180628C93A1E3B0E0E1E3F0E004
:10127000808180618C93198289810F900F900F90EB
:10128000CF91DF910895DF93CF9300D0CDB7DEB734
:101290009A838983ECE4F0E089819A819183808349
:1012A0000F900F90CF91DF910895DF93CF9300D0EF
:1012B000CDB7DEB79A83898389819A81009741F0FF
:1012C000ECE4F0E080819181E981FA81918380836F
:1012D0000F900F90CF91DF910895DF93CF9300D0BF
:1012E000CDB7DEB79A838983EAE4F0E089819A81F9
:1012F000918380830F900F90CF91DF910895DF93BA
:10130000CF9300D0CDB7DEB79A838983E8E4F0E0CD
:1013100089819A81918380830F900F90CF91DF9183
:101320000895DF93CF9300D0CDB7DEB79A8389833A
:10133000E6E4F0E089819A81918380830F900F9099
:10134000CF91DF910895DF93CF9300D0CDB7DEB773
:101350009A83898389819A81009741F0E6E4F0E0DD
:1013600080819181E981FA81918380830F900F9030
:10137000CF91DF910895DF93CF93CDB7DEB7AFE57F
:10138000B0E0EFE5F0E0808180688C93A9E5B0E003
:10139000E9E5F0E0808184608C93CF91DF9108953E
:1013A000DF93CF93CDB7DEB7A9E5B0E0E9E5F0E094
:1013B00080818B7F8C93CF91DF910895DF93CF93C2
:1013C000CDB7DEB7AFE5B0E0EFE5F0E08081806853
:1013D0008C93A9E5B0E0E9E5F0E0808188608C932A
:1013E000CF91DF910895DF93CF93CDB7DEB7A9E515
:1013F000B0E0E9E5F0E08081877F8C93CF91DF91C9
:101400000895DF93CF93CDB7DEB7AFE5B0E0EFE55A
:10141000F0E0808180688C93A9E5B0E0E9E5F0E038
:10142000808180618C93CF91DF910895DF93CF937A
:10143000CDB7DEB7A9E5B0E0E9E5F0E080818F7EC9
:101440008C93CF91DF910895DF93CF93CDB7DEB723
:10145000AFE5B0E0EFE5F0E0808180688C93A9E52E
:10146000B0E0E9E5F0E0808180628C93CF91DF917C
:101470000895DF93CF93CDB7DEB7A9E5B0E0E9E5F6
:10148000F0E080818F7D8C93CF91DF910895DF9381
:10149000CF930F92CDB7DEB7898389818230A8F4CC
:1014A0008981813041F4AEE4B0E0EEE4F0E0808187
:1014B00080648C930AC08981882339F4AEE4B0E05B
:1014C000EEE4F0E080818F7B8C930F90CF91DF91E1
:1014D0000895DF93CF9300D00F92CDB7DEB79B83F3
:1014E0008A8381E089838A819B81009739F08A8190
:1014F0009B8190936B0180936A01198289810F907F
:101500000F900F90CF91DF9108951F920F920FB619
:101510000F9211242F933F934F935F936F937F9379
:101520008F939F93AF93BF93EF93FF93DF93CF93EB
:10153000CDB7DEB780916A0190916B01009729F0D9
:10154000E0916A01F0916B010995CF91DF91FF91D4
:10155000EF91BF91AF919F918F917F916F915F912B
:101560004F913F912F910F900FBE0F901F901895A4
:101570001F920F920FB60F9211242F933F934F9308
:101580005F936F937F938F939F93AF93BF93EF93EB
:10159000FF93DF93CF93CDB7DEB780916A0190912F
:1015A0006B01009729F0E0916A01F0916B010995B8
:1015B000CF91DF91FF91EF91BF91AF919F918F916B
:1015C0007F916F915F914F913F912F910F900FBE3F
:1015D0000F901F9018951F920F920FB60F92112423
:1015E0002F933F934F935F936F937F938F939F932B
:1015F000AF93BF93EF93FF93DF93CF93CDB7DEB756
:1016000080916A0190916B01009729F0E0916A0145
:10161000F0916B010995CF91DF91FF91EF91BF910F
:10162000AF919F918F917F916F915F914F913F917A
:101630002F910F900FBE0F901F9018950F931F932F
:10164000DF93CF9300D000D000D0CDB7DEB78D832D
:101650006E8380E090E0A0E0B0E089839A83AB8362
:10166000BC8383E00E94A50783E09E012F5F3F4F6C
:10167000B9010E943A0880E06D810E94BC088D810A
:10168000882319F50AE410E08E81882F90E0AA27BC
:1016900097FDA095BA2FBC01CD010E948504DC0105
:1016A000CB01BC01CD0124E13EEA43E251E40E94BA
:1016B0001F02DC01CB01BC01CD010E944900DC010D
:1016C000CB01F8019183808325C08D81813011F594
:1016D00008E410E08E81882F90E0AA2797FDA0955E
:1016E000BA2FBC01CD010E948504DC01CB01BC01F5
:1016F000CD0124E13EEA43E251E40E941F02DC01F5
:10170000CB01BC01CD010E944900DC01CB01F801F5
:101710009183808326960FB6F894DEBF0FBECDBFAF
:10172000CF91DF911F910F910895DF93CF9300D058
:1017300000D0CDB7DEB78A836B834C8381E0898389
:10174000AFE5B0E0EFE5F0E0808180688C938A81BE
:101750008823B1F4A3E5B0E0E3E5F0E08081877F82
:101760008C93A3E5B0E0E3E5F0E080818F7B8C9380
:10177000A9E5B0E0E9E5F0E0808181608C9335C0B7
:101780008A818130B1F4A3E5B0E0E3E5F0E0808147
:1017900088608C93A3E5B0E0E3E5F0E080818F7B87
:1017A0008C93A9E5B0E0E9E5F0E0808182608C935C
:1017B0001CC08A81823079F4A3E5B0E0E3E5F0E073
:1017C0008081877F8C93A3E5B0E0E3E5F0E0808142
:1017D00080648C930AC08A81833039F4A9E5B0E033
:1017E000E9E5F0E0808182608C938B818823B9F4F5
:1017F000A3E5B0E0E3E5F0E080818E7F8C93A3E584
:10180000B0E0E3E5F0E080818D7F8C93A3E5B0E06C
:10181000E3E5F0E080818B7F8C931982F1C08B81AE
:10182000813019F5A3E5B0E0E3E5F0E08081816067
:101830008C93A3E5B0E0E3E5F0E080818D7F8C93AD
:10184000A3E5B0E0E3E5F0E080818B7F8C938DEB46
:1018500097E3A6E8B3E38093840190938501A09376
:101860008601B09387011982CBC08B81823019F534
:10187000A3E5B0E0E3E5F0E080818E7F8C93A3E503
:10188000B0E0E3E5F0E0808182608C93A3E5B0E016
:10189000E3E5F0E080818B7F8C938DEB97E3A6E00E
:1018A000B5E38093840190938501A0938601B09362
:1018B00087011982A5C08B81833019F5A3E5B0E0BB
:1018C000E3E5F0E0808181608C93A3E5B0E0E3E59F
:1018D000F0E0808182608C93A3E5B0E0E3E5F0E086
:1018E00080818B7F8C938DEB97E3A6E8B6E38093A2
:1018F000840190938501A0938601B093870119829A
:101900007FC08B81843019F5A3E5B0E0E3E5F0E01A
:1019100080818E7F8C93A3E5B0E0E3E5F0E08081E9
:101920008D7F8C93A3E5B0E0E3E5F0E080818460F7
:101930008C938DEB97E3A6E8B7E3809384019093B3
:101940008501A0938601B0938701198259C08B81CC
:10195000853019F5A3E5B0E0E3E5F0E08081816032
:101960008C93A3E5B0E0E3E5F0E080818D7F8C937C
:10197000A3E5B0E0E3E5F0E0808184608C938DEB3B
:1019800097E3A6E8B8E38093840190938501A09340
:101990008601B0938701198233C08B818630B9F4F8
:1019A000A3E5B0E0E3E5F0E080818E7F8C93A3E5D2
:1019B000B0E0E3E5F0E0808182608C93A3E5B0E0E5
:1019C000E3E5F0E0808184608C93198219C08B81FB
:1019D0008730B1F4A3E5B0E0E3E5F0E08081816019
:1019E0008C93A3E5B0E0E3E5F0E0808182608C9326
:1019F000A3E5B0E0E3E5F0E0808184608C93198298
:101A00008C81882379F4A3E5B0E0E3E5F0E0808100
:101A10008F7E8C93A3E5B0E0E3E5F0E080818F7DDD
:101A20008C9343C08C81813079F4A3E5B0E0E3E589
:101A3000F0E0808180618C93A3E5B0E0E3E5F0E025
:101A400080818F7D8C9331C08C818230B1F4A3E58D
:101A5000B0E0E3E5F0E0808180628C93A3E5B0E044
:101A6000E3E5F0E080818F7E8C93A7E3B0E0E7E3CD
:101A7000F0E0808188608C9318C08C818330A9F459
:101A8000A3E5B0E0E3E5F0E0808180618C93A3E51D
:101A9000B0E0E3E5F0E0808180628C93A7E3B0E002
:101AA000E7E3F0E0808188608C930F900F900F90B7
:101AB0000F90CF91DF910895DF93CF930F92CDB721
:101AC000DEB78983E2E5F0E0898180830F90CF91D2
:101AD000DF910895DF93CF930F92CDB7DEB789835F
:101AE000ECE5F0E0898180830F90CF91DF9108953C
:101AF000DF93CF93CDB7DEB7A9E5B0E0E9E5F0E03D
:101B0000808181608C93CF91DF910895DF93CF9393
:101B1000CDB7DEB7A9E5B0E0E9E5F0E080818E7FE2
:101B20008C93CF91DF910895DF93CF93CDB7DEB73C
:101B3000A9E5B0E0E9E5F0E0808182608C93CF9187
:101B4000DF910895DF93CF93CDB7DEB7A9E5B0E07D
:101B5000E9E5F0E080818D7F8C93CF91DF9108954E
:101B6000DF93CF93CDB7DEB728970FB6F894DEBFDB
:101B70000FBECDBF6D837E838F83988719821A82B3
:101B80001B821C826D817E818F8198850E94370522
:101B9000DC01CB01BC01CD0120E030E04AE754E498
:101BA0000E941903DC01CB01209184013091850151
:101BB0004091860150918701BC01CD010E9419031B
:101BC000DC01CB01BC01CD010E944900DC01CB014D
:101BD00089839A83AB83BC8389819A819070909327
:101BE0007101809370018091700190917101009753
:101BF00099F480917001909171010E945C0D89812E
:101C00009A81AB81BC81892F9A2FAB2FBB279093F0
:101C100073018093720119C08091700190917101DC
:101C2000009799F080917001909171010E945C0D74
:101C300089819A81AB81BC81892F9A2FAB2FBB27D9
:101C40000196909373018093720128960FB6F894D1
:101C5000DEBF0FBECDBFCF91DF910895DF93CF934D
:101C6000CDB7DEB729970FB6F894DEBF0FBECDBF54
:101C70006E837F838887998781E08D8380E090E001
:101C8000A0E0B0E089839A83AB83BC8387EC0E9499
:101C90006A0D8091840190918501A0918601B09197
:101CA0008701BC01CD0120E030E048E453E40E940C
:101CB0001F02DC01CB0189839A83AB83BC836E81D5
:101CC0007F81888599850E943705DC01CB01BC01A5
:101CD000CD0120E030E04AE754E40E941903DC0122
:101CE000CB01BC01CD0129813A814B815C810E94ED
:101CF0001903DC01CB01BC01CD010E944900DC01CC
:101D0000CB0190937301809372011D8229960FB6C7
:101D1000F894DEBF0FBECDBFCF91DF910895DF9362
:101D2000CF9300D0CDB7DEB79A83898389819A811A
:101D3000009731F089819A8190936F0180936E01B1
:101D40000F900F90CF91DF9108951F920F920FB6D1
:101D50000F9211242F933F934F935F936F937F9331
:101D60008F939F93AF93BF93EF93FF93DF93CF93A3
:101D7000CDB7DEB780916E0190916F01009729F089
:101D8000E0916E01F0916F01099580916C01909145
:101D90006D01019690936D0180936C01CF91DF915D
:101DA000FF91EF91BF91AF919F918F917F916F9133
:101DB0005F914F913F912F910F900FBE0F901F9009
:101DC00018951F920F920FB60F9211242F933F93E5
:101DD0004F935F936F937F938F939F93AF93BF9333
:101DE000EF93FF93DF93CF93CDB7DEB780916E0172
:101DF00090916F01009729F0E0916E01F0916F01D1
:101E00000995CF91DF91FF91EF91BF91AF919F9194
:101E10008F917F916F915F914F913F912F910F9093
:101E20000FBE0F901F901895DF93CF9300D0CDB7C2
:101E3000DEB789836A838A818F3F09F58981882388
:101E400029F4EFE5F0E08FEF808357C0898181307E
:101E500029F4EBE5F0E08FEF80834FC08981823079
:101E600029F4E5E5F0E08FEF808347C08981833076
:101E700009F043C0E4E5F0E08FEF80833EC08A8143
:101E80008823E1F48981882321F4EFE5F0E01082D2
:101E900034C08981813021F4EBE5F0E010822DC05F
:101EA0008981823021F4E5E5F0E0108226C0898145
:101EB000833019F5E4E5F0E010821FC089818823A2
:101EC00029F4EFE5F0E08A81808317C089818130B1
:101ED00029F4EBE5F0E08A8180830FC089818230AC
:101EE00029F4E5E5F0E08A81808307C089818330A9
:101EF00021F4E4E5F0E08A8180830F900F90CF9188
:101F0000DF910895DF93CF9300D00F92CDB7DEB766
:101F100089836A834B838B81813009F05DC089811D
:101F20008823A1F4AFE5B0E0EFE5F0E08081482F31
:101F30008A81282F30E081E090E0022E02C0880FD5
:101F4000991F0A94E2F7842B8C93A9C08981813070
:101F5000A1F4ABE5B0E0EBE5F0E08081482F8A81A9
:101F6000282F30E081E090E0022E02C0880F991FF8
:101F70000A94E2F7842B8C9392C089818230A1F479
:101F8000A5E5B0E0E5E5F0E08081482F8A81282FC3
:101F900030E081E090E0022E02C0880F991F0A9481
:101FA000E2F7842B8C937BC08981833009F077C062
:101FB000A4E5B0E0E4E5F0E08081482F8A81282F95
:101FC00030E081E090E0022E02C0880F991F0A9451
:101FD000E2F7842B8C9363C08B81882309F05FC068
:101FE00089818823A9F4AFE5B0E0EFE5F0E08081D6
:101FF000482F8A81282F30E081E090E0022E02C035
:10200000880F991F0A94E2F7809584238C9347C028
:1020100089818130A9F4ABE5B0E0EBE5F0E08081A7
:10202000482F8A81282F30E081E090E0022E02C004
:10203000880F991F0A94E2F7809584238C932FC010
:1020400089818230A9F4A5E5B0E0E5E5F0E0808182
:10205000482F8A81282F30E081E090E0022E02C0D4
:10206000880F991F0A94E2F7809584238C9317C0F8
:1020700089818330A1F4A4E5B0E0E4E5F0E080815B
:10208000482F8A81282F30E081E090E0022E02C0A4
:10209000880F991F0A94E2F7809584238C930F9000
:1020A0000F900F90CF91DF910895DF93CF9300D0E1
:1020B000CDB7DEB79A83898389819A81009731F001
:1020C00089819A8190937501809374010F900F908C
:1020D000CF91DF910895DF93CF9300D0CDB7DEB7D6
:1020E0009A83898389819A81009731F089819A81C5
:1020F00090937701809376010F900F90CF91DF91AD
:102100000895DF93CF9300D0CDB7DEB79A8389834C
:1021100089819A81009731F089819A819093790120
:10212000809378010F900F90CF91DF910895DF9306
:10213000CF930F92CDB7DEB789838981813031F497
:1021400080E067E041E00E94820F08C08981882317
:1021500029F480E067E040E00E94820F0F90CF9169
:10216000DF910895DF93CF93CDB7DEB781E066E0CE
:1021700041E00E94820F82E060E041E00E94820F15
:1021800082E061E041E00E94820FCF91DF910895EB
:10219000DF93CF93CDB7DEB781E066E041E00E94E8
:1021A000820F82E060E040E00E94820F82E061E006
:1021B00041E00E94820FCF91DF9108951F920F920C
:1021C0000FB60F9211242F933F934F935F936F930A
:1021D0007F938F939F93AF93BF93EF93FF93DF937F
:1021E000CF93CDB7DEB780917401909175010097C0
:1021F00029F0E0917401F09175010995CF91DF917B
:10220000FF91EF91BF91AF919F918F917F916F91CE
:102210005F914F913F912F910F900FBE0F901F90A4
:1022200018951F920F920FB60F9211242F933F9380
:102230004F935F936F937F938F939F93AF93BF93CE
:10224000EF93FF93DF93CF93CDB7DEB78091760105
:1022500090917701009729F0E0917601F091770154
:102260000995CF91DF91FF91EF91BF91AF919F9130
:102270008F917F916F915F914F913F912F910F902F
:102280000FBE0F901F9018951F920F920FB60F92CE
:1022900011242F933F934F935F936F937F938F936B
:1022A0009F93AF93BF93EF93FF93DF93CF93CDB7FC
:1022B000DEB78091780190917901009729F0E09143
:1022C0007801F09179010995CF91DF91FF91EF911C
:1022D000BF91AF919F918F917F916F915F914F913E
:1022E0003F912F910F900FBE0F901F901895DF9385
:1022F000CF9300D00F92CDB7DEB78A836B8381E096
:1023000089838A81843008F06EC08B818F3F29F5E4
:102310008A81882331F4EAE3F0E08FEF8083198229
:1023200062C08A81813031F4E7E3F0E08FEF80838F
:10233000198259C08A81823031F4E4E3F0E08FEFF2
:102340008083198250C08A81833009F04CC0E1E358
:10235000F0E08FEF8083198246C08B81882301F5DE
:102360008A81882329F4EAE3F0E0108219823BC0D5
:102370008A81813029F4E7E3F0E01082198233C0CA
:102380008A81823029F4E4E3F0E0108219822BC0C4
:102390008A81833041F5E1E3F0E01082198223C0A5
:1023A0008A81882331F4EAE3F0E08B81808319820B
:1023B0001AC08A81813031F4E7E3F0E08B818083B9
:1023C000198211C08A81823031F4E4E3F0E08B811C
:1023D0008083198208C08A81833029F4E1E3F0E028
:1023E0008B818083198289810F900F900F90CF91FC
:1023F000DF910895DF93CF9300D000D0CDB7DEB743
:102400008A836B834C8381E089838A81843008F0DE
:10241000D4C08B81883008F0D0C08C81823008F025
:10242000CCC08C81813009F061C08A818823A9F4F5
:10243000AAE3B0E0EAE3F0E08081482F8B81282F07
:1024400030E081E090E0022E02C0880F991F0A94CC
:10245000E2F7842B8C931982B0C08A818130A9F471
:10246000A7E3B0E0E7E3F0E08081482F8B81282FDD
:1024700030E081E090E0022E02C0880F991F0A949C
:10248000E2F7842B8C93198298C08A818230A9F458
:10249000A4E3B0E0E4E3F0E08081482F8B81282FB3
:1024A00030E081E090E0022E02C0880F991F0A946C
:1024B000E2F7842B8C93198280C08A81833009F0E3
:1024C0007CC0A1E3B0E0E1E3F0E08081482F8B81A4
:1024D000282F30E081E090E0022E02C0880F991F83
:1024E0000A94E2F7842B8C93198267C08C8188232D
:1024F00009F063C08A818823B1F4AAE3B0E0EAE37B
:10250000F0E08081482F8B81282F30E081E090E03F
:10251000022E02C0880F991F0A94E2F78095842347
:102520008C9319824AC08A818130B1F4A7E3B0E06C
:10253000E7E3F0E08081482F8B81282F30E081E0B5
:1025400090E0022E02C0880F991F0A94E2F780954E
:1025500084238C93198231C08A818230B1F4A4E340
:10256000B0E0E4E3F0E08081482F8B81282F30E059
:1025700081E090E0022E02C0880F991F0A94E2F7D2
:10258000809584238C93198218C08A818330A9F4A2
:10259000A1E3B0E0E1E3F0E08081482F8B81282FB8
:1025A00030E081E090E0022E02C0880F991F0A946B
:1025B000E2F7809584238C93198289810F900F9084
:1025C0000F900F90CF91DF910895DF93CF9300D0BC
:1025D0000F92CDB7DEB78A836B8381E089838A81CE
:1025E000843008F06EC08B818F3F29F58A81882363
:1025F00031F4EBE3F0E08FEF8083198262C08A81CF
:10260000813031F4E8E3F0E08FEF8083198259C024
:102610008A81823031F4E5E3F0E08FEF8083198224
:1026200050C08A81833009F04CC0E2E3F0E08FEFC4
:102630008083198246C08B81882301F58A81882393
:1026400029F4EBE3F0E0108219823BC08A818130EB
:1026500029F4E8E3F0E01082198233C08A818230E5
:1026600029F4E5E3F0E0108219822BC08A818330DF
:1026700041F5E2E3F0E01082198223C08A818823C9
:1026800031F4EBE3F0E08B81808319821AC08A81F8
:10269000813031F4E8E3F0E08B818083198211C04E
:1026A0008A81823031F4E5E3F0E08B818083198206
:1026B00008C08A81833029F4E2E3F0E08B818083D3
:1026C000198289810F900F900F90CF91DF9108951B
:1026D000DF93CF9300D000D0CDB7DEB78A836B8372
:1026E0004C8381E089838A81843008F0D4C08B8157
:1026F000883008F0D0C08C81823008F0CCC08C814A
:10270000813009F061C08A818823A9F4ABE3B0E08D
:10271000EBE3F0E08081482F8B81282F30E081E0CF
:1027200090E0022E02C0880F991F0A94E2F7842BD2
:102730008C931982B0C08A818130A9F4A8E3B0E0FB
:10274000E8E3F0E08081482F8B81282F30E081E0A2
:1027500090E0022E02C0880F991F0A94E2F7842BA2
:102760008C93198298C08A818230A9F4A5E3B0E0E5
:10277000E5E3F0E08081482F8B81282F30E081E075
:1027800090E0022E02C0880F991F0A94E2F7842B72
:102790008C93198280C08A81833009F07CC0A2E3C7
:1027A000B0E0E2E3F0E08081482F8B81282F30E019
:1027B00081E090E0022E02C0880F991F0A94E2F790
:1027C000842B8C93198267C08C81882309F063C0A5
:1027D0008A818823B1F4ABE3B0E0EBE3F0E08081E1
:1027E000482F8B81282F30E081E090E0022E02C03C
:1027F000880F991F0A94E2F7809584238C9319829D
:102800004AC08A818130B1F4A8E3B0E0E8E3F0E0A7
:102810008081482F8B81282F30E081E090E0022ECC
:1028200002C0880F991F0A94E2F7809584238C9345
:10283000198231C08A818230B1F4A5E3B0E0E5E3CA
:10284000F0E08081482F8B81282F30E081E090E0FC
:10285000022E02C0880F991F0A94E2F78095842304
:102860008C93198218C08A818330A9F4A2E3B0E066
:10287000E2E3F0E08081482F8B81282F30E081E077
:1028800090E0022E02C0880F991F0A94E2F780950B
:1028900084238C93198289810F900F900F900F9051
:1028A000CF91DF910895DF93CF9300D000D0CDB7C3
:1028B000DEB78A837C836B8381E089838A8184305D
:1028C00058F58A81882341F4EBE3F0E08081EB81C5
:1028D000FC818083198220C08A81813041F4E8E341
:1028E000F0E08081EB81FC818083198215C08A81B0
:1028F000823041F4E5E3F0E08081EB81FC8180836C
:1029000019820AC08A81833039F4E2E3F0E08081E1
:10291000EB81FC818083198289810F900F900F9049
:102920000F90CF91DF910895DF93CF9300D000D027
:102930000F92CDB7DEB78A836B835D834C8381E0D2
:1029400089838A81843008F063C08B81883008F0E5
:102950005FC08A818823A9F4E9E3F0E08081282F11
:1029600030E08B81882F90E0A90102C055954795F2
:102970008A95E2F7CA018170EC81FD81808319821A
:1029800047C08A818130A9F4E6E3F0E08081282FF6
:1029900030E08B81882F90E0A90102C055954795C2
:1029A0008A95E2F7CA018170EC81FD8180831982EA
:1029B0002FC08A818230A9F4E3E3F0E08081282FE0
:1029C00030E08B81882F90E0A90102C05595479592
:1029D0008A95E2F7CA018170EC81FD8180831982BA
:1029E00017C08A818330A1F4E0E3F0E08081282FD2
:1029F00030E08B81882F90E0A90102C05595479562
:102A00008A95E2F7CA018170EC81FD818083198289
:102A100089810F900F900F900F900F90CF91DF91C1
:102A20000895DF93CF9300D0CDB7DEB78A8381E0DE
:102A300089838A81843078F58A81882349F4ABE3DD
:102A4000B0E0EBE3F0E0808180958C93198223C0A5
:102A50008A81813049F4A8E3B0E0E8E3F0E08081C6
:102A600080958C93198217C08A81823049F4A5E33E
:102A7000B0E0E5E3F0E0808180958C9319820BC093
:102A80008A81833041F4A2E3B0E0E2E3F0E08081A8
:102A900080958C93198289810F900F90CF91DF914F
:102AA0000895DF93CF9300D00F92CDB7DEB78A831E
:102AB0006B8381E089838A81843008F063C08B81D5
:102AC000883008F05FC08A818823A9F4ABE3B0E0C6
:102AD000EBE3F0E08081482F8B81282F30E081E00C
:102AE00090E0022E02C0880F991F0A94E2F7842713
:102AF0008C93198247C08A818130A9F4A8E3B0E0A1
:102B0000E8E3F0E08081482F8B81282F30E081E0DE
:102B100090E0022E02C0880F991F0A94E2F78427E2
:102B20008C9319822FC08A818230A9F4A5E3B0E08A
:102B3000E5E3F0E08081482F8B81282F30E081E0B1
:102B400090E0022E02C0880F991F0A94E2F78427B2
:102B50008C93198217C08A818330A1F4A2E3B0E07C
:102B6000E2E3F0E08081482F8B81282F30E081E084
:102B700090E0022E02C0880F991F0A94E2F7842782
:102B80008C93198289810F900F900F90CF91DF91D4
:102B90000895DF93CF93CDB7DEB783E062E040E0E6
:102BA0000E94FA1183E066E041E00E94FA1181E69A
:102BB00097E10E945510AFE5B0E0EFE5F0E08081CD
:102BC00080688C9380E063E042E00E94950B81E78F
:102BD0000E945C0DCF91DF910895DF93CF93CDB725
:102BE000DEB768970FB6F894DEBF0FBECDBF83E0A7
:102BF00066E041E00E94681380E090E0A0E2B1E46A
:102C00008D8B9E8BAF8BB88F6D897E898F89988DC8
:102C10002BEA3AEA4AEA50E40E941F02DC01CB01A7
:102C2000898B9A8BAB8BBC8B69897A898B899C89C0
:102C300020E030E040E85FE30E94250488231CF494
:102C400081E0888B91C069897A898B899C8920E091
:102C500030E04FE753E40E94C50318160CF07BC028
:102C60006D897E898F89988D20E030E04AE754E4B1
:102C70000E941903DC01CB018C879D87AE87BF873B
:102C80006C857D858E859F8520E030E04AE755E4A0
:102C90000E941F02DC01CB0188879987AA87BB8726
:102CA000688579858A859B8520E030E040E85FE390
:102CB0000E94250488232CF481E090E09F838E837A
:102CC0003FC0688579858A859B8520E03FEF4FE787
:102CD00057E40E94C50318164CF56C857D858E85DA
:102CE0009F8520E030E040E251E40E941F02DC01B9
:102CF000CB01BC01CD010E944900DC01CB019F83C7
:102D00008E830FC080E991E09D838C838C819D81AF
:102D10000197F1F79D838C838E819F8101979F831B
:102D20008E838E819F81009769F724C0688579859D
:102D30008A859B850E944900DC01CB019F838E839D
:102D40008E819F819B838A838A819B810197F1F782
:102D50009B838A830FC069897A898B899C890E94A9
:102D60004900DC01CB01888B8889898389818A9518
:102D7000F1F7898383E066E040E00E94681368967B
:102D80000FB6F894DEBF0FBECDBFCF91DF9108958F
:102D9000DF93CF93CDB7DEB760970FB6F894DEBF61
:102DA0000FBECDBF988B8F870E94ED150E94B21089
:102DB00080E090E0A8E4B2E48B879C87AD87BE8773
:102DC0006B857C858D859E8520E030E04AE755E463
:102DD0000E941F02DC01CB018F839887A987BA87E5
:102DE0006F81788589859A8520E030E040E85FE34F
:102DF0000E94250488232CF481E090E09E838D833B
:102E00003FC06F81788589859A8520E03FEF4FE745
:102E100057E40E94C50318164CF56B857C858D859B
:102E20009E8520E030E040E251E40E941F02DC0178
:102E3000CB01BC01CD010E944900DC01CB019E8386
:102E40008D830FC080E991E09C838B838B819C8173
:102E50000197F1F79C838B838D819E8101979E83DF
:102E60008D838D819E81009769F714C06F8178856D
:102E700089859A850E944900DC01CB019E838D8360
:102E80008D819E819A83898389819A810197F1F747
:102E90009A83898380917A0190917B01A0917C0132
:102EA000B0917D01EF85F88980839183A283B383FC
:102EB00060960FB6F894DEBF0FBECDBFCF91DF9105
:102EC0000895DF93CF93CDB7DEB78091680183304B
:102ED00008F075C0809168018130A1F4E2E5F0E06E
:102EE0008081882F90E090937F0180937E01809174
:102EF0006C0190916D0190938B0180938A010E94E7
:102F0000C81058C080916801823009F053C0E2E5D2
:102F1000F0E08081882F90E0909381018093800180
:102F200080916C0190916D0190938901809388014B
:102F30008091880190918901382F2227809180010A
:102F400090918101A901480F591F80918A019091A8
:102F50008B01382F222780917E0190917F01820F73
:102F6000931F9A01281B390BC90190938301809309
:102F700082018091820190918301CC01A0E0B0E0B8
:102F8000BC01CD010E943705DC01CB01BC01CD01A4
:102F900026E933E44BE85DE30E941F02DC01CB012C
:102FA00080937A0190937B01A0937C01B0937D0183
:102FB00010926801809168018F5F80936801CF91C2
:102FC000DF910895DF93CF93CDB7DEB7A1E3B0E0F3
:102FD000E1E3F0E0808180688C93CF91DF910895E8
:102FE000DF93CF93CDB7DEB7E5970FB6F894DEBF8A
:102FF0000FBECDBF8DAB8DA9882F90E08A55904034
:10300000AA2797FDA095BA2FBC01CD010E94850487
:10301000DC01CB01BC01CD012BEA3AEA4AE251E4E2
:103020000E941F02DC01CB01BC01CD0120E030E891
:1030300049E854E40E94F201DC01CB01BC01CD015E
:103040000E944900DC01CB019CAB8BAB20E23EE44B
:103050008BA99CA9A901481B590BCA019AAB89AB42
:103060008DA9882F90E0AA2797FDA095BA2FBC01C3
:10307000CD010E948504DC01CB01BC01CD0120E023
:1030800030E044E353E40E94550418160CF498C150
:10309000A2E3B0E0E2E3F0E0808180688C938BA94A
:1030A0009CA9CC01A0E0B0E0BC01CD010E94370595
:1030B000DC01CB018DA79EA7AFA7B8AB6DA57EA500
:1030C0008FA598A92BEA3AEA4AEA50E40E941F0227
:1030D000DC01CB0189A79AA7ABA7BCA769A57AA5F4
:1030E0008BA59CA520E030E040E85FE30E9425042A
:1030F00088231CF481E088A791C069A57AA58BA5D7
:103100009CA520E030E04FE753E40E94C503181669
:103110000CF07BC06DA57EA58FA598A920E030E0BE
:103120004AE754E40E941903DC01CB018CA39DA360
:10313000AEA3BFA36CA17DA18EA19FA120E030E032
:103140004AE755E40E941F02DC01CB0188A399A342
:10315000AAA3BBA368A179A18AA19BA120E030E02A
:1031600040E85FE30E94250488232CF481E090E08E
:103170009F8F8E8F3FC068A179A18AA19BA120E07B
:103180003FEF4FE757E40E94C50318164CF56CA1BA
:103190007DA18EA19FA120E030E040E251E40E9499
:1031A0001F02DC01CB01BC01CD010E944900DC0102
:1031B000CB019F8F8E8F0FC080E991E09D8F8C8F08
:1031C0008C8D9D8D0197F1F79D8F8C8F8E8D9F8DAE
:1031D00001979F8F8E8F8E8D9F8D009769F724C0EA
:1031E00068A179A18AA19BA10E944900DC01CB01C1
:1031F0009F8F8E8F8E8D9F8D9B8F8A8F8A8D9B8DBB
:103200000197F1F79B8F8A8F0FC069A57AA58BA5CF
:103210009CA50E944900DC01CB0188A788A5898F65
:10322000898D8A95F1F7898FA2E3B0E0E2E3F0E0BF
:1032300080818F778C9389A99AA9CC01A0E0B0E016
:10324000BC01CD010E943705DC01CB018D8B9E8B2B
:10325000AF8BB88F6D897E898F89988D2BEA3AEA7A
:103260004AEA50E40E941F02DC01CB01898B9A8B51
:10327000AB8BBC8B69897A898B899C8920E030E093
:1032800040E85FE30E94250488231CF481E0888BDA
:1032900091C069897A898B899C8920E030E04FE769
:1032A00053E40E94C50318160CF07BC06D897E891B
:1032B0008F89988D20E030E04AE754E40E9419039A
:1032C000DC01CB018C879D87AE87BF876C857D85B0
:1032D0008E859F8520E030E04AE755E40E941F027A
:1032E000DC01CB0188879987AA87BB8768857985A8
:1032F0008A859B8520E030E040E85FE30E9425045A
:1033000088232CF481E090E09F838E833FC0688502
:1033100079858A859B8520E03FEF4FE757E40E943F
:10332000C50318164CF56C857D858E859F8520E03C
:1033300030E040E251E40E941F02DC01CB01BC01FD
:10334000CD010E944900DC01CB019F838E830FC019
:1033500080E991E09D838C838C819D810197F1F7B9
:103360009D838C838E819F8101979F838E838E8125
:103370009F81009769F724C0688579858A859B8538
:103380000E944900DC01CB019F838E838E819F8147
:103390009B838A838A819B810197F1F79B838A8330
:1033A0000FC069897A898B899C890E944900DC0158
:1033B000CB01888B8889898389818A95F1F78983F4
:1033C000E5960FB6F894DEBF0FBECDBFCF91DF916B
:1033D0000895DF93CF9300D00F92CDB7DEB78A83E5
:1033E0006B8381E089838A81843048F48B818830C3
:1033F00030F48A816B8141E00E94FA1189838981CE
:103400000F900F900F90CF91DF910895DF93CF939E
:1034100000D000D0CDB7DEB78A836B834C8381E0C8
:1034200089838A81843010F58B818830F8F48C810F
:103430008330E0F48C81813039F48A816B8141E002
:103440000E946813898312C08C81882339F48A8191
:103450006B8140E00E946813898308C08C818230B0
:1034600029F48A816B810E945115898389810F908B
:103470000F900F900F90CF91DF9108950F931F93AE
:10348000DF93CF93CDB7DEB7C654D0400FB6F894D4
:10349000DEBF0FBECDBF80E067E041E00E94FA11C1
:1034A00080E066E041E00E94FA1180E065E041E0E2
:1034B0000E94FA1180E064E041E00E94FA1181E08C
:1034C00061E041E00E94FA1181E062E041E00E9487
:1034D000FA1181E063E041E00E94FA11FE01ED5B28
:1034E000FF4F80E090E0A0E0B0E480839183A2836E
:1034F000B3838E01015C1F4FFE01ED5BFF4F6081C6
:1035000071818281938120E030E04AE755E40E9496
:103510001F02DC01CB01F80180839183A283B38376
:10352000FE01FF96608171818281938120E030E00D
:1035300040E85FE30E94250488232CF481E090E0BA
:103540009EAF8DAF46C0FE01FF9660817181828182
:10355000938120E03FEF4FE757E40E94C503181620
:1035600064F5FE01ED5BFF4F608171818281938183
:1035700020E030E040E251E40E941F02DC01CB0178
:10358000BC01CD010E944900DC01CB019EAF8DAF93
:103590000FC080E991E09CAF8BAF8BAD9CAD0197E4
:1035A000F1F79CAF8BAF8DAD9EAD01979EAF8DAF08
:1035B0008DAD9EAD009769F716C0FE01FF96608144
:1035C0007181828193810E944900DC01CB019EAF11
:1035D0008DAF8DAD9EAD9AAF89AF89AD9AAD019794
:1035E000F1F79AAF89AF82E00E94D61C80E090E0AC
:1035F000A0E0B0E48DAB9EABAFABB8AF6DA97EA938
:103600008FA998AD20E030E04AE755E40E941F0200
:10361000DC01CB0189AB9AABABABBCAB69A97AA996
:103620008BA99CA920E030E040E85FE30E942504DC
:1036300088232CF481E090E098AB8FA73FC069A964
:103640007AA98BA99CA920E03FEF4FE757E40E949D
:10365000C50318164CF56DA97EA98FA998AD20E079
:1036600030E040E251E40E941F02DC01CB01BC01CA
:10367000CD010E944900DC01CB0198AB8FA70FC0A0
:1036800080E991E09EA78DA78DA59EA50197F1F7F2
:103690009EA78DA78FA598A9019798AB8FA78FA5F7
:1036A00098A9009769F714C069A97AA98BA99CA960
:1036B0000E944900DC01CB0198AB8FA78FA598A988
:1036C0009CA78BA78BA59CA50197F1F79CA78BA71F
:1036D00088E20E94D61C80E090E0A0E0B0E48FA3D6
:1036E00098A7A9A7BAA76FA178A589A59AA520E050
:1036F00030E04AE755E40E941F02DC01CB018BA3B6
:103700009CA3ADA3BEA36BA17CA18DA19EA120E033
:1037100030E040E85FE30E94250488232CF481E038
:1037200090E09AA389A33FC06BA17CA18DA19EA12B
:1037300020E03FEF4FE757E40E94C50318164CF511
:103740006FA178A589A59AA520E030E040E251E478
:103750000E941F02DC01CB01BC01CD010E94490087
:10376000DC01CB019AA389A30FC080E991E098A363
:103770008F8F8F8D98A10197F1F798A38F8F89A1D3
:103780009AA101979AA389A389A19AA1009769F7A1
:1037900014C06BA17CA18DA19EA10E944900DC01F7
:1037A000CB019AA389A389A19AA19E8F8D8F8D8D1C
:1037B0009E8D0197F1F79E8F8D8F8FE00E94D61C12
:1037C00080E090E0A0E0B0E4898F9A8FAB8FBC8F4F
:1037D000698D7A8D8B8D9C8D20E030E04AE755E431
:1037E0000E941F02DC01CB018D8B9E8BAF8BB88FAB
:1037F0006D897E898F89988D20E030E040E85FE315
:103800000E94250488232CF481E090E09C8B8B8B14
:103810003FC06D897E898F89988D20E03FEF4FE70B
:1038200057E40E94C50318164CF5698D7A8D8B8D6F
:103830009C8D20E030E040E251E40E941F02DC0158
:10384000CB01BC01CD010E944900DC01CB019C8B66
:103850008B8B0FC080E991E09A8B898B89899A893B
:103860000197F1F79A8B898B8B899C8901979C8BA7
:103870008B8B8B899C89009769F714C06D897E8931
:103880008F89988D0E944900DC01CB019C8B8B8B2A
:103890008B899C89988B8F878F8598890197F1F701
:1038A000988B8F8781E00E94D61C80E090E0A0E09A
:1038B000B0E48B879C87AD87BE876B857C858D85C3
:1038C0009E8520E030E04AE755E40E941F02DC01BB
:1038D000CB018F839887A987BA876F81788589857F
:1038E0009A8520E030E040E85FE30E9425048823C9
:1038F0002CF481E090E09E838D833FC06F817885BA
:1039000089859A8520E03FEF4FE757E40E94C50381
:1039100018164CF56B857C858D859E8520E030E002
:1039200040E251E40E941F02DC01CB01BC01CD0149
:103930000E944900DC01CB019E838D830FC080E98A
:1039400091E09C838B838B819C810197F1F79C8311
:103950008B838D819E8101979E838D838D819E8136
:10396000009769F714C06F81788589859A850E94D0
:103970004900DC01CB019E838D838D819E819A83DA
:10398000898389819A810197F1F79A83898386E0F7
:103990000E94D61CCA5BDF4F0FB6F894DEBF0FBE85
:1039A000CDBFCF91DF911F910F910895DF93CF93FA
:1039B000CDB7DEB76D970FB6F894DEBF0FBECDBFA3
:1039C0008D8F81E061E040E00E94681381E062E059
:1039D00040E00E94681380E06D8D0E94E51281E056
:1039E00063E041E00E94681380E090E0A0E0B0E472
:1039F000898F9A8FAB8FBC8F698D7A8D8B8D9C8DC3
:103A000020E030E04AE755E40E941F02DC01CB01D0
:103A10008D8B9E8BAF8BB88F6D897E898F89988DAA
:103A200020E030E040E85FE30E94250488232CF486
:103A300081E090E09C8B8B8B3FC06D897E898F8964
:103A4000988D20E03FEF4FE757E40E94C50318161A
:103A50004CF5698D7A8D8B8D9C8D20E030E040E2B5
:103A600051E40E941F02DC01CB01BC01CD010E9488
:103A70004900DC01CB019C8B8B8B0FC080E991E06E
:103A80009A8B898B89899A890197F1F79A8B898B0F
:103A90008B899C8901979C8B8B8B8B899C89009748
:103AA00069F714C06D897E898F89988D0E944900BD
:103AB000DC01CB019C8B8B8B8B899C89988B8F87AE
:103AC0008F8598890197F1F7988B8F8781E063E064
:103AD00040E00E9468138D8D982F9295907F80E032
:103AE000692F0E94E51281E063E041E00E946813C3
:103AF00080E090E0A0E0B0E48B879C87AD87BE8734
:103B00006B857C858D859E8520E030E04AE755E415
:103B10000E941F02DC01CB018F839887A987BA8797
:103B20006F81788589859A8520E030E040E85FE301
:103B30000E94250488232CF481E090E09E838D83ED
:103B40003FC06F81788589859A8520E03FEF4FE7F8
:103B500057E40E94C50318164CF56B857C858D854E
:103B60009E8520E030E040E251E40E941F02DC012B
:103B7000CB01BC01CD010E944900DC01CB019E8339
:103B80008D830FC080E991E09C838B838B819C8126
:103B90000197F1F79C838B838D819E8101979E8392
:103BA0008D838D819E81009769F714C06F81788520
:103BB00089859A850E944900DC01CB019E838D8313
:103BC0008D819E819A83898389819A810197F1F7FA
:103BD0009A83898381E063E040E00E9468136D96D8
:103BE0000FB6F894DEBF0FBECDBFCF91DF91089521
:103BF000DF93CF93CDB7DEB76D970FB6F894DEBFE6
:103C00000FBECDBF8D8F81E061E041E00E9468135F
:103C100081E062E040E00E94681380E06D8D0E94C8
:103C2000E51281E063E041E00E94681380E090E0EB
:103C3000A0E0B0E4898F9A8FAB8FBC8F698D7A8DAD
:103C40008B8D9C8D20E030E04AE755E40E941F02F6
:103C5000DC01CB018D8B9E8BAF8BB88F6D897E89FC
:103C60008F89988D20E030E040E85FE30E942504D2
:103C700088232CF481E090E09C8B8B8B3FC06D8976
:103C80007E898F89988D20E03FEF4FE757E40E94AF
:103C9000C50318164CF5698D7A8D8B8D9C8D20E0AF
:103CA00030E040E251E40E941F02DC01CB01BC0184
:103CB000CD010E944900DC01CB019C8B8B8B0FC096
:103CC00080E991E09A8B898B89899A890197F1F72C
:103CD0009A8B898B8B899C8901979C8B8B8B8B8989
:103CE0009C89009769F714C06D897E898F89988DAA
:103CF0000E944900DC01CB019C8B8B8B8B899C89BA
:103D0000988B8F878F8598890197F1F7988B8F878C
:103D100081E063E040E00E9468138D8D982F9295BA
:103D2000907F80E0692F0E94E51281E063E041E02E
:103D30000E94681380E090E0A0E0B0E48B879C874D
:103D4000AD87BE876B857C858D859E8520E030E0C4
:103D50004AE755E40E941F02DC01CB018F8398875C
:103D6000A987BA876F81788589859A8520E030E0B8
:103D700040E85FE30E94250488232CF481E090E072
:103D80009E838D833FC06F81788589859A8520E0E9
:103D90003FEF4FE757E40E94C50318164CF56B85BB
:103DA0007C858D859E8520E030E040E251E40E94D4
:103DB0001F02DC01CB01BC01CD010E944900DC01E6
:103DC000CB019E838D830FC080E991E09C838B8320
:103DD0008B819C810197F1F79C838B838D819E81E0
:103DE00001979E838D838D819E81009769F714C012
:103DF0006F81788589859A850E944900DC01CB0115
:103E00009E838D838D819E819A83898389819A8106
:103E10000197F1F79A83898381E063E040E00E9493
:103E200068136D960FB6F894DEBF0FBECDBFCF916D
:103E3000DF910895DF93CF9300D000D000D0CDB7AD
:103E4000DEB79E838D8319821A821B821C8215C065
:103E500029813A818D819E81FC01E20FF31F8081CF
:103E60000E94F81D89819A81AB81BC810196A11DB8
:103E7000B11D89839A83AB83BC8329813A818D816B
:103E80009E81FC01E20FF31F8081882309F72696AB
:103E90000FB6F894DEBF0FBECDBFCF91DF9108956E
:103EA000DF93CF93CDB7DEB72C970FB6F894DEBF74
:103EB0000FBECDBF9C878B878B859C859E012F5F16
:103EC0003F4FB9014AE050E00E941B24CE01019609
:103ED0000E941A1F2C960FB6F894DEBF0FBECDBFFE
:103EE000CF91DF910895DF93CF93CDB7DEB7C25462
:103EF000D0400FB6F894DEBF0FBECDBFFE01EF5B22
:103F0000FF4F8083FE01EE5BFF4F6083FE01EF5B9E
:103F1000FF4F8081813009F0A0C0FE01FD96108224
:103F200011821282138284C080E090E0A0E0B0E4AD
:103F30008DAB9EABAFABB8AF6DA97EA98FA998AD85
:103F400020E030E04AE755E40E941F02DC01CB018B
:103F500089AB9AABABABBCAB69A97AA98BA99CA97D
:103F600020E030E040E85FE30E94250488232CF441
:103F700081E090E098AB8FA73FC069A97AA98BA98F
:103F80009CA920E03FEF4FE757E40E94C5031816B5
:103F90004CF56DA97EA98FA998AD20E030E040E2F4
:103FA00051E40E941F02DC01CB01BC01CD010E9443
:103FB0004900DC01CB0198AB8FA70FC080E991E0ED
:103FC0009EA78DA78DA59EA50197F1F79EA78DA70A
:103FD0008FA598A9019798AB8FA78FA598A900974F
:103FE00069F714C069A97AA98BA99CA90E94490004
:103FF000DC01CB0198AB8FA78FA598A99CA78BA7B5
:104000008BA59CA50197F1F79CA78BA78CE10E943B
:10401000D61CFE01FD9680819181A281B38101961B
:10402000A11DB11DFE01FD9680839183A283B38300
:10403000FE01EE5BFF4F8081282F30E040E050E032
:10404000FE01FD9680819181A281B3818217930741
:10405000A407B50708F468CF98C1FE01EF5BFF4FD6
:104060008081882309F098C019AE1AAE1BAE1CAE31
:1040700080C080E090E0A0E0B0E48FA398A7A9A75B
:10408000BAA76FA178A589A59AA520E030E04AE7F4
:1040900055E40E941F02DC01CB018BA39CA3ADA3BE
:1040A000BEA36BA17CA18DA19EA120E030E040E8E1
:1040B0005FE30E94250488232CF481E090E09AA31A
:1040C00089A33FC06BA17CA18DA19EA120E03FEF01
:1040D0004FE757E40E94C50318164CF56FA178A569
:1040E00089A59AA520E030E040E251E40E941F0239
:1040F000DC01CB01BC01CD010E944900DC01CB01F8
:104100009AA389A30FC080E991E098A38F8F8F8D28
:1041100098A10197F1F798A38F8F89A19AA1019790
:104120009AA389A389A19AA1009769F714C06BA1EA
:104130007CA18DA19EA10E944900DC01CB019AA324
:1041400089A389A19AA19E8F8D8F8D8D9E8D0197B8
:10415000F1F79E8F8D8F88E10E94D61C89AD9AADB4
:10416000ABADBCAD0196A11DB11D89AF9AAFABAF90
:10417000BCAFFE01EE5BFF4F8081282F30E040E0B6
:1041800050E089AD9AADABADBCAD82179307A407E3
:10419000B50708F46ECFF9C0FE01EF5BFF4F8081D9
:1041A000823009F076C080E090E0A0E0B0E4898F32
:1041B0009A8FAB8FBC8F698D7A8D8B8D9C8D20E013
:1041C00030E04AE755E40E941F02DC01CB018D8BF1
:1041D0009E8BAF8BB88F6D897E898F89988D20E0FB
:1041E00030E040E85FE30E94250488232CF481E05E
:1041F00090E09C8B8B8B3FC06D897E898F89988DD9
:1042000020E03FEF4FE757E40E94C50318164CF536
:10421000698D7A8D8B8D9C8D20E030E040E251E4F9
:104220000E941F02DC01CB01BC01CD010E944900AC
:10423000DC01CB019C8B8B8B0FC080E991E09A8BCA
:10424000898B89899A890197F1F79A8B898B8B8958
:104250009C8901979C8B8B8B8B899C89009769F734
:1042600014C06D897E898F89988D0E944900DC0178
:10427000CB019C8B8B8B8B899C89988B8F878F85AF
:1042800098890197F1F7988B8F8780E80E94D61C58
:104290007CC0FE01EF5BFF4F8081833009F075C069
:1042A00080E090E0A0E0B0E48B879C87AD87BE877C
:1042B0006B857C858D859E8520E030E04AE755E45E
:1042C0000E941F02DC01CB018F839887A987BA87E0
:1042D0006F81788589859A8520E030E040E85FE34A
:1042E0000E94250488232CF481E090E09E838D8336
:1042F0003FC06F81788589859A8520E03FEF4FE741
:1043000057E40E94C50318164CF56B857C858D8596
:104310009E8520E030E040E251E40E941F02DC0173
:10432000CB01BC01CD010E944900DC01CB019E8381
:104330008D830FC080E991E09C838B838B819C816E
:104340000197F1F79C838B838D819E8101979E83DA
:104350008D838D819E81009769F714C06F81788568
:1043600089859A850E944900DC01CB019E838D835B
:104370008D819E819A83898389819A810197F1F742
:104380009A83898380EC0E94D61CCE5BDF4F0FB6E8
:10439000F894DEBF0FBECDBFCF91DF910895DF93BC
:1043A000CF93CDB7DEB72E970FB6F894DEBF0FBE12
:1043B000CDBF80E090E0A0E0B0E48B879C87AD8724
:1043C000BE876B857C858D859E8520E030E04AE741
:1043D00055E40E941F02DC01CB018F839887A987D7
:1043E000BA876F81788589859A8520E030E040E83A
:1043F0005FE30E94250488232CF481E090E09E83F3
:104400008D833FC06F81788589859A8520E03FEF55
:104410004FE757E40E94C50318164CF56B857C8561
:104420008D859E8520E030E040E251E40E941F022D
:10443000DC01CB01BC01CD010E944900DC01CB01B4
:104440009E838D830FC080E991E09C838B838B8159
:104450009C810197F1F79C838B838D819E810197CD
:104460009E838D838D819E81009769F714C06F8133
:10447000788589859A850E944900DC01CB019E835D
:104480008D838D819E819A83898389819A81019709
:10449000F1F79A83898381E00E94D61C2E960FB68D
:1044A000F894DEBF0FBECDBFCF91DF910895DF93AB
:1044B000CF9300D000D0CDB7DEB78A837C836B83E7
:1044C0008A818830F8F48A81882F90E00896880FD6
:1044D000991F880F991F880F991F0E94D61C198257
:1044E0000EC08981282F30E08B819C81FC01E20F76
:1044F000F31F80810E94F81D89818F5F89838981E4
:10450000883078F382E00E94D61C0F900F900F90B5
:104510000F90CF91DF910895DF93CF93CDB7DEB7A2
:1045200082E063E041E00E94FA1182E064E041E051
:104530000E94FA1182E065E041E00E94FA1182E0F7
:1045400066E041E00E94FA11CF91DF910895DF9378
:10455000CF930F92CDB7DEB7898381E069810E9446
:104560001E0B80E069810E941E0B82E063E040E048
:104570000E94681382E064E040E00E94681382E0D9
:1045800065E041E00E94681382E066E040E00E943E
:1045900068130F90CF91DF910895DF93CF930F921F
:1045A000CDB7DEB7898381E069810E941E0B80E070
:1045B00069810E941E0B83E064E041E00E94681361
:1045C00083E065E041E00E94681382E063E040E040
:1045D0000E94681382E064E041E00E94681382E078
:1045E00065E041E00E94681382E066E040E00E94DE
:1045F00068130F90CF91DF910895DF93CF930F92BF
:10460000CDB7DEB7898381E069810E941E0B80E00F
:1046100069810E941E0B82E063E041E00E94681302
:1046200082E064E040E00E94681382E065E040E0E0
:104630000E94681382E066E041E00E9468130F90D8
:10464000CF91DF910895DF93CF930F92CDB7DEB76F
:10465000898381E069810E941E0B80E069810E944C
:104660001E0B82E063E040E00E94681382E064E099
:1046700041E00E94681382E065E040E00E94681318
:1046800082E066E040E00E9468130F90CF91DF91D6
:104690000895DF93CF930F92CDB7DEB7898381E082
:1046A00069810E941E0B80E069810E941E0B82E0DE
:1046B00063E040E00E94681382E064E040E00E9412
:1046C000681382E065E040E00E94681382E066E0E3
:1046D00040E00E9468130F90CF91DF910895DF931F
:1046E000CF9300D00F92CDB7DEB78A836B8381E082
:1046F00089838A81843048F48B81883030F48A81C0
:104700006B8141E00E94FA11898389810F900F909B
:104710000F90CF91DF910895DF93CF9300D000D019
:10472000CDB7DEB78A836B834C8381E089838A812E
:10473000843010F58B818830F8F48C818330E0F47C
:104740008C81813039F48A816B8141E00E94681349
:10475000898312C08C81882339F48A816B8140E07F
:104760000E946813898308C08C81823029F48A8171
:104770006B810E945115898389810F900F900F9052
:104780000F90CF91DF910895DF93CF93CDB7DEB730
:104790000E948C22CF91DF910895DF93CF93CDB704
:1047A000DEB783E60E94CD22CF91DF910895DF939B
:1047B000CF93CDB7DEB70E94C4230E94CD2380E003
:1047C00090E0CF91DF9108952F923F924F925F92A8
:1047D0006F927F928F929F92AF92BF92CF92DF9211
:1047E000EF92FF920F931F93CF93DF93CDB7DEB776
:1047F000CA1BDB0B0FB6F894DEBF0FBECDBF09940A
:104800002A88398848885F846E847D848C849B8460
:10481000AA84B984C884DF80EE80FD800C811B816E
:10482000AA81B981CE0FD11D0FB6F894DEBF0FBE9D
:10483000CDBFED010895FB019F01E8944230C4F023
:104840004532B4F44A3029F497FB1EF490958195D3
:104850009F4F642F77270E944C24805D8A330CF091
:10486000895D8193CB010097A1F716F45DE2519326
:104870001082C9010C943C24DC01FC01672F71916A
:104880007723E1F7329704C07C916D937083629136
:10489000AE17BF07C8F30895AA1BBB1B51E107C0A1
:1048A000AA1FBB1FA617B70710F0A61BB70B881FC0
:1048B000991F5A95A9F780959095BC01CD0108954F
:0448C000F894FFCF9A
:1048C40000000000000000000001020203030303D3
:1048D400040404040404040405050505050505058C
:1048E400050505050505050506060606060606066C
:1048F4000606060606060606060606060606060654
:10490400060606060606060607070707070707073B
:104914000707070707070707070707070707070723
:104924000707070707070707070707070707070713
:104934000707070707070707070707070707070703
:1049440007070707070707070808080808080808EB
:1049540008080808080808080808080808080808D3
:1049640008080808080808080808080808080808C3
:1049740008080808080808080808080808080808B3
:1049840008080808080808080808080808080808A3
:104994000808080808080808080808080808080893
:1049A4000808080808080808080808080808080883
:1049B4000808080808080808080808080808080873
:0A49C40008080808080808080100A8
:00000001FF
