:100000000C942A000C94D70E0C940A0F0C943D0FFC
:100010000C9447000C9447000C9447000C94D32791
:100020000C9447000C9447000C94BC0B0C94800B70
:100030000C9447000C9447000C9447000C94470024
:100040000C9483150C9447000C9447000C944700C3
:100050000C94470011241FBECFE5D8E0DEBFCDBF12
:1000600011E0A0E6B0E0E0EAFCE702C005900D92E6
:10007000A238B107D9F716E0A2E8B1E001C01D929D
:10008000A932B107E1F70E94623D0C944E3E0C94F8
:100090000000EF92FF920F931F937B018C0120E0F1
:1000A00030E040E05FE40E94F50388238CF0C80153
:1000B000B70120E030E040E05FE40E94C1010E940F
:1000C00055049B01AC01205030404040504806C0D0
:1000D000C801B7010E9455049B01AC01B901CA01D6
:1000E0001F910F91FF90EF900895A0E0B0E0EBE733
:1000F000F0E00C94C93DDC012B01FA019C91923097
:1001000008F439C1EB018881823008F433C194309E
:1001100069F4843009F02FC111969C91119789815F
:10012000981709F428C1A5E6B0E025C1843009F488
:1001300021C18230A9F4923009F01DC19A01AD01AC
:1001400088E0EA010990AE01E90109929E0181501F
:10015000C1F7E201898111969C918923818308C1AD
:10016000923009F407C112962D903C901397EB0141
:100170008A819B811496AD90BD90CD90DC901797AD
:10018000EC80FD800E811F819101281B390BB90184
:1001900037FF04C066277727621B730B6032710537
:1001A0000CF061C0121613066CF537014801062EDB
:1001B00004C096948794779467940A94D2F721E0C8
:1001C00030E040E050E004C0220F331F441F551FB1
:1001D0006A95D2F721503040404050402E213F21B7
:1001E00040235123211531054105510521F021E01E
:1001F00030E040E050E079018A01E628F72808293C
:1002000019293CC0232BD1F1260E371E350146019A
:10021000062E04C096948794779467940A94D2F734
:1002200021E030E040E050E004C0220F331F441FC3
:10023000551F6A95D2F721503040404050402A2146
:100240003B214C215D21211531054105510521F04E
:1002500021E030E040E050E059016A01A628B728CB
:10026000C828D9280BC0821593052CF01C01AA249C
:10027000BB24650103C0EE24FF24870111969C91E5
:10028000D20111968C91981709F445C0992339F041
:10029000A80197012A193B094C095D0906C0A6016E
:1002A00095012E193F09400B510B57FD08C01182D3
:1002B0003382228224833583468357831DC081E0A5
:1002C00081833382228288279927DC01821B930B4A
:1002D000A40BB50B84839583A683B7830DC0220F2F
:1002E000331F441F551F24833583468357838281E0
:1002F000938101979383828324813581468157813D
:10030000DA01C9010197A109B1098F5F9F4FAF4F72
:10031000BF4328F30BC0918333822282EA0CFB1C7B
:100320000C1D1D1DE482F5820683178383E0808304
:10033000248135814681578157FF1AC0C901AA27F8
:1003400097FDA095BA2F81709070A070B0705695EF
:10035000479537952795822B932BA42BB52B848318
:100360009583A683B7838281938101969383828349
:10037000DF0101C0D201CD01CDB7DEB7E2E10C94BF
:10038000E53DA0E2B0E0E7ECF1E00C94D53D6983F7
:100390007A838B839C832D833E834F835887E9E048
:1003A000EE2EF12CEC0EFD1ECE010196B7010E943F
:1003B00046068E010F5E1F4FCE010596B8010E94C2
:1003C00046068A8991E089278A8BC701B801AE0168
:1003D000475E5F4F0E9475000E947105A096E6E09F
:1003E0000C94F13DA0E2B0E0E8EFF1E00C94D53DD3
:1003F00069837A838B839C832D833E834F835887C5
:10040000F9E0EF2EF12CEC0EFD1ECE010196B701A6
:100410000E9446068E010F5E1F4FCE010596B80161
:100420000E944606C701B801AE01475E5F4F0E94B9
:1004300075000E947105A096E6E00C94F13DA0E2E3
:10044000B0E0E5E2F2E00C94C93D69837A838B83E6
:100450009C832D833E834F835887CE010196BE0136
:10046000675F7F4F0E944606CE010596BE016F5E14
:100470007F4F0E9446069985923088F089898230A4
:10048000C8F0943019F4823051F404C0843029F457
:10049000923081F485E690E0C6C0923049F420E0C5
:1004A0009A858A89981321E02A87CE010996BBC0D4
:1004B000823049F420E09A858A89981321E02A8BBA
:1004C000CE014196B0C02D843E844F8458886D88FB
:1004D0007E888F88988CEE24FF248701AA24BB2471
:1004E000650140E050E060E070E0E0E0F0E0C10174
:1004F00081709070892BE9F0E60CF71C081D191D1E
:100500009A01AB012A0D3B1D4C1D5D1D80E090E062
:10051000A0E0B0E0E614F7040805190520F481E036
:1005200090E0A0E0B0E0BA01A901480F591F6A1F8E
:100530007B1FAA0CBB1CCC1CDD1C97FE08C081E0F5
:1005400090E0A0E0B0E0A82AB92ACA2ADB2A3196B6
:10055000E032F10549F0660C771C881C991C569412
:10056000479437942794C3CFFA85EA892B893C892D
:100570008B859C85280F391F2E5F3F4F17C0CA01FE
:1005800081709070892B61F016950795F794E79428
:1005900080E090E0A0E0B0E8E82AF92A0A2B1B2BC3
:1005A00076956795579547952F5F3F4F77FDE7CF36
:1005B0000CC0440F551F661F771F17FD4160EE0CDE
:1005C000FF1C001F111F21503040403090E05907A0
:1005D00090E0690790E4790760F32B8F3C8FDB0193
:1005E000CA018F779070A070B07080349105A1051A
:1005F000B10561F447FD0AC0E114F10401051105DC
:1006000029F0405C5F4F6F4F7F4F40781A8EFE1786
:1006100011F081E08A8F4D8F5E8F6F8F78A383E01A
:10062000898FCE0149960E947105A096E2E10C9453
:10063000E53DA8E1B0E0EFE1F3E00C94D13D698342
:100640007A838B839C832D833E834F835887B9E0C5
:10065000EB2EF12CEC0EFD1ECE010196B7010E948F
:1006600046068E010F5E1F4FCE010596B8010E940F
:1006700046062985223008F47EC03989323010F4CC
:10068000B8017CC08A859A8989278A87243011F02D
:10069000223031F4231709F06EC065E670E06EC0B9
:1006A000343039F41D861E861F86188A1C861B86E8
:1006B00004C0323021F484E08987B7015FC02B8504
:1006C0003C858B899C89281B390B3C872B87ED84C3
:1006D000FE840F851889AD88BE88CF88D88CEA142F
:1006E000FB040C051D0540F4EE0CFF1C001F111F40
:1006F000215030403C872B8720E030E040E050E044
:1007000080E090E0A0E0B0E460E070E0EA14FB0478
:100710000C051D0540F0282B392B4A2B5B2BEA18C2
:10072000FB080C091D09B695A79597958795EE0CC2
:10073000FF1C001F111F6F5F7F4F6F31710531F775
:10074000DA01C9018F779070A070B0708034910584
:10075000A105B10561F427FD0AC0E114F10401050A
:10076000110529F0205C3F4F4F4F5F4F20782D87B8
:100770003E874F87588BBE01675F7F4FCB010E943A
:1007800071056896EAE00C94ED3DA8E1B0E0EBEC71
:10079000F3E00C94D53D69837A838B839C832D830E
:1007A0003E834F83588789E0E82EF12CEC0EFD1E26
:1007B000CE010196B7010E9446068E010F5E1F4FC3
:1007C000CE010596B8010E9446068985823040F028
:1007D0008989823028F0C701B8010E94BE0601C095
:1007E0008FEF6896E6E00C94F13DA8E1B0E0EBEF06
:1007F000F3E00C94D53D69837A838B839C832D83AE
:100800003E834F83588789E0E82EF12CEC0EFD1EC5
:10081000CE010196B7010E9446068E010F5E1F4F62
:10082000CE010596B8010E9446068985823040F0C7
:100830008989823028F0C701B8010E94BE0601C034
:100840008FEF6896E6E00C94F13DA8E1B0E0EBE2B2
:10085000F4E00C94D53D69837A838B839C832D834C
:100860003E834F83588789E0E82EF12CEC0EFD1E65
:10087000CE010196B7010E9446068E010F5E1F4F02
:10088000CE010596B8010E9446068985823040F067
:100890008989823028F0C701B8010E94BE0601C0D4
:1008A00081E06896E6E00C94F13DACE0B0E0EBE569
:1008B000F4E00C94D93D69837A838B839C83CE01C9
:1008C0000196BE016B5F7F4F0E9446068D8182308C
:1008D00061F1823050F1843021F48E81882351F10E
:1008E0002EC02F81388537FD20C06E812F31310514
:1008F0001CF06623F9F023C08EE190E0821B930B7D
:1009000029853A854B855C8504C056954795379572
:1009100027958A95D2F76623B1F05095409530958A
:1009200021953F4F4F4F5F4F0EC020E030E040E039
:1009300050E009C02FEF3FEF4FEF5FE704C020E02A
:1009400030E040E050E8B901CA012C96E2E00C9496
:10095000F53DA8E0B0E0EFEAF4E00C94D13D7B0176
:100960008C01611571058105910519F482E0898377
:1009700060C083E089838EE1C82ED12CDC82CB82DB
:10098000ED82FE820F831887C801B7010E942205FD
:10099000FC013197F7FF3BC0222733272E1B3F0B6B
:1009A00057016801022E04C0D694C794B794A79447
:1009B0000A94D2F740E050E060E070E081E090E01F
:1009C000A0E0B0E004C0880F991FAA1FBB1F2A95A2
:1009D000D2F70197A109B1098E219F21A023B1234C
:1009E0000097A105B10521F041E050E060E070E022
:1009F0004A295B296C297D294D835E836F83788723
:100A00008EE190E08E1B9F0B9C838B8312C03097EE
:100A100081F00E2E04C0EE0CFF1C001F111F0A9463
:100A2000D2F7ED82FE820F831887CE1ADF0ADC82AE
:100A3000CB821A82CE0101960E9471052896EAE0C7
:100A40000C94ED3DEF92FF920F931F937B018C016D
:100A500080E0E81680E0F80681E0080780E01807EB
:100A600088F48FEFE816F1040105110531F028F044
:100A700088E090E0A0E0B0E017C080E090E0A0E067
:100A8000B0E012C080E0E81680E0F80680E00807D9
:100A900081E0180728F088E190E0A0E0B0E004C011
:100AA00080E190E0A0E0B0E020E230E040E050E003
:100AB000281B390B4A0B5B0B04C016950795F7945E
:100AC000E7948A95D2F7F701E359FF4F8081281BFD
:100AD000310941095109C9011F910F91FF90EF9010
:100AE0000895DF92EF92FF920F931F93FC01E48031
:100AF000F58006811781D1808081823048F480E0C2
:100B000090E0A0E1B0E0E82AF92A0A2B1B2BA5C04F
:100B1000843009F49FC0823021F4EE24FF24870141
:100B200005C0E114F1040105110519F4E0E0F0E05D
:100B300096C0628173819FEF623879070CF05BC0C9
:100B400022E83FEF261B370B2A3131052CF020E03D
:100B500030E040E050E02AC0B801A701022E04C0F6
:100B600076956795579547950A94D2F781E090E07E
:100B7000A0E0B0E004C0880F991FAA1FBB1F2A95F0
:100B8000D2F70197A109B1098E219F21A023B1239A
:100B90000097A105B10521F081E090E0A0E0B0E070
:100BA0009A01AB01282B392B4A2B5B2BDA01C901A7
:100BB0008F779070A070B07080349105A105B10559
:100BC00039F427FF09C0205C3F4F4F4F5F4F04C0EF
:100BD000215C3F4F4F4F5F4FE0E0F0E02030A0E05E
:100BE0003A07A0E04A07A0E45A0710F0E1E0F0E07D
:100BF00079018A0127C06038710564F5FB01E1586D
:100C0000FF4FD801C7018F779070A070B07080340B
:100C10009105A105B10539F4E7FE0DC080E490E02F
:100C2000A0E0B0E004C08FE390E0A0E0B0E0E80E08
:100C3000F91E0A1F1B1F17FF05C016950795F7948D
:100C4000E794319687E016950795F794E7948A958F
:100C5000D1F705C0EE24FF248701EFEFF0E06E2FFF
:100C6000679566276795902F9F77D794DD24D79453
:100C70008E2F8695492F462B582F5D29B701CA0123
:100C80001F910F91FF90EF90DF900895FC01DB0121
:100C9000408151812281622F6F7770E0221F2227CD
:100CA000221F9381892F880F822B282F30E0991FD4
:100CB0009927991F11969C93119721153105A9F534
:100CC000411551056105710511F482E037C082E8D4
:100CD0009FEF13969C938E9312979A01AB0167E056
:100CE000220F331F441F551F6A95D1F783E08C9361
:100CF0000DC0220F331F441F551F12968D919C91DA
:100D00001397019713969C938E931297203080E04F
:100D1000380780E0480780E4580758F314962D936D
:100D20003D934D935C93179708952F3F310579F4C8
:100D3000411551056105710519F484E08C930895FE
:100D400064FF03C081E08C9312C01C9210C02F5727
:100D5000304013963C932E93129783E08C9387E058
:100D6000440F551F661F771F8A95D1F7706414963C
:100D70004D935D936D937C93179708951F93DC01BA
:100D8000FB019C91923008F447C08081823008F4C6
:100D900043C0943051F411961C91843099F58181AF
:100DA000682F70E0611B71093FC0843021F09230E0
:100DB00031F48230B9F18181882389F12DC01196F7
:100DC0001C9111978230F1F081811817D9F4129695
:100DD0002D913C911397828193818217930794F010
:100DE00028173907BCF014968D919D910D90BC91F8
:100DF000A02D2481358146815781281739074A075C
:100E00005B0718F4112341F00AC082179307A40767
:100E1000B50740F4112319F061E070E005C06FEFF1
:100E20007FEF02C060E070E0CB011F910895DF9377
:100E3000CF93CDB7DEB7A1E4B0E0E1E4F0E080818C
:100E400088608C93A1E4B0E0E1E4F0E0808180610F
:100E50008C93CF91DF910895DF93CF930F92CDB70D
:100E6000DEB7898389818823B1F4A1E4B0E0E1E4AD
:100E7000F0E080818E7F8C93A1E4B0E0E1E4F0E0CB
:100E800080818D7F8C93A1E4B0E0E1E4F0E080818B
:100E90008B7F8C93AEC089818130B1F4A1E4B0E046
:100EA000E1E4F0E0808181608C93A1E4B0E0E1E4D2
:100EB000F0E080818D7F8C93A1E4B0E0E1E4F0E08C
:100EC00080818B7F8C9395C089818230B1F4A1E4BD
:100ED000B0E0E1E4F0E080818E7F8C93A1E4B0E0AB
:100EE000E1E4F0E0808182608C93A1E4B0E0E1E491
:100EF000F0E080818B7F8C937CC089818330B1F45A
:100F0000A1E4B0E0E1E4F0E0808181608C93A1E4B1
:100F1000B0E0E1E4F0E0808182608C93A1E4B0E095
:100F2000E1E4F0E080818B7F8C9363C08981843021
:100F3000B1F4A1E4B0E0E1E4F0E080818E7F8C9335
:100F4000A1E4B0E0E1E4F0E080818D7F8C93A1E446
:100F5000B0E0E1E4F0E0808184608C934AC0898154
:100F60008530B1F4A1E4B0E0E1E4F0E0808181609B
:100F70008C93A1E4B0E0E1E4F0E080818D7F8C937C
:100F8000A1E4B0E0E1E4F0E0808184608C9331C0C2
:100F900089818630B1F4A1E4B0E0E1E4F0E0808141
:100FA0008E7F8C93A1E4B0E0E1E4F0E08081826088
:100FB0008C93A1E4B0E0E1E4F0E0808184608C9364
:100FC00018C089818730A9F4A1E4B0E0E1E4F0E041
:100FD000808181608C93A1E4B0E0E1E4F0E0808165
:100FE00082608C93A1E4B0E0E1E4F0E08081846071
:100FF0008C930F90CF91DF910895DF93CF93CDB76E
:10100000DEB7E1E4F0E088E18083E1E4F0E0108223
:10101000CF91DF910895DF93CF93CDB7DEB7E0E4B2
:10102000F0E01082E9E2F0E087E68083AAE2B0E037
:10103000EAE2F0E0808180618C93AAE2B0E0EAE22B
:10104000F0E0808188608C93E0E4F0E08EE88083BB
:10105000CF91DF910895DF93CF930F92CDB7DEB795
:101060008983EBE2F0E08081829586958770882FF6
:1010700090E0817090700097A1F3ECE2F0E089813C
:101080008083EBE2F0E0808182958695869583707F
:10109000882F90E081709070009799F3ABE2B0E0F8
:1010A000EBE2F0E0808180648C930F90CF91DF9130
:1010B0000895DF93CF9300D0CDB7DEB79A838983AD
:1010C000EBE2F0E080818823DCF7ECE2F0E0808165
:1010D000E981FA8180830F900F90CF91DF9108957D
:1010E000DF93CF9300D000D0CDB7DEB78A836B8378
:1010F0004C8381E08983AFE5B0E0EFE5F0E08081EB
:1011000080688C938A818823B1F4A3E5B0E0E3E59D
:10111000F0E08081877F8C93A3E5B0E0E3E5F0E029
:1011200080818F7B8C93A9E5B0E0E9E5F0E08081D8
:1011300081608C9335C08A818130B1F4A3E5B0E041
:10114000E3E5F0E0808188608C93A3E5B0E0E3E51F
:10115000F0E080818F7B8C93A9E5B0E0E9E5F0E0D9
:10116000808182608C931CC08A81823079F4A3E5EF
:10117000B0E0E3E5F0E08081877F8C93A3E5B0E009
:10118000E3E5F0E0808180648C930AC08A8183303B
:1011900039F4A9E5B0E0E9E5F0E0808182608C9364
:1011A0008B818823B9F4A3E5B0E0E3E5F0E080812A
:1011B0008E7F8C93A3E5B0E0E3E5F0E080818D7F46
:1011C0008C93A3E5B0E0E3E5F0E080818B7F8C9326
:1011D0001982F1C08B81813019F5A3E5B0E0E3E518
:1011E000F0E0808181608C93A3E5B0E0E3E5F0E07E
:1011F00080818D7F8C93A3E5B0E0E3E5F0E0808112
:101200008B7F8C938DEB97E3A6E8B3E38093210665
:1012100090932206A0932306B09324061982CBC094
:101220008B81823019F5A3E5B0E0E3E5F0E0808141
:101230008E7F8C93A3E5B0E0E3E5F0E080818260EF
:101240008C93A3E5B0E0E3E5F0E080818B7F8C93A5
:101250008DEB97E3A6E0B5E38093210690932206F9
:10126000A0932306B09324061982A5C08B818330F6
:1012700019F5A3E5B0E0E3E5F0E0808181608C93AF
:10128000A3E5B0E0E3E5F0E0808182608C93A3E524
:10129000B0E0E3E5F0E080818B7F8C938DEB97E30A
:1012A000A6E8B6E38093210690932206A093230636
:1012B000B093240619827FC08B81843019F5A3E591
:1012C000B0E0E3E5F0E080818E7F8C93A3E5B0E0B1
:1012D000E3E5F0E080818D7F8C93A3E5B0E0E3E56A
:1012E000F0E0808184608C938DEB97E3A6E8B7E310
:1012F0008093210690932206A0932306B0932406A0
:10130000198259C08B81853019F5A3E5B0E0E3E57A
:10131000F0E0808181608C93A3E5B0E0E3E5F0E04C
:1013200080818D7F8C93A3E5B0E0E3E5F0E08081E0
:1013300084608C938DEB97E3A6E8B8E38093210655
:1013400090932206A0932306B0932406198233C0FB
:101350008B818630B9F4A3E5B0E0E3E5F0E080816D
:101360008E7F8C93A3E5B0E0E3E5F0E080818260BE
:101370008C93A3E5B0E0E3E5F0E0808184608C939A
:10138000198219C08B818730B1F4A3E5B0E0E3E5A1
:10139000F0E0808181608C93A3E5B0E0E3E5F0E0CC
:1013A000808182608C93A3E5B0E0E3E5F0E080818A
:1013B00084608C9319828C81882379F4A3E5B0E052
:1013C000E3E5F0E080818F7E8C93A3E5B0E0E3E578
:1013D000F0E080818F7D8C9343C08C81813079F4E3
:1013E000A3E5B0E0E3E5F0E0808180618C93A3E5C4
:1013F000B0E0E3E5F0E080818F7D8C9331C08C819B
:101400008230B1F4A3E5B0E0E3E5F0E080818062F2
:101410008C93A3E5B0E0E3E5F0E080818F7E8C93D0
:10142000A7E3B0E0E7E3F0E0808188608C9318C028
:101430008C818330A9F4A3E5B0E0E3E5F0E080819E
:1014400080618C93A3E5B0E0E3E5F0E08081806209
:101450008C93A7E3B0E0E7E3F0E0808188608C93B1
:101460000F900F900F900F90CF91DF910895DF9321
:10147000CF930F92CDB7DEB78983E2E5F0E08981A3
:1014800080830F90CF91DF910895DF93CF930F92D8
:10149000CDB7DEB78983ECE5F0E0898180830F90DA
:1014A000CF91DF910895DF93CF93CDB7DEB7A9E554
:1014B000B0E0E9E5F0E0808181608C93CF91DF912D
:1014C0000895DF93CF93CDB7DEB7A9E5B0E0E9E5A6
:1014D000F0E080818E7F8C93CF91DF910895DF9330
:1014E000CF93CDB7DEB7A9E5B0E0E9E5F0E08081C4
:1014F00082608C93CF91DF910895DF93CF93CDB726
:10150000DEB7A9E5B0E0E9E5F0E080818D7F8C935E
:10151000CF91DF910895DF93CF93CDB7DEB72897B2
:101520000FB6F894DEBF0FBECDBF6D837E838F8371
:10153000988719821A821B821C826D817E818F811D
:1015400098850E94A904DC01CB01BC01CD0120E0FB
:1015500030E04AE754E40E941903DC01CB012091FA
:101560002106309122064091230650912406BC01A9
:10157000CD010E941903DC01CB01BC01CD010E9409
:101580004900DC01CB0189839A83AB83BC838981C9
:101590009A81907090938701809386018091860153
:1015A00090918701009799F480918601909187012D
:1015B0000E94370A89819A81AB81BC81892F9A2F39
:1015C000AB2FBB27909389018093880119C080912C
:1015D000860190918701009799F080918601909102
:1015E00087010E94370A89819A81AB81BC81892F4A
:1015F0009A2FAB2FBB270196909389018093880186
:1016000028960FB6F894DEBF0FBECDBFCF91DF9105
:101610000895DF93CF93CDB7DEB729970FB6F8942F
:10162000DEBF0FBECDBF6E837F838887998781E041
:101630008D8380E090E0A0E0B0E089839A83AB8363
:10164000BC8387EC0E94450A809121069091220676
:10165000A0912306B0912406BC01CD0120E030E02A
:1016600048E453E40E941F02DC01CB0189839A8382
:10167000AB83BC836E817F81888599850E94A90494
:10168000DC01CB01BC01CD0120E030E04AE754E4AD
:101690000E941903DC01CB01BC01CD0129813A81F3
:1016A0004B815C810E941903DC01CB01BC01CD019F
:1016B0000E944900DC01CB0190938901809388014D
:1016C0001D8229960FB6F894DEBF0FBECDBFCF9115
:1016D000DF910895DF93CF9300D0CDB7DEB79A8323
:1016E000898389819A81009731F089819A819093C9
:1016F0008501809384010F900F90CF91DF91089521
:101700001F920F920FB60F9211242F933F934F9376
:101710005F936F937F938F939F93AF93BF93EF9359
:10172000FF93DF93CF93CDB7DEB780918401909183
:101730008501009729F0E0918401F09185010995D8
:10174000809182019091830101969093830180930F
:101750008201CF91DF91FF91EF91BF91AF919F9166
:101760008F917F916F915F914F913F912F910F904A
:101770000FBE0F901F9018951F920F920FB60F92E9
:1017800011242F933F934F935F936F937F938F9386
:101790009F93AF93BF93EF93FF93DF93CF93CDB717
:1017A000DEB78091840190918501009729F0E09146
:1017B0008401F09185010995CF91DF91FF91EF911F
:1017C000BF91AF919F918F917F916F915F914F9159
:1017D0003F912F910F900FBE0F901F901895DF93A0
:1017E000CF93CDB7DEB7A6E5B0E0E6E5F0E08081C7
:1017F00084608C93A6E5B0E0E6E5F0E0808180644B
:101800008C93E0E2F0E088E98083CF91DF91089546
:10181000DF93CF93CDB7DEB7A6E5B0E0E6E5F0E025
:10182000808180628C93A6E5B0E0E6E5F0E08081FF
:1018300080688C93E6E5F0E080818823DCF7CF9127
:10184000DF910895DF93CF93CDB7DEB7A6E5B0E083
:10185000E6E5F0E0808180628C93A6E5B0E0E6E505
:10186000F0E0808180688C93E6E5F0E08081882359
:10187000DCF7CF91DF910895DF93CF93CDB7DEB73B
:10188000A6E5B0E0E6E5F0E0808180618C93A6E516
:10189000B0E0E6E5F0E0808180688C93CF91DF9145
:1018A0000895DF93CF930F92CDB7DEB78983E3E23C
:1018B000F0E08981880F8083A3E2B0E0E3E2F0E00A
:1018C00080818E7F8C93A6E5B0E0E6E5F0E0808134
:1018D0008F7D8C93A6E5B0E0E6E5F0E0808180683E
:1018E0008C93E6E5F0E080818823DCF70F90CF91C0
:1018F000DF910895DF93CF930F92CDB7DEB7898341
:10190000E3E2F0E08981880F8083A3E2B0E0E3E2C4
:10191000F0E0808181608C93A6E5B0E0E6E5F0E040
:1019200080818F7D8C93A6E5B0E0E6E5F0E08081D4
:1019300080688C93E6E5F0E080818823DCF70F90E7
:10194000CF91DF910895DF93CF930F92CDB7DEB79C
:101950008983A6E5B0E0E6E5F0E0808184608C93C1
:10196000A6E5B0E0E6E5F0E0808180648C93E2E2F9
:10197000F0E08981880F8083A2E2B0E0E2E2F0E04B
:1019800080818E7F8C93A6E5B0E0E6E5F0E0808173
:1019900080688C930F90CF91DF910895DF93CF9360
:1019A000CDB7DEB7A6E5B0E0E6E5F0E0808180687F
:1019B0008C93CF91DF910895DF93CF930F92CDB7A2
:1019C000DEB78983E3E2F0E089818083A6E5B0E0B9
:1019D000E6E5F0E0808180688C93E6E5F0E08081C8
:1019E0008823DCF70F90CF91DF910895DF93CF9399
:1019F00000D0CDB7DEB79A838983A6E5B0E0E6E5EF
:101A0000F0E0808180688C93E6E5F0E080818823B7
:101A1000DCF7E3E2F0E08081E981FA8180830F90D6
:101A20000F90CF91DF910895DF93CF9300D0CDB782
:101A3000DEB789836A838A818F3F09F5898188238C
:101A400029F4EFE5F0E08FEF808357C08981813082
:101A500029F4EBE5F0E08FEF80834FC0898182307D
:101A600029F4E5E5F0E08FEF808347C0898183307A
:101A700009F043C0E4E5F0E08FEF80833EC08A8147
:101A80008823E1F48981882321F4EFE5F0E01082D6
:101A900034C08981813021F4EBE5F0E010822DC063
:101AA0008981823021F4E5E5F0E0108226C0898149
:101AB000833019F5E4E5F0E010821FC089818823A6
:101AC00029F4EFE5F0E08A81808317C089818130B5
:101AD00029F4EBE5F0E08A8180830FC089818230B0
:101AE00029F4E5E5F0E08A81808307C089818330AD
:101AF00021F4E4E5F0E08A8180830F900F90CF918C
:101B0000DF910895DF93CF9300D00F92CDB7DEB76A
:101B100089836A834B838B81813009F05DC0898121
:101B20008823A1F4AFE5B0E0EFE5F0E08081482F35
:101B30008A81282F30E081E090E0022E02C0880FD9
:101B4000991F0A94E2F7842B8C93A9C08981813074
:101B5000A1F4ABE5B0E0EBE5F0E08081482F8A81AD
:101B6000282F30E081E090E0022E02C0880F991FFC
:101B70000A94E2F7842B8C9392C089818230A1F47D
:101B8000A5E5B0E0E5E5F0E08081482F8A81282FC7
:101B900030E081E090E0022E02C0880F991F0A9485
:101BA000E2F7842B8C937BC08981833009F077C066
:101BB000A4E5B0E0E4E5F0E08081482F8A81282F99
:101BC00030E081E090E0022E02C0880F991F0A9455
:101BD000E2F7842B8C9363C08B81882309F05FC06C
:101BE00089818823A9F4AFE5B0E0EFE5F0E08081DA
:101BF000482F8A81282F30E081E090E0022E02C039
:101C0000880F991F0A94E2F7809584238C9347C02C
:101C100089818130A9F4ABE5B0E0EBE5F0E08081AB
:101C2000482F8A81282F30E081E090E0022E02C008
:101C3000880F991F0A94E2F7809584238C932FC014
:101C400089818230A9F4A5E5B0E0E5E5F0E0808186
:101C5000482F8A81282F30E081E090E0022E02C0D8
:101C6000880F991F0A94E2F7809584238C9317C0FC
:101C700089818330A1F4A4E5B0E0E4E5F0E080815F
:101C8000482F8A81282F30E081E090E0022E02C0A8
:101C9000880F991F0A94E2F7809584238C930F9004
:101CA0000F900F90CF91DF910895DF93CF9300D0E5
:101CB000CDB7DEB79A83898389819A81009731F005
:101CC00089819A8190938B0180938A010F900F9064
:101CD000CF91DF910895DF93CF9300D0CDB7DEB7DA
:101CE0009A83898389819A81009731F089819A81C9
:101CF00090938D0180938C010F900F90CF91DF9185
:101D00000895DF93CF9300D0CDB7DEB79A83898350
:101D100089819A81009731F089819A8190938F010E
:101D200080938E010F900F90CF91DF910895DF93F4
:101D3000CF930F92CDB7DEB789838981813031F49B
:101D400080E067E041E00E94820D08C0898188231D
:101D500029F480E067E040E00E94820D0F90CF916F
:101D6000DF910895DF93CF93CDB7DEB780E067E0D2
:101D700041E00E94820D81E066E041E00E94820D18
:101D800081E067E041E00E94820D81E065E041E092
:101D90000E94820D82E060E041E00E94820D82E0BC
:101DA00061E041E00E94820DCF91DF9108951F9282
:101DB0000F920FB60F9211242F933F934F935F937F
:101DC0006F937F938F939F93AF93BF93EF93FF9303
:101DD000DF93CF93CDB7DEB780918A0190918B01CD
:101DE000009729F0E0918A01F0918B010995CF913C
:101DF000DF91FF91EF91BF91AF919F918F917F9173
:101E00006F915F914F913F912F910F900FBE0F9067
:101E10001F9018951F920F920FB60F9211242F93B7
:101E20003F934F935F936F937F938F939F93AF9362
:101E3000BF93EF93FF93DF93CF93CDB7DEB780913E
:101E40008C0190918D01009729F0E0918C01F09127
:101E50008D010995CF91DF91FF91EF91BF91AF91E6
:101E60009F918F917F916F915F914F913F912F91B2
:101E70000F900FBE0F901F9018951F920F920FB6E4
:101E80000F9211242F933F934F935F936F937F9300
:101E90008F939F93AF93BF93EF93FF93DF93CF9372
:101EA000CDB7DEB780918E0190918F01009729F018
:101EB000E0918E01F0918F010995CF91DF91FF9113
:101EC000EF91BF91AF919F918F917F916F915F91B2
:101ED0004F913F912F910F900FBE0F901F9018952B
:101EE000DF93CF9300D00F92CDB7DEB78A836B8399
:101EF00081E089838A81843008F06EC08B818F3FB6
:101F000029F58A81882331F4EAE3F0E08FEF8083BA
:101F1000198262C08A81813031F4E7E3F0E08FEF0B
:101F20008083198259C08A81823031F4E4E3F0E081
:101F30008FEF8083198250C08A81833009F04CC0B2
:101F4000E1E3F0E08FEF8083198246C08B81882324
:101F500001F58A81882329F4EAE3F0E010821982EE
:101F60003BC08A81813029F4E7E3F0E010821982D6
:101F700033C08A81823029F4E4E3F0E010821982D0
:101F80002BC08A81833041F5E1E3F0E010821982B1
:101F900023C08A81882331F4EAE3F0E08B818083D7
:101FA00019821AC08A81813031F4E7E3F0E08B8135
:101FB0008083198211C08A81823031F4E4E3F0E039
:101FC0008B818083198208C08A81833029F4E1E300
:101FD000F0E08B818083198289810F900F900F90A0
:101FE000CF91DF910895DF93CF9300D000D0CDB78C
:101FF000DEB78A836B834C8381E089838A81843056
:1020000008F0D4C08B81883008F0D0C08C81823039
:1020100008F0CCC08C81813009F061C08A818823AE
:10202000A9F4AAE3B0E0EAE3F0E08081482F8B81D5
:10203000282F30E081E090E0022E02C0880F991F27
:102040000A94E2F7842B8C931982B0C08A81813084
:10205000A9F4A7E3B0E0E7E3F0E08081482F8B81AB
:10206000282F30E081E090E0022E02C0880F991FF7
:102070000A94E2F7842B8C93198298C08A8182306B
:10208000A9F4A4E3B0E0E4E3F0E08081482F8B8181
:10209000282F30E081E090E0022E02C0880F991FC7
:1020A0000A94E2F7842B8C93198280C08A81833052
:1020B00009F07CC0A1E3B0E0E1E3F0E08081482FCB
:1020C0008B81282F30E081E090E0022E02C0880F43
:1020D000991F0A94E2F7842B8C93198267C08C8134
:1020E000882309F063C08A818823B1F4AAE3B0E0B1
:1020F000EAE3F0E08081482F8B81282F30E081E0F7
:1021000090E0022E02C0880F991F0A94E2F7809592
:1021100084238C9319824AC08A818130B1F4A7E369
:10212000B0E0E7E3F0E08081482F8B81282F30E09A
:1021300081E090E0022E02C0880F991F0A94E2F716
:10214000809584238C93198231C08A818230B1F4C6
:10215000A4E3B0E0E4E3F0E08081482F8B81282FF6
:1021600030E081E090E0022E02C0880F991F0A94AF
:10217000E2F7809584238C93198218C08A8183307A
:10218000A9F4A1E3B0E0E1E3F0E08081482F8B8186
:10219000282F30E081E090E0022E02C0880F991FC6
:1021A0000A94E2F7809584238C93198289810F9099
:1021B0000F900F900F90CF91DF910895DF93CF9301
:1021C00000D00F92CDB7DEB78A836B8381E089831D
:1021D0008A81843008F06EC08B818F3F29F58A8117
:1021E000882331F4EBE3F0E08FEF8083198262C043
:1021F0008A81813031F4E8E3F0E08FEF8083198247
:1022000059C08A81823031F4E5E3F0E08FEF8083BA
:10221000198250C08A81833009F04CC0E2E3F0E0BB
:102220008FEF8083198246C08B81882301F58A81D4
:10223000882329F4EBE3F0E0108219823BC08A8105
:10224000813029F4E8E3F0E01082198233C08A81FA
:10225000823029F4E5E3F0E0108219822BC08A81F4
:10226000833041F5E2E3F0E01082198223C08A81D5
:10227000882331F4EBE3F0E08B81808319821AC06C
:102280008A81813031F4E8E3F0E08B818083198228
:1022900011C08A81823031F4E5E3F0E08B818083E4
:1022A000198208C08A81833029F4E2E3F0E08B814F
:1022B0008083198289810F900F900F90CF91DF91C9
:1022C0000895DF93CF9300D000D0CDB7DEB78A83D7
:1022D0006B834C8381E089838A81843008F0D4C089
:1022E0008B81883008F0D0C08C81823008F0CCC05F
:1022F0008C81813009F061C08A818823A9F4ABE325
:10230000B0E0EBE3F0E08081482F8B81282F30E0B4
:1023100081E090E0022E02C0880F991F0A94E2F734
:10232000842B8C931982B0C08A818130A9F4A8E3F0
:10233000B0E0E8E3F0E08081482F8B81282F30E087
:1023400081E090E0022E02C0880F991F0A94E2F704
:10235000842B8C93198298C08A818230A9F4A5E3DA
:10236000B0E0E5E3F0E08081482F8B81282F30E05A
:1023700081E090E0022E02C0880F991F0A94E2F7D4
:10238000842B8C93198280C08A81833009F07CC0B1
:10239000A2E3B0E0E2E3F0E08081482F8B81282FB8
:1023A00030E081E090E0022E02C0880F991F0A946D
:1023B000E2F7842B8C93198267C08C81882309F003
:1023C00063C08A818823B1F4ABE3B0E0EBE3F0E0D3
:1023D0008081482F8B81282F30E081E090E0022E11
:1023E00002C0880F991F0A94E2F7809584238C938A
:1023F00019824AC08A818130B1F4A8E3B0E0E8E3F1
:10240000F0E08081482F8B81282F30E081E090E040
:10241000022E02C0880F991F0A94E2F78095842348
:102420008C93198231C08A818230B1F4A5E3B0E087
:10243000E5E3F0E08081482F8B81282F30E081E0B8
:1024400090E0022E02C0880F991F0A94E2F780954F
:1024500084238C93198218C08A818330A9F4A2E363
:10246000B0E0E2E3F0E08081482F8B81282F30E05C
:1024700081E090E0022E02C0880F991F0A94E2F7D3
:10248000809584238C93198289810F900F900F90EF
:102490000F90CF91DF910895DF93CF9300D000D0BC
:1024A000CDB7DEB78A837C836B8381E089838A81A1
:1024B000843058F58A81882341F4EBE3F0E0808191
:1024C000EB81FC818083198220C08A81813041F4B4
:1024D000E8E3F0E08081EB81FC818083198215C004
:1024E0008A81823041F4E5E3F0E08081EB81FC8178
:1024F000808319820AC08A81833039F4E2E3F0E0F4
:102500008081EB81FC818083198289810F900F90FB
:102510000F900F90CF91DF910895DF93CF9300D06C
:1025200000D00F92CDB7DEB78A836B835D834C8377
:1025300081E089838A81843008F063C08B81883090
:1025400008F05FC08A818823A9F4E9E3F0E0808184
:10255000282F30E08B81882F90E0A90102C055958B
:1025600047958A95E2F7CA018170EC81FD818083ED
:10257000198247C08A818130A9F4E6E3F0E08081C6
:10258000282F30E08B81882F90E0A90102C055955B
:1025900047958A95E2F7CA018170EC81FD818083BD
:1025A00019822FC08A818230A9F4E3E3F0E08081B0
:1025B000282F30E08B81882F90E0A90102C055952B
:1025C00047958A95E2F7CA018170EC81FD8180838D
:1025D000198217C08A818330A1F4E0E3F0E08081A2
:1025E000282F30E08B81882F90E0A90102C05595FB
:1025F00047958A95E2F7CA018170EC81FD8180835D
:10260000198289810F900F900F900F900F90CF91AA
:10261000DF910895DF93CF9300D0CDB7DEB78A83E3
:1026200081E089838A81843078F58A81882349F41E
:10263000ABE3B0E0EBE3F0E0808180958C9319820E
:1026400023C08A81813049F4A8E3B0E0E8E3F0E0F8
:10265000808180958C93198217C08A81823049F4D9
:10266000A5E3B0E0E5E3F0E0808180958C931982EA
:102670000BC08A81833041F4A2E3B0E0E2E3F0E0F2
:10268000808180958C93198289810F900F90CF91D2
:10269000DF910895DF93CF9300D00F92CDB7DEB7CF
:1026A0008A836B8381E089838A81843008F063C0E8
:1026B0008B81883008F05FC08A818823A9F4ABE35E
:1026C000B0E0EBE3F0E08081482F8B81282F30E0F1
:1026D00081E090E0022E02C0880F991F0A94E2F771
:1026E00084278C93198247C08A818130A9F4A8E39A
:1026F000B0E0E8E3F0E08081482F8B81282F30E0C4
:1027000081E090E0022E02C0880F991F0A94E2F740
:1027100084278C9319822FC08A818230A9F4A5E383
:10272000B0E0E5E3F0E08081482F8B81282F30E096
:1027300081E090E0022E02C0880F991F0A94E2F710
:1027400084278C93198217C08A818330A1F4A2E375
:10275000B0E0E2E3F0E08081482F8B81282F30E069
:1027600081E090E0022E02C0880F991F0A94E2F7E0
:1027700084278C93198289810F900F900F90CF91AD
:10278000DF910895DF93CF9300D0CDB7DEB7898373
:102790006A838A818F3FC1F48981882329F4E7E223
:1027A000F0E08FEF80833FC08981813029F4E6E239
:1027B000F0E08FEF808337C089818230A1F5E0E5BA
:1027C000F0E08FEF80832FC08A818823A9F489816C
:1027D000882321F4E7E2F0E0108225C0898181306E
:1027E00021F4E6E2F0E010821EC089818230D9F443
:1027F000E0E5F0E0108217C08981882329F4E7E240
:10280000F0E08A8180830FC08981813029F4E6E27B
:10281000F0E08A81808307C08981823021F4E0E57D
:10282000F0E08A8180830F900F90CF91DF9108951F
:10283000DF93CF9300D00F92CDB7DEB789836A8341
:102840004B838B81813009F046C089818823A1F4B4
:10285000A7E2B0E0E7E2F0E08081482F8A81282FEC
:1028600030E081E090E0022E02C0880F991F0A94A8
:10287000E2F7842B8C937AC089818130A1F4A6E29F
:10288000B0E0E6E2F0E08081482F8A81282F30E036
:1028900081E090E0022E02C0880F991F0A94E2F7AF
:1028A000842B8C9363C08981823009F05FC0A0E5DE
:1028B000B0E0E0E5F0E08081482F8A81282F30E009
:1028C00081E090E0022E02C0880F991F0A94E2F77F
:1028D000842B8C934BC08B81882309F047C089815E
:1028E0008823A9F4A7E2B0E0E7E2F0E08081482F76
:1028F0008A81282F30E081E090E0022E02C0880F0C
:10290000991F0A94E2F7809584238C932FC08981C4
:102910008130A9F4A6E2B0E0E6E2F0E08081482F41
:102920008A81282F30E081E090E0022E02C0880FDB
:10293000991F0A94E2F7809584238C9317C08981AC
:102940008230A1F4A0E5B0E0E0E5F0E08081482F1E
:102950008A81282F30E081E090E0022E02C0880FAB
:10296000991F0A94E2F7809584238C930F900F901F
:102970000F90CF91DF910895DF93CF930F92CDB752
:10298000DEB7898381E06FEA0E94C21382E067E0CC
:1029900040E00E94181482E066E040E00E941814B3
:1029A00082E065E040E00E941814EFE5F0E08081ED
:1029B000882F90E067E070E041E050E00E94820DD7
:1029C0008981882329F480E060E40E94C21337C023
:1029D0008981813029F480E061E40E94C2132FC014
:1029E0008981823029F480E062E40E94C21327C00A
:1029F0008981833029F480E063E40E94C2131FC000
:102A00008981843029F480E064E40E94C21317C0F5
:102A10008981853029F480E065E40E94C2130FC0EB
:102A20008981863029F480E066E40E94C21307C0E1
:102A30008981873021F480E067E40E94C2130F90FF
:102A4000CF91DF910895DF93CF930F92CDB7DEB78B
:102A500089838981813031F481E066E041E00E9420
:102A6000181408C08981882329F481E066E040E0D9
:102A70000E9418140F90CF91DF910895DF93CF93A8
:102A800000D00F92CDB7DEB79B838A8381E0898324
:102A9000E4E2F0E080819181CC01A0E0B0E028E8A0
:102AA00033E140E050E0BC01CD010E94AA3DDC01D1
:102AB000CB01072E7AE0B695A795979587957A95DD
:102AC000D1F7702DEA81FB819183808389810F90FA
:102AD0000F900F90CF91DF910895DF93CF9300D0A7
:102AE000CDB7DEB79A83898389819A81009731F0C7
:102AF00089819A8190939101809390010F900F901A
:102B0000CF91DF9108951F920F920FB60F9211246B
:102B10002F933F934F935F936F937F938F939F93E5
:102B2000AF93BF93EF93FF93DF93CF93CDB7DEB710
:102B30008091900190919101009729F0E09190018E
:102B4000F09191010995CF91DF91FF91EF91BF91A4
:102B5000AF919F918F917F916F915F914F913F9135
:102B60002F910F900FBE0F901F901895DF93CF936A
:102B7000CDB7DEB783E062E040E00E94F30F83E070
:102B800066E041E00E94F30F8CE497E10E94550E4D
:102B9000CF91DF910895DF93CF93CDB7DEB76897DC
:102BA0000FB6F894DEBF0FBECDBF83E066E041E014
:102BB0000E94611180E090E0A0E2B1E48D8B9E8BD9
:102BC000AF8BB88F6D897E898F89988D2BEA3AEA11
:102BD0004AEA50E40E941F02DC01CB01898B9A8BE8
:102BE000AB8BBC8B69897A898B899C8920E030E02A
:102BF00040E85FE30E94250488231CF481E0888B71
:102C000091C069897A898B899C8920E030E04FE7FF
:102C100053E40E94C50318160CF07BC06D897E89B1
:102C20008F89988D20E030E04AE754E40E94190330
:102C3000DC01CB018C879D87AE87BF876C857D8546
:102C40008E859F8520E030E04AE755E40E941F0210
:102C5000DC01CB0188879987AA87BB87688579853E
:102C60008A859B8520E030E040E85FE30E942504F0
:102C700088232CF481E090E09F838E833FC0688599
:102C800079858A859B8520E03FEF4FE757E40E94D6
:102C9000C50318164CF56C857D858E859F8520E0D3
:102CA00030E040E251E40E941F02DC01CB01BC0194
:102CB000CD010E944900DC01CB019F838E830FC0B0
:102CC00080E991E09D838C838C819D810197F1F750
:102CD0009D838C838E819F8101979F838E838E81BC
:102CE0009F81009769F724C0688579858A859B85CF
:102CF0000E944900DC01CB019F838E838E819F81DE
:102D00009B838A838A819B810197F1F79B838A83C6
:102D10000FC069897A898B899C890E944900DC01EE
:102D2000CB01888B8889898389818A95F1F789838A
:102D300083E066E040E00E94611168960FB6F89467
:102D4000DEBF0FBECDBFCF91DF910895DF93CF934C
:102D5000CDB7DEB760970FB6F894DEBF0FBECDBF1C
:102D6000988B8F870E94CB1581E066E041E00E943E
:102D7000820D82E060E041E00E94820D82E061E02D
:102D800041E00E94820D80E090E0A8E4B2E48B87ED
:102D90009C87AD87BE876B857C858D859E8520E071
:102DA00030E04AE755E40E941F02DC01CB018F832B
:102DB0009887A987BA876F81788589859A8520E069
:102DC00030E040E85FE30E94250488232CF481E092
:102DD00090E09E838D833FC06F81788589859A8539
:102DE00020E03FEF4FE757E40E94C50318164CF56B
:102DF0006B857C858D859E8520E030E040E251E446
:102E00000E941F02DC01CB01BC01CD010E944900E0
:102E1000DC01CB019E838D830FC080E991E09C8310
:102E20008B838B819C810197F1F79C838B838D81B0
:102E30009E8101979E838D838D819E81009769F786
:102E400014C06F81788589859A850E944900DC01CC
:102E5000CB019E838D838D819E819A838983898115
:102E60009A810197F1F79A838983809192019091D9
:102E70009301A0919401B0919501EF85F889808329
:102E80009183A283B38360960FB6F894DEBF0FBE22
:102E9000CDBFCF91DF910895DF93CF93CDB7DEB74C
:102EA00080916D01833008F082C080916D01813086
:102EB00009F5E2E5F0E08081882F90E0909397019A
:102EC00080939601809182019091830190932806CE
:102ED0008093270681E066E041E00E94820D82E057
:102EE00060E040E00E94820D82E061E041E00E94EB
:102EF000820D58C080916D01823009F053C0E2E527
:102F0000F0E08081882F90E0909399018093980160
:102F100080918201909183019093260680932506EB
:102F20008091250690912606382F222780919801BE
:102F300090919901A901480F591F809127069091FE
:102F40002806382F22278091960190919701820FB1
:102F5000931F9A01281B390BC90190939B01809301
:102F60009A0180919A0190919B01CC01A0E0B0E080
:102F7000BC01CD010E94A904DC01CB01BC01CD0143
:102F800026E933E44BE85DE30E941F02DC01CB013C
:102F90008093920190939301A0939401B093950133
:102FA00010926D0180916D018F5F80936D01CF91C3
:102FB000DF910895DF93CF9300D00F92CDB7DEB7A6
:102FC0008A836B8381E089838A81843048F48B8192
:102FD000883030F48A816B8141E00E94F30F89834D
:102FE00089810F900F900F90CF91DF910895DF931B
:102FF000CF9300D000D0CDB7DEB78A836B834C83EC
:1030000081E089838A81843010F58B818830F8F4DF
:103010008C818330E0F48C81813039F48A816B813A
:1030200041E00E946111898312C08C81882339F4A8
:103030008A816B8140E00E946111898308C08C8184
:10304000823029F48A816B810E944A1389838981A5
:103050000F900F900F900F90CF91DF9108950F93E5
:103060001F93DF93CF93CDB7DEB7C654D0400FB6D2
:10307000F894DEBF0FBECDBF80E067E041E00E9464
:10308000F30F80E066E041E00E94F30F80E065E02E
:1030900041E00E94F30F80E064E041E00E94F30F02
:1030A00081E061E041E00E94F30F81E062E041E0F5
:1030B0000E94F30F81E063E041E00E94F30FFE0104
:1030C000ED5BFF4F80E090E0A0E0B0E4808391836F
:1030D000A283B3838E01015C1F4FFE01ED5BFF4FA6
:1030E000608171818281938120E030E04AE755E47C
:1030F0000E941F02DC01CB01F80180839183A2832F
:10310000B383FE01FF96608171818281938120E00B
:1031100030E040E85FE30E94250488232CF481E03E
:1031200090E09EAF8DAF46C0FE01FF966081718139
:103130008281938120E03FEF4FE757E40E94C5036F
:10314000181664F5FE01ED5BFF4F6081718182818D
:10315000938120E030E040E251E40E941F02DC0154
:10316000CB01BC01CD010E944900DC01CB019EAF27
:103170008DAF0FC080E991E09CAF8BAF8BAD9CAD64
:103180000197F1F79CAF8BAF8DAD9EAD01979EAFD0
:103190008DAF8DAD9EAD009769F716C0FE01FF960D
:1031A00060817181828193810E944900DC01CB01A1
:1031B0009EAF8DAF8DAD9EAD9AAF89AF89AD9AAD03
:1031C0000197F1F79AAF89AF82E00E94C71A80E0B9
:1031D00090E0A0E0B0E48DAB9EABAFABB8AF6DA913
:1031E0007EA98FA998AD20E030E04AE755E40E941F
:1031F0001F02DC01CB0189AB9AABABABBCAB69A9BD
:103200007AA98BA99CA920E030E040E85FE30E9406
:10321000250488232CF481E090E098AB8FA73FC071
:1032200069A97AA98BA99CA920E03FEF4FE757E451
:103230000E94C50318164CF56DA97EA98FA998ADFB
:1032400020E030E040E251E40E941F02DC01CB01AB
:10325000BC01CD010E944900DC01CB0198AB8FA7D6
:103260000FC080E991E09EA78DA78DA59EA501972F
:10327000F1F79EA78DA78FA598A9019798AB8FA767
:103280008FA598A9009769F714C069A97AA98BA995
:103290009CA90E944900DC01CB0198AB8FA78FA5A8
:1032A00098A99CA78BA78BA59CA50197F1F79CA734
:1032B0008BA788E20E94C71A80E090E0A0E0B0E40B
:1032C0008FA398A7A9A7BAA76FA178A589A59AA542
:1032D00020E030E04AE755E40E941F02DC01CB0108
:1032E0008BA39CA3ADA3BEA36BA17CA18DA19EA12A
:1032F00020E030E040E85FE30E94250488232CF4BE
:1033000081E090E09AA389A33FC06BA17CA18DA12D
:103310009EA120E03FEF4FE757E40E94C503181637
:103320004CF56FA178A589A59AA520E030E040E290
:1033300051E40E941F02DC01CB01BC01CD010E94BF
:103340004900DC01CB019AA389A30FC080E991E079
:1033500098A38F8F8F8D98A10197F1F798A38F8FE6
:1033600089A19AA101979AA389A389A19AA10097FB
:1033700069F714C06BA17CA18DA19EA10E94490098
:10338000DC01CB019AA389A389A19AA19E8F8D8F7D
:103390008D8D9E8D0197F1F79E8F8D8F8FE00E940E
:1033A000C71A80E090E0A0E0B0E4898F9A8FAB8FDD
:1033B000BC8F698D7A8D8B8D9C8D20E030E04AE743
:1033C00055E40E941F02DC01CB018D8B9E8BAF8BDD
:1033D000B88F6D897E898F89988D20E030E040E834
:1033E0005FE30E94250488232CF481E090E09C8B0D
:1033F0008B8B3FC06D897E898F89988D20E03FEF50
:103400004FE757E40E94C50318164CF5698D7A8D75
:103410008B8D9C8D20E030E040E251E40E941F0241
:10342000DC01CB01BC01CD010E944900DC01CB01D4
:103430009C8B8B8B0FC080E991E09A8B898B89895B
:103440009A890197F1F79A8B898B8B899C890197CF
:103450009C8B8B8B8B899C89009769F714C06D8935
:103460007E898F89988D0E944900DC01CB019C8B5D
:103470008B8B8B899C89988B8F878F8598890197F7
:10348000F1F7988B8F8781E00E94C71A80E090E067
:10349000A0E0B0E48B879C87AD87BE876B857C8579
:1034A0008D859E8520E030E04AE755E40E941F02AA
:1034B000DC01CB018F839887A987BA876F817885D4
:1034C00089859A8520E030E040E85FE30E9425048A
:1034D00088232CF481E090E09E838D833FC06F8130
:1034E000788589859A8520E03FEF4FE757E40E9471
:1034F000C50318164CF56B857C858D859E8520E06F
:1035000030E040E251E40E941F02DC01CB01BC012B
:10351000CD010E944900DC01CB019E838D830FC049
:1035200080E991E09C838B838B819C810197F1F7EB
:103530009C838B838D819E8101979E838D838D815A
:103540009E81009769F714C06F81788589859A8577
:103550000E944900DC01CB019E838D838D819E8179
:103560009A83898389819A810197F1F79A83898364
:1035700086E00E94C71ACA5BDF4F0FB6F894DEBF21
:103580000FBECDBFCF91DF911F910F910895DF93B3
:10359000CF93CDB7DEB76D970FB6F894DEBF0FBEF1
:1035A000CDBF8D8F81E061E040E00E94611181E03C
:1035B00062E040E00E94611180E06D8D0E94DE10AB
:1035C00081E063E041E00E94611180E090E0A0E0D2
:1035D000B0E4898F9A8FAB8FBC8F698D7A8D8B8D7C
:1035E0009C8D20E030E04AE755E40E941F02DC0198
:1035F000CB018D8B9E8BAF8BB88F6D897E898F8928
:10360000988D20E030E040E85FE30E9425048823A5
:103610002CF481E090E09C8B8B8B3FC06D897E8980
:103620008F89988D20E03FEF4FE757E40E94C50354
:1036300018164CF5698D7A8D8B8D9C8D20E030E0CD
:1036400040E251E40E941F02DC01CB01BC01CD012C
:103650000E944900DC01CB019C8B8B8B0FC080E961
:1036600091E09A8B898B89899A890197F1F79A8BD6
:10367000898B8B899C8901979C8B8B8B8B899C89EF
:10368000009769F714C06D897E898F89988D0E9493
:103690004900DC01CB019C8B8B8B8B899C89988B9F
:1036A0008F878F8598890197F1F7988B8F8781E0B5
:1036B00063E040E00E9461118D8D982F9295907F7C
:1036C00080E0692F0E94DE1081E063E041E00E940B
:1036D000611180E090E0A0E0B0E48B879C87AD872B
:1036E000BE876B857C858D859E8520E030E04AE72E
:1036F00055E40E941F02DC01CB018F839887A987C4
:10370000BA876F81788589859A8520E030E040E826
:103710005FE30E94250488232CF481E090E09E83DF
:103720008D833FC06F81788589859A8520E03FEF42
:103730004FE757E40E94C50318164CF56B857C854E
:103740008D859E8520E030E040E251E40E941F021A
:10375000DC01CB01BC01CD010E944900DC01CB01A1
:103760009E838D830FC080E991E09C838B838B8146
:103770009C810197F1F79C838B838D819E810197BA
:103780009E838D838D819E81009769F714C06F8120
:10379000788589859A850E944900DC01CB019E834A
:1037A0008D838D819E819A83898389819A810197F6
:1037B000F1F79A83898381E063E040E00E94611120
:1037C0006D960FB6F894DEBF0FBECDBFCF91DF91DF
:1037D0000895DF93CF93CDB7DEB76D970FB6F8940A
:1037E000DEBF0FBECDBF8D8F81E061E041E00E9462
:1037F000611181E062E040E00E94611180E06D8D26
:103800000E94DE1081E063E041E00E94611180E0EF
:1038100090E0A0E0B0E4898F9A8FAB8FBC8F698D68
:103820007A8D8B8D9C8D20E030E04AE755E40E9434
:103830001F02DC01CB018D8B9E8BAF8BB88F6D8906
:103840007E898F89988D20E030E040E85FE30E9418
:10385000250488232CF481E090E09C8B8B8B3FC067
:103860006D897E898F89988D20E03FEF4FE757E47F
:103870000E94C50318164CF5698D7A8D8B8D9C8D31
:1038800020E030E040E251E40E941F02DC01CB0165
:10389000BC01CD010E944900DC01CB019C8B8B8BCC
:1038A0000FC080E991E09A8B898B89899A89019769
:1038B000F1F79A8B898B8B899C8901979C8B8B8BD9
:1038C0008B899C89009769F714C06D897E898F89DF
:1038D000988D0E944900DC01CB019C8B8B8B8B89DE
:1038E0009C89988B8F878F8598890197F1F7988BA2
:1038F0008F8781E063E040E00E9461118D8D982FF9
:103900009295907F80E0692F0E94DE1081E063E055
:1039100041E00E94611180E090E0A0E0B0E48B877C
:103920009C87AD87BE876B857C858D859E8520E0D5
:1039300030E04AE755E40E941F02DC01CB018F838F
:103940009887A987BA876F81788589859A8520E0CD
:1039500030E040E85FE30E94250488232CF481E0F6
:1039600090E09E838D833FC06F81788589859A859D
:1039700020E03FEF4FE757E40E94C50318164CF5CF
:103980006B857C858D859E8520E030E040E251E4AA
:103990000E941F02DC01CB01BC01CD010E94490045
:1039A000DC01CB019E838D830FC080E991E09C8375
:1039B0008B838B819C810197F1F79C838B838D8115
:1039C0009E8101979E838D838D819E81009769F7EB
:1039D00014C06F81788589859A850E944900DC0131
:1039E000CB019E838D838D819E819A83898389817A
:1039F0009A810197F1F79A83898381E063E040E03F
:103A00000E9461116D960FB6F894DEBF0FBECDBF58
:103A1000CF91DF910895DF93CF9300D000D000D0F5
:103A2000CDB7DEB79E838D8319821A821B821C82DA
:103A300015C029813A818D819E81FC01E20FF31F1F
:103A400080810E94E91B89819A81AB81BC810196AA
:103A5000A11DB11D89839A83AB83BC8329813A81DF
:103A60008D819E81FC01E20FF31F8081882309F77D
:103A700026960FB6F894DEBF0FBECDBFCF91DF9173
:103A80000895DF93CF93CDB7DEB72C970FB6F89498
:103A9000DEBF0FBECDBF9C878B878B859C859E012B
:103AA0002F5F3F4FB9014AE050E00E94093ECE012E
:103AB00001960E940B1D2C960FB6F894DEBF0FBE28
:103AC000CDBFCF91DF910895DF93CF93CDB7DEB710
:103AD000C254D0400FB6F894DEBF0FBECDBFFE017A
:103AE000EF5BFF4F8083FE01EE5BFF4F6083FE01C3
:103AF000EF5BFF4F8081813009F0A0C0FE01FD9691
:103B0000108211821282138284C080E090E0A0E0D3
:103B1000B0E48DAB9EABAFABB8AF6DA97EA98FA95A
:103B200098AD20E030E04AE755E40E941F02DC0136
:103B3000CB0189AB9AABABABBCAB69A97AA98BA91A
:103B40009CA920E030E040E85FE30E942504882340
:103B50002CF481E090E098AB8FA73FC069A97AA9C7
:103B60008BA99CA920E03FEF4FE757E40E94C503D3
:103B700018164CF56DA97EA98FA998AD20E030E00C
:103B800040E251E40E941F02DC01CB01BC01CD01E7
:103B90000E944900DC01CB0198AB8FA70FC080E9E0
:103BA00091E09EA78DA78DA59EA50197F1F79EA7F1
:103BB0008DA78FA598A9019798AB8FA78FA598A9D6
:103BC000009769F714C069A97AA98BA99CA90E94DA
:103BD0004900DC01CB0198AB8FA78FA598A99CA7C2
:103BE0008BA78BA59CA50197F1F79CA78BA78CE1D0
:103BF0000E94C71AFE01FD9680819181A281B38146
:103C00000196A11DB11DFE01FD9680839183A283C3
:103C1000B383FE01EE5BFF4F8081282F30E040E050
:103C200050E0FE01FD9680819181A281B3818217CF
:103C30009307A407B50708F468CF98C1FE01EF5BAE
:103C4000FF4F8081882309F098C019AE1AAE1BAED1
:103C50001CAE80C080E090E0A0E0B0E48FA398A705
:103C6000A9A7BAA76FA178A589A59AA520E030E0F9
:103C70004AE755E40E941F02DC01CB018BA39CA301
:103C8000ADA3BEA36BA17CA18DA19EA120E030E0DD
:103C900040E85FE30E94250488232CF481E090E053
:103CA0009AA389A33FC06BA17CA18DA19EA120E016
:103CB0003FEF4FE757E40E94C50318164CF56FA17C
:103CC00078A589A59AA520E030E040E251E40E9461
:103CD0001F02DC01CB01BC01CD010E944900DC01C7
:103CE000CB019AA389A30FC080E991E098A38F8F9D
:103CF0008F8D98A10197F1F798A38F8F89A19AA131
:103D000001979AA389A389A19AA1009769F714C082
:103D10006BA17CA18DA19EA10E944900DC01CB0179
:103D20009AA389A389A19AA19E8F8D8F8D8D9E8D37
:103D30000197F1F79E8F8D8F88E10E94C71A89AD98
:103D40009AADABADBCAD0196A11DB11D89AF9AAFC7
:103D5000ABAFBCAFFE01EE5BFF4F8081282F30E0A0
:103D600040E050E089AD9AADABADBCAD8217930792
:103D7000A407B50708F46ECFF9C0FE01EF5BFF4F53
:103D80008081823009F076C080E090E0A0E0B0E46D
:103D9000898F9A8FAB8FBC8F698D7A8D8B8D9C8D1F
:103DA00020E030E04AE755E40E941F02DC01CB012D
:103DB0008D8B9E8BAF8BB88F6D897E898F89988D07
:103DC00020E030E040E85FE30E94250488232CF4E3
:103DD00081E090E09C8B8B8B3FC06D897E898F89C1
:103DE000988D20E03FEF4FE757E40E94C503181677
:103DF0004CF5698D7A8D8B8D9C8D20E030E040E212
:103E000051E40E941F02DC01CB01BC01CD010E94E4
:103E10004900DC01CB019C8B8B8B0FC080E991E0CA
:103E20009A8B898B89899A890197F1F79A8B898B6B
:103E30008B899C8901979C8B8B8B8B899C890097A4
:103E400069F714C06D897E898F89988D0E94490019
:103E5000DC01CB019C8B8B8B8B899C89988B8F870A
:103E60008F8598890197F1F7988B8F8780E80E945A
:103E7000C71A7CC0FE01EF5BFF4F8081833009F0E1
:103E800075C080E090E0A0E0B0E48B879C87AD87B0
:103E9000BE876B857C858D859E8520E030E04AE776
:103EA00055E40E941F02DC01CB018F839887A9870C
:103EB000BA876F81788589859A8520E030E040E86F
:103EC0005FE30E94250488232CF481E090E09E8328
:103ED0008D833FC06F81788589859A8520E03FEF8B
:103EE0004FE757E40E94C50318164CF56B857C8597
:103EF0008D859E8520E030E040E251E40E941F0263
:103F0000DC01CB01BC01CD010E944900DC01CB01E9
:103F10009E838D830FC080E991E09C838B838B818E
:103F20009C810197F1F79C838B838D819E81019702
:103F30009E838D838D819E81009769F714C06F8168
:103F4000788589859A850E944900DC01CB019E8392
:103F50008D838D819E819A83898389819A8101973E
:103F6000F1F79A83898380EC0E94C71ACE5BDF4FFA
:103F70000FB6F894DEBF0FBECDBFCF91DF9108958D
:103F8000DF93CF93CDB7DEB72E970FB6F894DEBF91
:103F90000FBECDBF80E090E0A0E0B0E48B879C87AF
:103FA000AD87BE876B857C858D859E8520E030E062
:103FB0004AE755E40E941F02DC01CB018F839887FA
:103FC000A987BA876F81788589859A8520E030E056
:103FD00040E85FE30E94250488232CF481E090E010
:103FE0009E838D833FC06F81788589859A8520E087
:103FF0003FEF4FE757E40E94C50318164CF56B8559
:104000007C858D859E8520E030E040E251E40E9471
:104010001F02DC01CB01BC01CD010E944900DC0183
:10402000CB019E838D830FC080E991E09C838B83BD
:104030008B819C810197F1F79C838B838D819E817D
:1040400001979E838D838D819E81009769F714C0AF
:104050006F81788589859A850E944900DC01CB01B2
:104060009E838D838D819E819A83898389819A81A4
:104070000197F1F79A83898381E00E94C71A2E96EF
:104080000FB6F894DEBF0FBECDBFCF91DF9108957C
:10409000DF93CF9300D000D0CDB7DEB78A837C8387
:1040A0006B838A818830F8F48A81882F90E00896A3
:1040B000880F991F880F991F880F991F0E94C71A90
:1040C00019820EC08981282F30E08B819C81FC01F0
:1040D000E20FF31F80810E94E91B89818F5F898332
:1040E0008981883078F382E00E94C71A0F900F9080
:1040F0000F900F90CF91DF910895DF93CF93CDB7BD
:10410000DEB782E06FE00E94700F82E06FEF0E94E6
:10411000DE10CF91DF910895DF93CF93CDB7DEB757
:10412000A2970FB6F894DEBF0FBECDBF9AA389A3A6
:1041300087E08D8FE9A1FAA110821E8E2FC182E047
:104140006E8D40E00E9461111F8E1CC18F8D982FD3
:104150009C5F9E01205E3F4F82E0692FA9010E9473
:104160008D1288A18D8F88A1882309F008C180E075
:1041700090E0A0EAB0E4898F9A8FAB8FBC8F698DF5
:104180007A8D8B8D9C8D20E030E04AE755E40E94CB
:104190001F02DC01CB018D8B9E8BAF8BB88F6D899D
:1041A0007E898F89988D20E030E040E85FE30E94AF
:1041B000250488232CF481E090E09C8B8B8B3FC0FE
:1041C0006D897E898F89988D20E03FEF4FE757E416
:1041D0000E94C50318164CF5698D7A8D8B8D9C8DC8
:1041E00020E030E040E251E40E941F02DC01CB01FC
:1041F000BC01CD010E944900DC01CB019C8B8B8B63
:104200000FC080E991E09A8B898B89899A890197FF
:10421000F1F79A8B898B8B899C8901979C8B8B8B6F
:104220008B899C89009769F714C06D897E898F8975
:10423000988D0E944900DC01CB019C8B8B8B8B8974
:104240009C89988B8F878F8598890197F1F7988B38
:104250008F878F8D982F9C5F9E01205E3F4F82E05D
:10426000692FA9010E948D1288A1813009F08EC0AA
:1042700080E090E0A0EAB0E48B879C87AD87BE87A2
:104280006B857C858D859E8520E030E04AE755E48E
:104290000E941F02DC01CB018F839887A987BA8710
:1042A0006F81788589859A8520E030E040E85FE37A
:1042B0000E94250488232CF481E090E09E838D8366
:1042C0003FC06F81788589859A8520E03FEF4FE771
:1042D00057E40E94C50318164CF56B857C858D85C7
:1042E0009E8520E030E040E251E40E941F02DC01A4
:1042F000CB01BC01CD010E944900DC01CB019E83B2
:104300008D830FC080E991E09C838B838B819C819E
:104310000197F1F79C838B838D819E8101979E830A
:104320008D838D819E81009769F714C06F81788598
:1043300089859A850E944900DC01CB019E838D838B
:104340008D819E819A83898389819A810197F1F772
:104350009A8389838E8D482F50E08F8D282F30E0EF
:10436000CA01880F991F880F991F820F931FFC01A4
:10437000E259FE4F8081E9A1FAA1808307C08F8DA9
:104380008F5F8F8F8F8D843008F4E0CE82E06E8D4A
:1043900041E00E9461118E8D8F5F8E8F8E8D8430F3
:1043A00008F4CDCEA2960FB6F894DEBF0FBECDBFF7
:1043B000CF91DF910895DF93CF9300D00F92CDB7C7
:1043C000DEB78A836B8381E089838A81843048F4F5
:1043D0008B81883030F48A816B8141E00E94F30F39
:1043E000898389810F900F900F90CF91DF9108956D
:1043F000DF93CF9300D000D0CDB7DEB78A836B8335
:104400004C8381E089838A81843010F58B818830E8
:10441000F8F48C818330E0F48C81813039F48A8126
:104420006B8141E00E946111898312C08C818823D5
:1044300039F48A816B8140E00E946111898308C050
:104440008C81823029F48A816B810E944A1389838E
:1044500089810F900F900F900F90CF91DF91089569
:10446000DF93CF93CDB7DEB72E970FB6F894DEBFAC
:104470000FBECDBF9E878D871E821D820E943C335A
:1044800080919D01882329F40E94972381E08093E5
:104490009D018D859E85009751F0809180019091BE
:1044A00081012D853E85820F931F9E878D878D8587
:1044B0009E85009709F4AFC08D859E8523E0873ED9
:1044C000920708F0A8C086E895E09A8789878091CE
:1044D0008605909187059C878B870AC08B859C8574
:1044E0009A878987EB85FC85808191819C878B8762
:1044F000EB85FC85228133818D859E8528173907C0
:1045000030F4EB85FC8580819181009739F78B85AC
:104510009C8545E08A38940709F47DC0E985FA85D1
:10452000208131818091800190918101820F931FC0
:104530009E838D83EB85FC8580819181E985FA8559
:1045400091838083EB85FC85228133818D859E85D7
:10455000281B390B8091800190918101880F991F50
:104560008217930708F047C02B853C858D859E8573
:10457000820F931F98878F83EB85FC85228133817F
:104580008D859E85A901481B590BCA01EF81F885CD
:1045900093838283EB85FC858D859E8593838283BF
:1045A000EF81F885828193819A83898386E895E0FB
:1045B0009C838B8306C0EB81FC81808191819C83ED
:1045C0008B83EB81FC810190F081E02D228133818E
:1045D00089819A812817390770F3EB81FC818081EA
:1045E0009181EF81F88591838083EB81FC818F81BC
:1045F00098859183808320917E0130917F01EB85A6
:10460000FC8582819381A901481B590BCA019093B3
:104610007F0180937E010E9448338D819E812E967A
:104620000FB6F894DEBF0FBECDBFCF91DF910895D6
:10463000DF93CF93CDB7DEB72A970FB6F894DEBFDE
:104640000FBECDBF9A87898789859A8598878F8382
:1046500089859A85009709F44FC0809180019091D7
:10466000810122273327281B390B8F819885820FE0
:10467000931F98878F838F8198859E838D830E9457
:104680003C33ED81FE81828193819A83898386E820
:1046900095E09C838B8306C0EB81FC8180819181B6
:1046A0009C838B83EB81FC810190F081E02D228142
:1046B000338189819A812817390770F3EB81FC8156
:1046C00080819181ED81FE8191838083EB81FC81EA
:1046D0008D819E8191838083ED81FE812281338152
:1046E00080917E0190917F01820F931F90937F01B3
:1046F00080937E010E9448332A960FB6F894DEBF5D
:104700000FBECDBFCF91DF910895DF93CF93CDB78B
:10471000DEB780917E0190917F01CF91DF91089566
:10472000DF93CF93CDB7DEB7CF91DF910895DF93BD
:10473000CF9300D000D0CDB7DEB78FE991E09A8358
:10474000898389819A819093870580938605109249
:1047500089051092880587EE93E090938D058093EC
:104760008C0510928B0510928A0589819A819C8311
:104770008B83EB81FC8187EE93E093838283EB81D3
:10478000FC818AE895E0918380830F900F900F90D1
:104790000F90CF91DF910895DF93CF9300D0CDB7E5
:1047A000DEB79A83898389819A810396E981FA81A8
:1047B00092838183E981FA818FEF9FEF94838383D2
:1047C00089819A810396E981FA819683858389811B
:1047D0009A810396E981FA8190878783E981FA813A
:1047E00010820F900F90CF91DF910895DF93CF93B8
:1047F00000D0CDB7DEB79A838983E981FA8111862B
:1048000010860F900F90CF91DF910895DF93CF9393
:1048100000D000D000D0CDB7DEB79C838B837E83E1
:104820006D83EB81FC81818192819A838983ED8103
:10483000FE8189819A8193838283E981FA818481CF
:104840009581ED81FE8195838483E981FA810480DD
:10485000F581E02D8D819E8193838283E981FA81A8
:104860008D819E8195838483ED81FE818B819C81E6
:1048700091878087EB81FC8180818F5FEB81FC8158
:10488000808326960FB6F894DEBF0FBECDBFCF91C2
:10489000DF910895DF93CF93CDB7DEB728970FB69A
:1048A000F894DEBF0FBECDBF9E838D8378876F8364
:1048B000EF81F885808191819A83898389819A81AA
:1048C0002FEF8F3F920739F4ED81FE81878190852C
:1048D0009C838B8318C08D819E8103969C838B83E0
:1048E00006C0EB81FC81828193819C838B83EB8169
:1048F000FC810280F381E02D2081318189819A81C0
:104900008217930770F7EB81FC8182819381EF819D
:10491000F88593838283EF81F8850280F381E02D0F
:104920008F81988595838483EF81F8858B819C8125
:1049300095838483EB81FC818F8198859383828327
:10494000EF81F8858D819E8191878087ED81FE8141
:1049500080818F5FED81FE81808328960FB6F89469
:10496000DEBF0FBECDBFCF91DF910895DF93CF9310
:1049700000D000D0CDB7DEB79C838B83EB81FC8168
:10498000808591859A838983EB81FC81A281B381A3
:10499000EB81FC818481958115969C938E9314976D
:1049A000EB81FC81A481B581EB81FC8182819381C3
:1049B00013969C938E931297E981FA81218132811B
:1049C0008B819C812817390741F4EB81FC8184811C
:1049D0009581E981FA8192838183EB81FC81118643
:1049E0001086E981FA8180818150E981FA81808392
:1049F000E981FA8180810F900F900F900F90CF91F5
:104A0000DF910895DF93CF93CDB7DEB728970FB628
:104A1000F894DEBF0FBECDBF9C838B837E836D83F6
:104A200058874F83EB81FC8181E180838B819C815E
:104A300001979C838B83EB81FC8182E280838B8155
:104A40009C8101979C838B83EB81FC8183E3808332
:104A50008B819C8101979C838B838D819E819A831E
:104A600089838981EB81FC8180838B819C81019783
:104A70009C838B8389819A81892F99279A83898343
:104A80008981EB81FC8180838B819C8101979C8350
:104A90008B83EB81FC8110828B819C8101979C83AD
:104AA0008B83EB81FC8180E880838B819C810197E3
:104AB0009C838B83EB81FC8110828B819C8101978D
:104AC0009C838B83EB81FC8182E080838B819C8142
:104AD00001979C838B83EB81FC8183E080838B81B6
:104AE0009C8101979C838B83EB81FC8184E0808394
:104AF0008B819C8101979C838B83EB81FC8185E07A
:104B000080838B819C8101979C838B83EB81FC81CB
:104B100086E080838B819C8101979C838B83EB81D2
:104B2000FC8187E080838B819C8101979C838B83B0
:104B3000EB81FC8188E080838B819C8101979C8341
:104B40008B83EB81FC8189E080838B819C81019741
:104B50009C838B83EB81FC8180E180838B819C81B2
:104B600001979C838B83EB81FC8181E180838B8126
:104B70009C8101979C838B83EB81FC8182E1808304
:104B80008B819C8101979C838B83EB81FC8183E1EA
:104B900080838B819C8101979C838B83EB81FC813B
:104BA00084E180838B819C8101979C838B83EB8143
:104BB000FC8185E180838B819C8101979C838B8321
:104BC000EB81FC8186E180838B819C8101979C83B2
:104BD0008B83EB81FC8187E180838B819C810197B2
:104BE0009C838B83EB81FC8188E180838B819C811A
:104BF00001979C838B83EB81FC8189E180838B818E
:104C00009C8101979C838B83EB81FC8180E2808374
:104C10008B819C8101979C838B83EB81FC8181E25A
:104C200080838B819C8101979C838B83EB81FC81AA
:104C300082E280838B819C8101979C838B83EB81B3
:104C4000FC8183E280838B819C8101979C838B8391
:104C50008F8198859A8389838981EB81FC81808308
:104C60008B819C8101979C838B8389819A81892F79
:104C700099279A8389838981EB81FC8180838B8149
:104C80009C8101979C838B83EB81FC8186E28083EE
:104C90008B819C8101979C838B83EB81FC8187E2D4
:104CA00080838B819C8101979C838B83EB81FC812A
:104CB00088E280838B819C8101979C838B83EB812D
:104CC000FC8189E280838B819C8101979C838B830B
:104CD000EB81FC8180E380838B819C8101979C83A5
:104CE0008B83EB81FC8181E380838B819C810197A5
:104CF0009C838B838B819C8128960FB6F894DEBFB2
:104D00000FBECDBFCF91DF910895DF93CF93CDB785
:104D1000DEB70E947727A0918E05B0918F05CD91C7
:104D2000CDBFDD91DEBFFF91EF91DF91CF91BF91BC
:104D3000AF919F918F917F916F915F914F913F9133
:104D40002F911F910F91FF90EF90DF90CF90BF9028
:104D5000AF909F908F907F906F905F904F903F901B
:104D60002F901F900F900FBE0F90089581E0CF916C
:104D7000DF910895DF93CF93CDB7DEB7CF91DF9169
:104D800008950F920FB6F8940F921F9211242F924C
:104D90003F924F925F926F927F928F929F92AF92CB
:104DA000BF92CF92DF92EF92FF920F931F932F93B8
:104DB0003F934F935F936F937F938F939F93AF93A3
:104DC000BF93CF93DF93EF93FF93A0918E05B091A4
:104DD0008F050DB60D920EB60D920E940435A0916E
:104DE0008E05B0918F05CD91CDBFDD91DEBFFF91D6
:104DF000EF91DF91CF91BF91AF919F918F917F9173
:104E00006F915F914F913F912F911F910F91FF9063
:104E1000EF90DF90CF90BF90AF909F908F907F905A
:104E20006F905F904F903F902F901F900F900FBE0C
:104E30000F9008950F920FB6F8940F921F921124BD
:104E40002F923F924F925F926F927F928F929F929A
:104E5000AF92BF92CF92DF92EF92FF920F931F9388
:104E60002F933F934F935F936F937F938F939F9372
:104E7000AF93BF93CF93DF93EF93FF93A0918E05F2
:104E8000B0918F050DB60D920EB60D920E9438347A
:104E9000882311F00E940435A0918E05B0918F05F2
:104EA000CD91CDBFDD91DEBFFF91EF91DF91CF912D
:104EB000BF91AF919F918F917F916F915F914F9132
:104EC0003F912F911F910F91FF90EF90DF90CF9026
:104ED000BF90AF909F908F907F906F905F904F901A
:104EE0003F902F901F900F900FBE0F900895DF936B
:104EF000CF9300D000D000D0CDB7DEB780E89EE3DE
:104F0000A0E0B0E08B839C83AD83BE838B819C81CA
:104F1000AD81BE81689415F8B695A795979587954C
:104F20001694D1F78B839C83AD83BE838B819C8148
:104F3000AD81BE810197A109B1098B839C83AD83AB
:104F4000BE838B8189838B819C81AD81BE81892FBA
:104F50009A2FAB2FBB278B839C83AD83BE838B8122
:104F60008A83EBE4F0E08A818083EAE4F0E08981DF
:104F700080838BE08983EEE4F0E089818083E9E53A
:104F8000F0E080818983898180618983E9E5F0E0AF
:104F90008981808326960FB6F894DEBF0FBECDBF01
:104FA000CF91DF9108950E941A271895DF93CF9330
:104FB00000D000D00F92CDB7DEB79C838B836D837A
:104FC0008B819C819A8389830FB6F8940F92E98133
:104FD000FA8140815181E981FA81838D282F30E067
:104FE000E981FA81848D882F90E0BC01269FC00161
:104FF000279F900D369F900D1124840F951FE981F6
:10500000FA8193838283E981FA81128EE981FA81A0
:1050100080819181E981FA8195838483E981FA8194
:1050200040815181E981FA81838D882F90E09C0134
:1050300021503040E981FA81848D882F90E0BC01B5
:10504000269FC001279F900D369F900D1124840F3D
:10505000951FE981FA8197838683E981FA818FEF31
:10506000858FE981FA818FEF868F8D81882379F48E
:10507000E981FA8180858823A1F089819A81089647
:105080000E94C335882369F00E94C1260AC0898125
:105090009A8108960E94CC2389819A8141960E9428
:1050A000CC230F900FBE81E00F900F900F900F90C8
:1050B0000F90CF91DF9108950F931F93DF93CF93BC
:1050C000CDB7DEB729970FB6F894DEBF0FBECDBFC0
:1050D0008F83688749878885882319F41C821B82FF
:1050E00010C08F81282F30E08885882F90E0AC0198
:1050F000249FC001259F900D349F900D11249C8307
:105100008B838B819C814F960E9430229E838D835E
:105110008D819E81009781F08D819E814F969A832B
:10512000898329813A81ED81FE818F816885A9017A
:1051300029858F010E94A9288D819E8129960FB60D
:10514000F894DEBF0FBECDBFCF91DF911F910F91BD
:1051500008950F931F93DF93CF93CDB7DEB72797B3
:105160000FB6F894DEBF0FBECDBF89836A835C8320
:105170004B832D831F830E838A81882339F48E818C
:105180009F81EE81FF819183808306C08B819C810A
:10519000EE81FF8191838083EE81FF818981838FFE
:1051A000EE81FF818A81848F8E819F8161E00E94E0
:1051B000D62727960FB6F894DEBF0FBECDBFCF918E
:1051C000DF911F910F910895DF93CF9300D0CDB75A
:1051D000DEB79A83898389819A810097A1F0E9815A
:1051E000FA8113821282E981FA8111821082E981A7
:1051F000FA81168289819A8160E070E040E050E097
:1052000020E00E9428290F900F90CF91DF91089500
:10521000DF93CF9300D000D00F92CDB7DEB78D8350
:1052200081E08A8319828A8169814D810E945C288C
:105230009C838B838B819C810E94E4288B819C8141
:105240000F900F900F900F900F90CF91DF910895D6
:10525000DF93CF93CDB7DEB72F970FB6F894DEBFAD
:105260000FBECDBF998788877B876A875D874C870C
:105270002E871C82888599859A8389830FB6F89436
:105280000F92E981FA81928DE981FA81838D9817D5
:1052900018F08E85823011F589819A812A853B85A7
:1052A000B9014E850E945C2C8B83E981FA8181894A
:1052B000882351F089819A8141960E94C3358823C1
:1052C00041F00E94C12605C08B81882311F00E9405
:1052D000C1260F900FBE81E08F875CC08C859D85B5
:1052E000009721F40F900FBE1F8654C08C81882335
:1052F00031F4CE0105960E94933681E08C830F90A5
:105300000FBE0E943C330FB6F8940F92E981FA81E8
:10531000858D8F3F19F4E981FA81158EE981FA8133
:10532000868D8F3F19F4E981FA81168E0F900FBE9A
:10533000CE0105969E01245F3F4FB9010E94AC3615
:10534000882309F589819A810E94E32D8823A1F0A1
:1053500089819A8108962C853D85B9010E94713515
:1053600089819A810E945B2D0E944833882309F02D
:1053700085CF0E94C12682CF89819A810E945B2DB0
:105380000E9448337BCF89819A810E945B2D0E94C5
:1053900048331F868F852F960FB6F894DEBF0FBE59
:1053A000CDBFCF91DF910895DF93CF93CDB7DEB717
:1053B0002C970FB6F894DEBF0FBECDBF9F838E83B0
:1053C000798768875B874A872C878E819F819B833B
:1053D0008A831C82EA81FB81928DEA81FB81838D25
:1053E000981718F08C85823061F5EA81FB81868DF3
:1053F00089838A819B8128853985B9014C850E94E2
:105400005C2C89818F3FA9F4EA81FB818189882303
:10541000A9F08A819B8141960E94C335882371F04F
:105420008A859B85009751F0EA85FB8581E0808322
:1054300005C089818F5FEA81FB81868F81E08D8342
:1054400001C01D828D812C960FB6F894DEBF0FBE71
:10545000CDBFCF91DF910895DF93CF93CDB7DEB766
:105460002A970FB6F894DEBF0FBECDBF98878F8303
:105470007A8769878F8198859C838B831D82EB81D6
:10548000FC81828D8A83EB81FC81938D8A818917CF
:1054900048F5EB81FC81868D89838A818F5FEB8162
:1054A000FC81828F89818F3FA9F4EB81FC81818906
:1054B0008823A9F08B819C8141960E94C335882363
:1054C00071F089859A85009751F0E985FA8581E028
:1054D000808305C089818F5FEB81FC81868F81E0AD
:1054E0008E8301C01E828E812A960FB6F894DEBF8D
:1054F0000FBECDBFCF91DF910895DF93CF93CDB78E
:10550000DEB761970FB6F894DEBF0FBECDBF9B87A5
:105510008A877D876C875F874E87288B1E828A8566
:105520009B859B838A830FB6F8940F92EA81FB8157
:10553000828D89838981882309F449C0EA81FB81AE
:10554000868197819D838C838A819B812C853D8573
:10555000B9010E94142D8889882301F58981815021
:10556000EA81FB81828FEA81FB81808191810097B2
:1055700031F40E942439EA81FB8193838283EA819A
:10558000FB8180858823F1F08A819B8108960E94A7
:10559000C3358823B9F00E94C12614C0EA81FB817B
:1055A0008C819D8197838683EA81FB818189882311
:1055B00049F08A819B8141960E94C335882311F06E
:1055C0000E94C1260F900FBE81E0898B74C08E852A
:1055D0009F85009721F40F900FBE198A6CC08E81B1
:1055E000882331F4CE0107960E94933681E08E83A2
:1055F0000F900FBE0E943C330FB6F8940F92EA81D1
:10560000FB81858D8F3F19F4EA81FB81158EEA813C
:10561000FB81868D8F3F19F4EA81FB81168E0F90F6
:105620000FBECE0107969E01225F3F4FB9010E9437
:10563000AC36882391F58A819B810E94AE2D882308
:1056400029F1EA81FB8180819181009759F40FB69D
:10565000F8940F92EA81FB81828193810E94003845
:105660000F900FBE8A819B8141962E853F85B9019F
:105670000E9471358A819B810E945B2D0E94483374
:10568000882309F050CF0E94C1264DCF8A819B818B
:105690000E945B2D0E94483346CF8A819B810E94E5
:1056A0005B2D0E9448338A819B810E94AE2D882306
:1056B00009F439CF198A898961960FB6F894DEBF4B
:1056C0000FBECDBFCF91DF910895DF93CF93CDB7BC
:1056D000DEB72C970FB6F894DEBF0FBECDBF98870C
:1056E0008F837A8769875C874B878F8198859C83B6
:1056F0008B831D82EB81FC81828D8A838A81882342
:1057000081F1EB81FC81858D89838B819C81298549
:105710003A85B9010E94142D8A818150EB81FC8168
:10572000828F89818F3FA9F4EB81FC81808588235A
:10573000A9F08B819C8108960E94C335882371F063
:105740008B859C85009751F0EB85FC8581E08083FB
:1057500005C089818F5FEB81FC81858F81E08E831D
:1057600001C01E828E812C960FB6F894DEBF0FBE4C
:10577000CDBFCF91DF910895DF93CF93CDB7DEB743
:105780002A970FB6F894DEBF0FBECDBF98878F83E0
:105790007A8769878F8198859A8389831D82E981B9
:1057A000FA81828D8823B1F0E981FA81868197811F
:1057B0009C838B8389819A8129853A85B9010E94CE
:1057C000142DE981FA818B819C819783868381E006
:1057D0008E8301C01E828E812A960FB6F894DEBF9A
:1057E0000FBECDBFCF91DF910895DF93CF9300D04F
:1057F0000F92CDB7DEB79B838A830FB6F8940F92D2
:10580000EA81FB81828D89830F900FBE89810F9081
:105810000F900F90CF91DF910895DF93CF9300D039
:1058200000D00F92CDB7DEB79D838C838C819D8194
:105830009A8389830FB6F8940F92E981FA81938D48
:10584000E981FA81828D292F281B822F8B830F906B
:105850000FBE8B810F900F900F900F900F90CF91F4
:10586000DF910895DF93CF9300D00F92CDB7DEB7CD
:105870009B838A83EA81FB81828D898389810F9052
:105880000F900F90CF91DF910895DF93CF9300D0C9
:1058900000D0CDB7DEB79C838B838B819C819A83AC
:1058A000898389819A810E9418230F900F900F900D
:1058B0000F90CF91DF910895DF93CF93CDB7DEB7EF
:1058C00027970FB6F894DEBF0FBECDBF9C838B83A6
:1058D0007E836D834F831A82EB81FC81828D898365
:1058E000EB81FC81848D882399F4EB81FC8180819C
:1058F0009181009709F089C0EB81FC8182819381BD
:105900000E948B388A83EB81FC81138212827DC0D6
:105910008F81882399F5EB81FC8164817581EB810E
:10592000FC81848D482F50E02D813E81CB01B9014F
:105930000E94003EEB81FC8124813581EB81FC815A
:10594000848D882F90E0820F931FEB81FC819583DB
:105950008483EB81FC8124813581EB81FC81828110
:1059600093812817390708F450C0EB81FC818081AE
:105970009181EB81FC819583848347C0EB81FC811D
:1059800066817781EB81FC81848D482F50E02D81E9
:105990003E81CB01B9010E94003EEB81FC81268152
:1059A0003781EB81FC81848D882F90E090958195E3
:1059B0009F4F820F931FEB81FC8197838683EB813E
:1059C000FC8126813781EB81FC81808191812817C0
:1059D000390790F4EB81FC8122813381EB81FC81DA
:1059E000848D882F90E0909581959F4F820F931F13
:1059F000EB81FC81978386838F81823031F48981AA
:105A0000882319F089818150898389818F5FEB8197
:105A1000FC81828F8A8127960FB6F894DEBF0FBE75
:105A2000CDBFCF91DF910895DF93CF9300D000D009
:105A3000CDB7DEB79A8389837C836B83E981FA8152
:105A4000848D882389F1E981FA8126813781E98172
:105A5000FA81848D882F90E0820F931FE981FA816B
:105A600097838683E981FA8126813781E981FA81EA
:105A7000828193812817390740F0E981FA8180817A
:105A80009181E981FA8197838683E981FA81468150
:105A90005781E981FA81848D282F30E08B819C81A8
:105AA000BA01A9010E94003E0F900F900F900F9035
:105AB000CF91DF910895DF93CF9300D000D0CDB781
:105AC000DEB79C838B830FB6F8940F92EB81FC8139
:105AD000868D8A8311C0EB81FC818189882379F0CE
