:100000000C942A000C94DA130C940D140C944014E4
:100010000C9447000C9447000C94800F0C941A0F1A
:100020000C944D0F0C94E70E0C9447000C94470071
:100030000C9447000C9447000C9447000C94470024
:100040000C94861A0C9447000C9447000C944700BB
:100050000C94470011241FBECFE5D8E0DEBFCDBF12
:1000600011E0A0E6B0E0E2E8F1E502C005900D92F3
:10007000A837B107D9F711E0A8E7B1E001C01D9298
:10008000A638B107E1F70E94E7260C94BF280C942C
:100090000000EF92FF920F931F937B018C0120E0F1
:1000A00030E040E05FE40E94F50388238CF0C80153
:1000B000B70120E030E040E05FE40E94C1010E940F
:1000C000E3049B01AC01205030404040504806C042
:1000D000C801B7010E94E3049B01AC01B901CA0148
:1000E0001F910F91FF90EF900895A0E0B0E0EBE733
:1000F000F0E00C944328DC012B01FA019C91923032
:1001000008F439C1EB018881823008F433C194309E
:1001100069F4843009F02FC111969C91119789815F
:10012000981709F428C1A0E6B0E025C1843009F48D
:1001300021C18230A9F4923009F01DC19A01AD01AC
:1001400088E0EA010990AE01E90109929E0181501F
:10015000C1F7E201898111969C918923818308C1AD
:10016000923009F407C112962D903C901397EB0141
:100170008A819B811496AD90BD90CD90DC901797AD
:10018000EC80FD800E811F819101281B390BB90184
:1001900037FF04C066277727621B730B6032710537
:1001A0000CF061C0121613066CF537014801062EDB
:1001B00004C096948794779467940A94D2F721E0C8
:1001C00030E040E050E004C0220F331F441F551FB1
:1001D0006A95D2F721503040404050402E213F21B7
:1001E00040235123211531054105510521F021E01E
:1001F00030E040E050E079018A01E628F72808293C
:1002000019293CC0232BD1F1260E371E350146019A
:10021000062E04C096948794779467940A94D2F734
:1002200021E030E040E050E004C0220F331F441FC3
:10023000551F6A95D2F721503040404050402A2146
:100240003B214C215D21211531054105510521F04E
:1002500021E030E040E050E059016A01A628B728CB
:10026000C828D9280BC0821593052CF01C01AA249C
:10027000BB24650103C0EE24FF24870111969C91E5
:10028000D20111968C91981709F445C0992339F041
:10029000A80197012A193B094C095D0906C0A6016E
:1002A00095012E193F09400B510B57FD08C01182D3
:1002B0003382228224833583468357831DC081E0A5
:1002C00081833382228288279927DC01821B930B4A
:1002D000A40BB50B84839583A683B7830DC0220F2F
:1002E000331F441F551F24833583468357838281E0
:1002F000938101979383828324813581468157813D
:10030000DA01C9010197A109B1098F5F9F4FAF4F72
:10031000BF4328F30BC0918333822282EA0CFB1C7B
:100320000C1D1D1DE482F5820683178383E0808304
:10033000248135814681578157FF1AC0C901AA27F8
:1003400097FDA095BA2F81709070A070B0705695EF
:10035000479537952795822B932BA42BB52B848318
:100360009583A683B7838281938101969383828349
:10037000DF0101C0D201CD01CDB7DEB7E2E10C94BF
:100380005F28A0E2B0E0E7ECF1E00C944F2869832D
:100390007A838B839C832D833E834F835887E9E048
:1003A000EE2EF12CEC0EFD1ECE010196B7010E943F
:1003B0005B068E010F5E1F4FCE010596B8010E94AD
:1003C0005B068A8991E089278A8BC701B801AE0153
:1003D000475E5F4F0E9475000E948605A096E6E08A
:1003E0000C946B28A0E2B0E0E8EFF1E00C944F2809
:1003F00069837A838B839C832D833E834F835887C5
:10040000F9E0EF2EF12CEC0EFD1ECE010196B701A6
:100410000E945B068E010F5E1F4FCE010596B8014C
:100420000E945B06C701B801AE01475E5F4F0E94A4
:1004300075000E948605A096E6E00C946B28A0E269
:10044000B0E0E5E2F2E00C94432869837A838B8381
:100450009C832D833E834F835887CE010196BE0136
:10046000675F7F4F0E945B06CE010596BE016F5EFF
:100470007F4F0E945B069985923088F0898982308F
:10048000C8F0943019F4823051F404C0843029F457
:10049000923081F480E690E0C6C0923049F420E0CA
:1004A0009A858A89981321E02A87CE010996BBC0D4
:1004B000823049F420E09A858A89981321E02A8BBA
:1004C000CE014196B0C02D843E844F8458886D88FB
:1004D0007E888F88988CEE24FF248701AA24BB2471
:1004E000650140E050E060E070E0E0E0F0E0C10174
:1004F00081709070892BE9F0E60CF71C081D191D1E
:100500009A01AB012A0D3B1D4C1D5D1D80E090E062
:10051000A0E0B0E0E614F7040805190520F481E036
:1005200090E0A0E0B0E0BA01A901480F591F6A1F8E
:100530007B1FAA0CBB1CCC1CDD1C97FE08C081E0F5
:1005400090E0A0E0B0E0A82AB92ACA2ADB2A3196B6
:10055000E032F10549F0660C771C881C991C569412
:10056000479437942794C3CFFA85EA892B893C892D
:100570008B859C85280F391F2E5F3F4F17C0CA01FE
:1005800081709070892B61F016950795F794E79428
:1005900080E090E0A0E0B0E8E82AF92A0A2B1B2BC3
:1005A00076956795579547952F5F3F4F77FDE7CF36
:1005B0000CC0440F551F661F771F17FD4160EE0CDE
:1005C000FF1C001F111F21503040403090E05907A0
:1005D00090E0690790E4790760F32B8F3C8FDB0193
:1005E000CA018F779070A070B07080349105A1051A
:1005F000B10561F447FD0AC0E114F10401051105DC
:1006000029F0405C5F4F6F4F7F4F40781A8EFE1786
:1006100011F081E08A8F4D8F5E8F6F8F78A383E01A
:10062000898FCE0149960E948605A096E2E10C943E
:100630005F28A8E1B0E0EFE1F3E00C944B28698378
:100640007A838B839C832D833E834F835887B9E0C5
:10065000EB2EF12CEC0EFD1ECE010196B7010E948F
:100660005B068E010F5E1F4FCE010596B8010E94FA
:100670005B062985223008F47EC03989323010F4B7
:10068000B8017CC08A859A8989278A87243011F02D
:10069000223031F4231709F06EC060E670E06EC0BE
:1006A000343039F41D861E861F86188A1C861B86E8
:1006B00004C0323021F484E08987B7015FC02B8504
:1006C0003C858B899C89281B390B3C872B87ED84C3
:1006D000FE840F851889AD88BE88CF88D88CEA142F
:1006E000FB040C051D0540F4EE0CFF1C001F111F40
:1006F000215030403C872B8720E030E040E050E044
:1007000080E090E0A0E0B0E460E070E0EA14FB0478
:100710000C051D0540F0282B392B4A2B5B2BEA18C2
:10072000FB080C091D09B695A79597958795EE0CC2
:10073000FF1C001F111F6F5F7F4F6F31710531F775
:10074000DA01C9018F779070A070B0708034910584
:10075000A105B10561F427FD0AC0E114F10401050A
:10076000110529F0205C3F4F4F4F5F4F20782D87B8
:100770003E874F87588BBE01675F7F4FCB010E943A
:1007800086056896EAE00C946728A8E1B0E0EBECF7
:10079000F3E00C944F2869837A838B839C832D83A9
:1007A0003E834F83588789E0E82EF12CEC0EFD1E26
:1007B000CE010196B7010E945B068E010F5E1F4FAE
:1007C000CE010596B8010E945B068985823040F013
:1007D0008989823028F0C701B8010E94D30601C080
:1007E0008FEF6896E6E00C946B28A8E1B0E0EBEFA1
:1007F000F3E00C944F2869837A838B839C832D8349
:100800003E834F83588789E0E82EF12CEC0EFD1EC5
:10081000CE010196B7010E945B068E010F5E1F4F4D
:10082000CE010596B8010E945B068985823040F0B2
:100830008989823028F0C701B8010E94D30601C01F
:100840008FEF6896E6E00C946B28A8E1B0E0EBE24D
:10085000F4E00C944F2869837A838B839C832D83E7
:100860003E834F83588789E0E82EF12CEC0EFD1E65
:10087000CE010196B7010E945B068E010F5E1F4FED
:10088000CE010596B8010E945B068985823040F052
:100890008989823028F0C701B8010E94D30601C0BF
:1008A00081E06896E6E00C946B28A8E1B0E0EBE507
:1008B000F4E00C944F2869837A838B839C832D8387
:1008C0003E834F83588789E0E82EF12CEC0EFD1E05
:1008D000CE010196B7010E945B068E010F5E1F4F8D
:1008E000CE010596B8010E945B068985823040F0F2
:1008F0008989823028F0C701B8010E94D30601C05F
:1009000081E06896E6E00C946B28A8E0B0E0EBE8A4
:10091000F4E00C944C289B01AC0183E08983DA015C
:10092000C9018827B7FD83959927AA27BB27B82E29
:10093000211531054105510519F482E089833AC03A
:100940008823A9F0203080E0380780E0480780E85D
:10095000580729F460E070E080E09FEC30C0EE249E
:10096000FF248701E21AF30A040B150B02C0790178
:100970008A018EE1C82ED12CDC82CB82ED82FE82F0
:100980000F831887C801B7010E9437050197181611
:10099000190684F4082E04C0EE0CFF1C001F111F62
:1009A0000A94D2F7ED82FE820F831887C81AD90AFB
:1009B000DC82CB82BA82CE0101960E9486052896FF
:1009C000E9E00C946828ACE0B0E0E9EEF4E00C94C7
:1009D000532869837A838B839C83CE010196BE0161
:1009E0006B5F7F4F0E945B068D81823061F18230A8
:1009F00050F1843021F48E81882351F12EC02F8153
:100A0000388537FD20C06E812F3131051CF06623FB
:100A1000F9F023C08EE190E0821B930B29853A8583
:100A20004B855C8504C056954795379527958A95E3
:100A3000D2F76623B1F050954095309521953F4F00
:100A40004F4F5F4F0EC020E030E040E050E009C063
:100A50002FEF3FEF4FEF5FE704C020E030E040E0D2
:100A600050E8B901CA012C96E2E00C946F28EF928D
:100A7000FF920F931F937B018C0180E0E81680E0CA
:100A8000F80681E0080780E0180788F48FEFE81681
:100A9000F1040105110531F028F088E090E0A0E0B4
:100AA000B0E017C080E090E0A0E0B0E012C080E0CD
:100AB000E81680E0F80680E0080781E0180728F0D3
:100AC00088E190E0A0E0B0E004C080E190E0A0E028
:100AD000B0E020E230E040E050E0281B390B4A0B48
:100AE0005B0B04C016950795F794E7948A95D2F7A7
:100AF000F701E859FF4F8081281B3109410951094D
:100B0000C9011F910F91FF90EF900895DF92EF922E
:100B1000FF920F931F93FC01E480F58006811781FB
:100B2000D1808081823048F480E090E0A0E1B0E0A4
:100B3000E82AF92A0A2B1B2BA5C0843009F49FC090
:100B4000823021F4EE24FF24870105C0E114F10472
:100B50000105110519F4E0E0F0E096C062817381AF
:100B60009FEF623879070CF05BC022E83FEF261B4D
:100B7000370B2A3131052CF020E030E040E050E026
:100B80002AC0B801A701022E04C076956795579533
:100B900047950A94D2F781E090E0A0E0B0E004C06D
:100BA000880F991FAA1FBB1F2A95D2F70197A10989
:100BB000B1098E219F21A023B1230097A105B10582
:100BC00021F081E090E0A0E0B0E09A01AB01282B99
:100BD000392B4A2B5B2BDA01C9018F779070A070FB
:100BE000B07080349105A105B10539F427FF09C023
:100BF000205C3F4F4F4F5F4F04C0215C3F4F4F4F32
:100C00005F4FE0E0F0E02030A0E03A07A0E04A07C4
:100C1000A0E45A0710F0E1E0F0E079018A0127C072
:100C20006038710564F5FB01E158FF4FD801C70139
:100C30008F779070A070B07080349105A105B105D8
:100C400039F4E7FE0DC080E490E0A0E0B0E004C01D
:100C50008FE390E0A0E0B0E0E80EF91E0A1F1B1F32
:100C600017FF05C016950795F794E794319687E02E
:100C700016950795F794E7948A95D1F705C0EE2469
:100C8000FF248701EFEFF0E06E2F679566276795E9
:100C9000902F9F77D794DD24D7948E2F8695492F58
:100CA000462B582F5D29B701CA011F910F91FF9064
:100CB000EF90DF900895FC01DB014081518122819A
:100CC000622F6F7770E0221F2227221F9381892FC6
:100CD000880F822B282F30E0991F9927991F119692
:100CE0009C93119721153105A9F541155105610511
:100CF000710511F482E037C082E89FEF13969C9350
:100D00008E9312979A01AB0167E0220F331F441FA5
:100D1000551F6A95D1F783E08C930DC0220F331FC6
:100D2000441F551F12968D919C911397019713960E
:100D30009C938E931297203080E0380780E048071C
:100D400080E4580758F314962D933D934D935C938C
:100D5000179708952F3F310579F441155105610525
:100D6000710519F484E08C93089564FF03C081E059
:100D70008C9312C01C9210C02F57304013963C9396
:100D80002E93129783E08C9387E0440F551F661FC4
:100D9000771F8A95D1F7706414964D935D936D9388
:100DA0007C93179708951F93DC01FB019C9192306F
:100DB00008F447C08081823008F443C0943051F475
:100DC00011961C91843099F58181682F70E0611B28
:100DD00071093FC0843021F0923031F48230B9F192
:100DE0008181882389F12DC011961C911197823041
:100DF000F1F081811817D9F412962D913C91139737
:100E0000828193818217930794F028173907BCF0E9
:100E100014968D919D910D90BC91A02D24813581CA
:100E200046815781281739074A075B0718F41123B1
:100E300041F00AC082179307A407B50740F41123B5
:100E400019F061E070E005C06FEF7FEF02C060E075
:100E500070E0CB011F910895DF93CF93CDB7DEB73C
:100E6000A1E4B0E0E1E4F0E0808188608C93A1E44B
:100E7000B0E0E1E4F0E0808180618C93CF91DF917C
:100E80000895DF93CF930F92CDB7DEB78983898121
:100E90008823B1F4A1E4B0E0E1E4F0E080818E7F4A
:100EA0008C93A1E4B0E0E1E4F0E080818D7F8C934D
:100EB000A1E4B0E0E1E4F0E080818B7F8C93AEC0F0
:100EC00089818130B1F4A1E4B0E0E1E4F0E0808117
:100ED00081608C93A1E4B0E0E1E4F0E080818D7F5B
:100EE0008C93A1E4B0E0E1E4F0E080818B7F8C930F
:100EF00095C089818230B1F4A1E4B0E0E1E4F0E092
:100F000080818E7F8C93A1E4B0E0E1E4F0E0808109
:100F100082608C93A1E4B0E0E1E4F0E080818B7F1B
:100F20008C937CC089818330B1F4A1E4B0E0E1E42A
:100F3000F0E0808181608C93A1E4B0E0E1E4F0E036
:100F4000808182608C93A1E4B0E0E1E4F0E08081F4
:100F50008B7F8C9363C089818430B1F4A1E4B0E0CD
:100F6000E1E4F0E080818E7F8C93A1E4B0E0E1E4E5
:100F7000F0E080818D7F8C93A1E4B0E0E1E4F0E0CB
:100F8000808184608C934AC089818530B1F4A1E46A
:100F9000B0E0E1E4F0E0808181608C93A1E4B0E016
:100FA000E1E4F0E080818D7F8C93A1E4B0E0E1E4A6
:100FB000F0E0808184608C9331C089818630B1F407
:100FC000A1E4B0E0E1E4F0E080818E7F8C93A1E4C5
:100FD000B0E0E1E4F0E0808182608C93A1E4B0E0D5
:100FE000E1E4F0E0808184608C9318C089818730CF
:100FF000A9F4A1E4B0E0E1E4F0E0808181608C93A9
:10100000A1E4B0E0E1E4F0E0808182608C93A1E4AF
:10101000B0E0E1E4F0E0808184608C930F90CF91A8
:10102000DF910895DF93CF93CDB7DEB7E1E4F0E031
:1010300088E18083E1E4F0E01082CF91DF910895B0
:10104000DF93CF93CDB7DEB7E0E4F0E01082E9E2C2
:10105000F0E087E68083AAE2B0E0EAE2F0E0808197
:1010600080618C93AAE2B0E0EAE2F0E080818860DF
:101070008C93E0E4F0E08EE88083CF91DF910895D7
:10108000DF93CF930F92CDB7DEB78983EBE2F0E029
:101090008081829586958770882F90E0817090700E
:1010A0000097A1F3ECE2F0E089818083EBE2F0E0CD
:1010B00080818295869586958370882F90E08170D7
:1010C0009070009799F3ABE2B0E0EBE2F0E0808142
:1010D00080648C930F90CF91DF910895DF93CF932D
:1010E00000D0CDB7DEB79A838983EBE2F0E0808150
:1010F0008823DCF7ECE2F0E08081E981FA818083EB
:101100000F900F90CF91DF910895DF93CF9300D090
:10111000CDB7DEB78A8381E089838A81803108F088
:101120000FC28A818823F1F4AFE4B0E0EFE4F0E08D
:1011300080818E7F8C93AFE4B0E0EFE4F0E08081BB
:101140008D7F8C93AEE4B0E0EEE4F0E08081877FA9
:101150008C93AEE4B0E0EEE4F0E080818F7E8C937F
:101160001982EEC18A818130F1F4AFE4B0E0EFE49E
:10117000F0E0808181608C93AFE4B0E0EFE4F0E0D8
:1011800080818D7F8C93AEE4B0E0EEE4F0E080816E
:10119000877F8C93AEE4B0E0EEE4F0E080818F7E58
:1011A0008C931982CDC18A818230F1F4AFE4B0E032
:1011B000EFE4F0E080818E7F8C93AFE4B0E0EFE469
:1011C000F0E0808182608C93AEE4B0E0EEE4F0E089
:1011D0008081877F8C93AEE4B0E0EEE4F0E0808124
:1011E0008F7E8C931982ACC18A818330F1F4AFE495
:1011F000B0E0EFE4F0E0808181608C93AFE4B0E098
:10120000EFE4F0E0808182608C93AEE4B0E0EEE445
:10121000F0E08081877F8C93AEE4B0E0EEE4F0E014
:1012200080818F7E8C9319828BC18A818430F1F406
:10123000AFE4B0E0EFE4F0E080818E7F8C93AFE428
:10124000B0E0EFE4F0E080818D7F8C93AEE4B0E01D
:10125000EEE4F0E0808188608C93AEE4B0E0EEE4F0
:10126000F0E080818F7E8C9319826AC18A818530FB
:10127000F1F4AFE4B0E0EFE4F0E0808181608C93C2
:10128000AFE4B0E0EFE4F0E080818D7F8C93AEE4DA
:10129000B0E0EEE4F0E0808188608C93AEE4B0E0F2
:1012A000EEE4F0E080818F7E8C93198249C18A81BF
:1012B0008630F1F4AFE4B0E0EFE4F0E080818E7FBF
:1012C0008C93AFE4B0E0EFE4F0E0808182608C9337
:1012D000AEE4B0E0EEE4F0E0808188608C93AEE4B0
:1012E000B0E0EEE4F0E080818F7E8C93198228C11B
:1012F0008A818730F1F4AFE4B0E0EFE4F0E0808180
:1013000081608C93AFE4B0E0EFE4F0E08081826034
:101310008C93AEE4B0E0EEE4F0E0808188608C93E2
:10132000AEE4B0E0EEE4F0E080818F7E8C93198231
:1013300007C18A818830F1F4AFE4B0E0EFE4F0E077
:1013400080818E7F8C93AFE4B0E0EFE4F0E08081A9
:101350008D7F8C93AEE4B0E0EEE4F0E08081877F97
:101360008C93AEE4B0E0EEE4F0E0808180618C9399
:101370001982E6C08A818930F1F4AFE4B0E0EFE48D
:10138000F0E0808181608C93AFE4B0E0EFE4F0E0C6
:1013900080818D7F8C93AEE4B0E0EEE4F0E080815C
:1013A000877F8C93AEE4B0E0EEE4F0E08081806172
:1013B0008C931982C5C08A818A30F1F4AFE4B0E021
:1013C000EFE4F0E080818E7F8C93AFE4B0E0EFE457
:1013D000F0E0808182608C93AEE4B0E0EEE4F0E077
:1013E0008081877F8C93AEE4B0E0EEE4F0E0808112
:1013F00080618C931982A4C08A818B30F1F4AFE4B0
:10140000B0E0EFE4F0E0808181608C93AFE4B0E085
:10141000EFE4F0E0808182608C93AEE4B0E0EEE433
:10142000F0E08081877F8C93AEE4B0E0EEE4F0E002
:10143000808180618C93198283C08A818C30F1F421
:10144000AFE4B0E0EFE4F0E080818E7F8C93AFE416
:10145000B0E0EFE4F0E080818D7F8C93AEE4B0E00B
:10146000EEE4F0E0808188608C93AEE4B0E0EEE4DE
:10147000F0E0808180618C93198262C08A818D3016
:10148000F1F4AFE4B0E0EFE4F0E0808181608C93B0
:10149000AFE4B0E0EFE4F0E080818D7F8C93AEE4C8
:1014A000B0E0EEE4F0E0808188608C93AEE4B0E0E0
:1014B000EEE4F0E0808180618C93198241C08A81E2
:1014C0008E30F1F4AFE4B0E0EFE4F0E080818E7FA5
:1014D0008C93AFE4B0E0EFE4F0E0808182608C9325
:1014E000AEE4B0E0EEE4F0E0808188608C93AEE49E
:1014F000B0E0EEE4F0E0808180618C93198220C03E
:101500008A818F30E9F4AFE4B0E0EFE4F0E080816D
:1015100081608C93AFE4B0E0EFE4F0E08081826022
:101520008C93AEE4B0E0EEE4F0E0808188608C93D0
:10153000AEE4B0E0EEE4F0E0808180618C9319824B
:1015400089810F900F90CF91DF910895DF93CF9312
:1015500000D000D0CDB7DEB78A837C836B8381E077
:1015600089838A81883008F001C18A818823B9F48F
:10157000AEE4B0E0EEE4F0E080818E7F8C93AEE4E8
:10158000B0E0EEE4F0E080818D7F8C93AEE4B0E0DB
:10159000EEE4F0E080818B7F8C931982E7C08A8132
:1015A000813009F5AEE4B0E0EEE4F0E080818160E6
:1015B0008C93AEE4B0E0EEE4F0E080818D7F8C931C
:1015C000AEE4B0E0EEE4F0E080818B7F8C93EB81C1
:1015D000FC818DEB97E3A6E8B3E380839183A2833C
:1015E000B3831982C3C08A81823009F5AEE4B0E0CA
:1015F000EEE4F0E080818E7F8C93AEE4B0E0EEE428
:10160000F0E0808182608C93AEE4B0E0EEE4F0E044
:1016100080818B7F8C93EB81FC818DEB97E3A6E03F
:10162000B5E380839183A283B38319829FC08A81AB
:10163000833009F5AEE4B0E0EEE4F0E08081816053
:101640008C93AEE4B0E0EEE4F0E0808182608C93B5
:10165000AEE4B0E0EEE4F0E080818B7F8C93EB8130
:10166000FC818DEB97E3A6E8B6E380839183A283A8
:10167000B38319827BC08A81843009F5AEE4B0E07F
:10168000EEE4F0E080818E7F8C93AEE4B0E0EEE497
:10169000F0E080818D7F8C93AEE4B0E0EEE4F0E08A
:1016A000808184608C93EB81FC818DEB97E3A6E8CD
:1016B000B7E380839183A283B383198257C08A8161
:1016C000853009F5AEE4B0E0EEE4F0E080818160C1
:1016D0008C93AEE4B0E0EEE4F0E080818D7F8C93FB
:1016E000AEE4B0E0EEE4F0E0808184608C93EB81C6
:1016F000FC818DEB97E3A6E8B8E380839183A28316
:10170000B383198233C08A818630B9F4AEE4B0E085
:10171000EEE4F0E080818E7F8C93AEE4B0E0EEE406
:10172000F0E0808182608C93AEE4B0E0EEE4F0E023
:10173000808184608C93198219C08A818730B1F4CA
:10174000AEE4B0E0EEE4F0E0808181608C93AEE442
:10175000B0E0EEE4F0E0808182608C93AEE4B0E033
:10176000EEE4F0E0808184608C93198289810F908F
:101770000F900F900F90CF91DF910895DF93CF934B
:1017800000D00F92CDB7DEB78A836B8381E0898367
:101790008A81823008F072C08B81823008F06EC07E
:1017A0008B818823A9F58A818823B9F4AFE4B0E05E
:1017B000EFE4F0E080818F7B8C93AFE4B0E0EFE466
:1017C000F0E0808180688C93A1E3B0E0E1E3F0E099
:1017D000808180628C93198251C08A81813009F0A6
:1017E0004DC0AFE4B0E0EFE4F0E0808180648C9322
:1017F000AFE4B0E0EFE4F0E0808180688C93A1E397
:10180000B0E0E1E3F0E0808180628C93198236C021
:101810008B81813099F58A818823B9F4AFE4B0E0F7
:10182000EFE4F0E080818F7E8C93AFE4B0E0EFE4F2
:10183000F0E0808180628C93A1E3B0E0E1E3F0E02E
:10184000808180618C93198219C08A818130B1F4C2
:10185000AFE4B0E0EFE4F0E0808180618C93AFE42E
:10186000B0E0EFE4F0E0808180628C93A1E3B0E02F
:10187000E1E3F0E0808180618C93198289810F908F
:101880000F900F90CF91DF910895DF93CF93CDB755
:10189000DEB7AEE4B0E0EEE4F0E0808180688C93E7
:1018A000CF91DF910895DF93CF9300D0CDB7DEB70E
:1018B0009A838983ECE4F0E089818083EDE4F0E0B1
:1018C00089819A81892F992780830F900F90CF91DA
:1018D000DF910895DF93CF9300D0CDB7DEB79A8321
:1018E000898389819A81009791F0EDE4F0E080810D
:1018F000882F90E0382F2227ECE4F0E08081882FB9
:1019000090E0822B932BE981FA81918380830F9061
:101910000F90CF91DF910895DF93CF9300D0CDB793
:10192000DEB79A838983EAE4F0E089819A81918322
:1019300080830F900F90CF91DF910895DF93CF9325
:1019400000D0CDB7DEB79A838983E8E4F0E08981DF
:101950009A81918380830F900F90CF91DF910895AA
:10196000DF93CF9300D0CDB7DEB79A838983E6E4C7
:10197000F0E089819A81918380830F900F90CF91BD
:10198000DF910895DF93CF9300D0CDB7DEB79A8370
:10199000898389819A81009791F0E7E4F0E0808162
:1019A000882F90E0382F2227E6E4F0E08081882F0E
:1019B00090E0822B932BE981FA81918380830F90B1
:1019C0000F90CF91DF910895DF93CF93CDB7DEB71E
:1019D000AFE5B0E0EFE5F0E0808180688C93A9E5A9
:1019E000B0E0E9E5F0E0808184608C93CF91DF91F5
:1019F0000895DF93CF93CDB7DEB7A9E5B0E0E9E571
:101A0000F0E080818B7F8C93CF91DF910895DF93FD
:101A1000CF93CDB7DEB7AFE5B0E0EFE5F0E0808182
:101A200080688C93A9E5B0E0E9E5F0E0808188600A
:101A30008C93CF91DF910895DF93CF93CDB7DEB72D
:101A4000A9E5B0E0E9E5F0E08081877F8C93CF9154
:101A5000DF910895DF93CF93CDB7DEB7AFE5B0E068
:101A6000EFE5F0E0808180688C93A9E5B0E0E9E5DE
:101A7000F0E0808180618C93CF91DF910895DF93B6
:101A8000CF93CDB7DEB7A9E5B0E0E9E5F0E080811E
:101A90008F7E8C93CF91DF910895DF93CF93CDB755
:101AA000DEB7AFE5B0E0EFE5F0E0808180688C93D1
:101AB000A9E5B0E0E9E5F0E0808180628C93CF9108
:101AC000DF910895DF93CF93CDB7DEB7A9E5B0E0FE
:101AD000E9E5F0E080818F7D8C93CF91DF910895CF
:101AE0000F931F93DF93CF93CDB7DEB766970FB6F3
:101AF000F894DEBF0FBECDBF8E874F87588B698BA2
:101B00007A8B3C8B2B8B1E8B0D8B81E0898780E041
:101B100090E0A0E0B0E08A879B87AC87BD871D82FC
:101B20001E821F8218861C821B821A8219829E01C5
:101B3000265F3F4F8E85B9010E94A60A6F8578897E
:101B400089899A8920E030E040E050E00E94550405
:101B500018166CF46F85788989899A8920E030E0BD
:101B600040E050E00E94C50318160CF06BC02A85B7
:101B70003B854C855D856F85788989899A890E9426
:101B80001903DC01CB01BC01CD010E944900DC013D
:101B9000CB018D839E83AF83B8878D819E81AF817A
:101BA000B8852FEF3FEF40E050E0BC01CD010E942F
:101BB0002128DC01CB019A838983EB89FC89898107
:101BC0009A819183808389819A810097D9F4898150
:101BD0009A810E94530C8D819E81AF81B8852FEF31
:101BE0003FEF40E050E0BC01CD010E942128DA0126
:101BF000C9019C838B83ED89FE898B819C819183B4
:101C000080831FC089819A810097D9F089819A8148
:101C10000E94530C8D819E81AF81B8852FEF3FEFDD
:101C200040E050E0BC01CD010E942128DA01C90149
:101C300001969C838B83ED89FE898B819C819183A6
:101C400080831986898566960FB6F894DEBF0FBE2D
:101C5000CDBFCF91DF911F910F910895DF93CF9367
:101C6000CDB7DEB761970FB6F894DEBF0FBECDBF1C
:101C70008B874C875D876E877F87398B288B80E0C9
:101C800090E0A0E0B0E08F839887A987BA8780E0D2
:101C900090E0A0E0B0E08B839C83AD83BE831A828A
:101CA00019829E01295F3F4F8B85B9010E94A60AC8
:101CB00087EC90E00E948C0C6C857D858E859F85DD
:101CC00020E030E040E050E00E945504181664F433
:101CD0006C857D858E859F8520E030E040E050E07A
:101CE0000E94C503181664F58F819885A985BA8569
:101CF000BC01CD0120E030E048E453E40E941F0223
:101D0000DC01CB018B839C83AD83BE836C857D8599
:101D10008E859F852B813C814D815E810E941903B8
:101D2000DC01CB01BC01CD010E944900DC01CB01EB
:101D30009A838983E889F98989819A81918380834B
:101D400061960FB6F894DEBF0FBECDBFCF91DF9185
:101D50000895DF93CF930F92CDB7DEB78983898142
:101D60008230A8F48981813041F4AEE4B0E0EEE441
:101D7000F0E0808180648C930AC08981882339F4E3
:101D8000AEE4B0E0EEE4F0E080818F7B8C930F90C6
:101D9000CF91DF910895DF93CF9300D00F92CDB70D
:101DA000DEB79B838A8381E089838A819B81009748
:101DB00039F08A819B81909379018093780119820F
:101DC00089810F900F900F90CF91DF9108951F920E
:101DD0000F920FB60F9211242F933F934F935F935F
:101DE0006F937F938F939F93AF93BF93EF93FF93E3
:101DF000DF93CF93CDB7DEB78091780190917901D1
:101E0000009729F0E0917801F09179010995CF913F
:101E1000DF91FF91EF91BF91AF919F918F917F9152
:101E20006F915F914F913F912F910F900FBE0F9047
:101E30001F9018951F920F920FB60F9211242F9397
:101E40003F934F935F936F937F938F939F93AF9342
:101E5000BF93EF93FF93DF93CF93CDB7DEB780911E
:101E6000780190917901009729F0E0917801F09143
:101E700079010995CF91DF91FF91EF91BF91AF91DA
:101E80009F918F917F916F915F914F913F912F9192
:101E90000F900FBE0F901F9018951F920F920FB6C4
:101EA0000F9211242F933F934F935F936F937F93E0
:101EB0008F939F93AF93BF93EF93FF93DF93CF9352
:101EC000CDB7DEB78091780190917901009729F024
:101ED000E0917801F09179010995CF91DF91FF911F
:101EE000EF91BF91AF919F918F917F916F915F9192
:101EF0004F913F912F910F900FBE0F901F9018950B
:101F00001F920F920FB60F9211242F933F934F936E
:101F10005F936F937F938F939F93AF93BF93EF9351
:101F2000FF93DF93CF93CDB7DEB780917801909187
:101F30007901009729F0E0917801F09179010995F4
:101F4000CF91DF91FF91EF91BF91AF919F918F91D1
:101F50007F916F915F914F913F912F910F900FBEA5
:101F60000F901F9018950F931F93DF93CF9300D07E
:101F700000D000D0CDB7DEB78D836E8380E090E0D7
:101F8000A0E0B0E089839A83AB83BC8383E00E94A6
:101F9000850883E09E012F5F3F4FB9010E94A60A8A
:101FA00080E06D810E94BE0B8D81882319F50AE4C3
:101FB00010E08E81882F90E0AA2797FDA095BA2F78
:101FC000BC01CD010E948504DC01CB01BC01CD0127
:101FD00024E13EEA43E251E40E941F02DC01CB010E
:101FE000BC01CD010E944900DC01CB01F8019183C5
:101FF000808325C08D81813011F508E410E08E8149
:10200000882F90E0AA2797FDA095BA2FBC01CD019B
:102010000E948504DC01CB01BC01CD0124E13EEA34
:1020200043E251E40E941F02DC01CB01BC01CD015F
:102030000E944900DC01CB01F80191838083269640
:102040000FB6F894DEBF0FBECDBFCF91DF911F91C9
:102050000F910895DF93CF93CDB7DEB7A6E5B0E03B
:10206000E6E5F0E0808184608C93A6E5B0E0E6E5EB
:10207000F0E0808180648C93E0E2F0E088E9808386
:10208000CF91DF910895DF93CF93CDB7DEB7A6E56B
:10209000B0E0E6E5F0E0808180628C93A6E5B0E0F8
:1020A000E6E5F0E0808180688C93E6E5F0E08081F1
:1020B0008823DCF7CF91DF910895DF93CF93CDB7DD
:1020C000DEB7A6E5B0E0E6E5F0E0808180628C93C3
:1020D000A6E5B0E0E6E5F0E0808180688C93E6E577
:1020E000F0E080818823DCF7CF91DF910895DF93C2
:1020F000CF93CDB7DEB7A6E5B0E0E6E5F0E08081AE
:1021000080618C93A6E5B0E0E6E5F0E08081806830
:102110008C93CF91DF910895DF93CF930F92CDB73A
:10212000DEB78983E3E2F0E08981880F8083A3E250
:10213000B0E0E3E2F0E080818E7F8C93A6E5B0E032
:10214000E6E5F0E080818F7D8C93A6E5B0E0E6E5E2
:10215000F0E0808180688C93E6E5F0E08081882360
:10216000DCF70F90CF91DF910895DF93CF930F921B
:10217000CDB7DEB78983E3E2F0E08981880F808301
:10218000A3E2B0E0E3E2F0E0808181608C93A6E519
:10219000B0E0E6E5F0E080818F7D8C93A6E5B0E0CD
:1021A000E6E5F0E0808180688C93E6E5F0E08081F0
:1021B0008823DCF70F90CF91DF910895DF93CF93C1
:1021C0000F92CDB7DEB78983A6E5B0E0E6E5F0E093
:1021D000808184608C93A6E5B0E0E6E5F0E0808144
:1021E00080648C93E2E2F0E08981880F8083A2E230
:1021F000B0E0E2E2F0E080818E7F8C93A6E5B0E073
:10220000E6E5F0E0808180688C930F90CF91DF91BC
:102210000895DF93CF93CDB7DEB7A6E5B0E0E6E54E
:10222000F0E0808180688C93CF91DF910895DF93F7
:10223000CF930F92CDB7DEB78983E3E2F0E08981D7
:102240008083A6E5B0E0E6E5F0E0808180688C93CD
:10225000E6E5F0E080818823DCF70F90CF91DF91F5
:102260000895DF93CF9300D0CDB7DEB79A838983EB
:10227000A6E5B0E0E6E5F0E0808180688C93E6E5D5
:10228000F0E080818823DCF7E3E2F0E08081E981FF
:10229000FA8180830F900F90CF91DF910895DF93A3
:1022A000CF93CDB7DEB7ADE2B0E0EDE2F0E08081F4
:1022B00080618C9381E065E041E00E94F61481E04A
:1022C00064E041E00E94F61481E067E041E00E9492
:1022D000F61481E064E041E00E946416ADE2B0E0F3
:1022E000EDE2F0E0808181608C93ADE2B0E0EDE260
:1022F000F0E0808182608C93ADE2B0E0EDE2F0E04E
:10230000808180628C93ADE2B0E0EDE2F0E080810C
:1023100084608C93ADE2B0E0EDE2F0E08081806417
:102320008C93CF91DF910895DF93CF9300D000D0AD
:1023300000D0CDB7DEB79E838D8319821A821B82AF
:102340001C8215C029813A818D819E81FC01E20F9A
:10235000F31F80810E94061289819A81AB81BC8122
:102360000196A11DB11D89839A83AB83BC8329810A
:102370003A818D819E81FC01E20FF31F80818823C9
:1023800009F726960FB6F894DEBF0FBECDBFCF91EA
:10239000DF9108950F931F93DF93CF9300D000D068
:1023A00000D0CDB7DEB79E838D8319821A821B823F
:1023B0001C8217C029813A818D819E818C01020F78
:1023C000131F8FEF0E940612F801808389819A8182
:1023D000AB81BC810196A11DB11D89839A83AB831A
:1023E000BC8329813A818D819E81FC01E20FF31F1C
:1023F00080818823F9F626960FB6F894DEBF0FBECB
:10240000CDBFCF91DF911F910F910895DF93CF93AF
:102410000F92CDB7DEB78983EFE2F0E08981808348
:10242000EEE2F0E080818823DCF7EFE2F0E08081EB
:102430000F90CF91DF910895DF93CF9300D0CDB768
:10244000DEB789836A838A818F3F09F58981882372
:1024500029F4EFE5F0E08FEF808357C08981813068
:1024600029F4EBE5F0E08FEF80834FC08981823063
:1024700029F4E5E5F0E08FEF808347C08981833060
:1024800009F043C0E4E5F0E08FEF80833EC08A812D
:102490008823E1F48981882321F4EFE5F0E01082BC
:1024A00034C08981813021F4EBE5F0E010822DC049
:1024B0008981823021F4E5E5F0E0108226C089812F
:1024C000833019F5E4E5F0E010821FC0898188238C
:1024D00029F4EFE5F0E08A81808317C0898181309B
:1024E00029F4EBE5F0E08A8180830FC08981823096
:1024F00029F4E5E5F0E08A81808307C08981833093
:1025000021F4E4E5F0E08A8180830F900F90CF9171
:10251000DF910895DF93CF9300D00F92CDB7DEB750
:1025200089836A834B838B81813009F05DC0898107
:102530008823A1F4AFE5B0E0EFE5F0E08081482F1B
:102540008A81282F30E081E090E0022E02C0880FBF
:10255000991F0A94E2F7842B8C93A9C0898181305A
:10256000A1F4ABE5B0E0EBE5F0E08081482F8A8193
:10257000282F30E081E090E0022E02C0880F991FE2
:102580000A94E2F7842B8C9392C089818230A1F463
:10259000A5E5B0E0E5E5F0E08081482F8A81282FAD
:1025A00030E081E090E0022E02C0880F991F0A946B
:1025B000E2F7842B8C937BC08981833009F077C04C
:1025C000A4E5B0E0E4E5F0E08081482F8A81282F7F
:1025D00030E081E090E0022E02C0880F991F0A943B
:1025E000E2F7842B8C9363C08B81882309F05FC052
:1025F00089818823A9F4AFE5B0E0EFE5F0E08081C0
:10260000482F8A81282F30E081E090E0022E02C01E
:10261000880F991F0A94E2F7809584238C9347C012
:1026200089818130A9F4ABE5B0E0EBE5F0E0808191
:10263000482F8A81282F30E081E090E0022E02C0EE
:10264000880F991F0A94E2F7809584238C932FC0FA
:1026500089818230A9F4A5E5B0E0E5E5F0E080816C
:10266000482F8A81282F30E081E090E0022E02C0BE
:10267000880F991F0A94E2F7809584238C9317C0E2
:1026800089818330A1F4A4E5B0E0E4E5F0E0808145
:10269000482F8A81282F30E081E090E0022E02C08E
:1026A000880F991F0A94E2F7809584238C930F90EA
:1026B0000F900F90CF91DF910895DF93CF9300D0CB
:1026C000CDB7DEB79A83898389819A81009731F0EB
:1026D00089819A8190937B0180937A010F900F906A
:1026E000CF91DF910895DF93CF9300D0CDB7DEB7C0
:1026F0009A83898389819A81009731F089819A81AF
:1027000090937D0180937C010F900F90CF91DF918A
:102710000895DF93CF9300D0CDB7DEB79A83898336
:1027200089819A81009731F089819A8190937F0104
:1027300080937E010F900F90CF91DF910895DF93EA
:10274000CF930F92CDB7DEB789838981813031F481
:1027500080E067E041E00E948A1208C089818823F6
:1027600029F480E067E040E00E948A120F90CF9148
:10277000DF910895DF93CF93CDB7DEB780E067E0B8
:1027800041E00E948A1281E065E041E00E948A12E5
:1027900081E066E041E00E948A1281E067E041E06A
:1027A0000E948A1282E061E041E00E948A12CF9189
:1027B000DF9108951F920F920FB60F9211242F935D
:1027C0003F934F935F936F937F938F939F93AF93B9
:1027D000BF93EF93FF93DF93CF93CDB7DEB7809195
:1027E0007A0190917B01009729F0E0917A01F091B4
:1027F0007B010995CF91DF91FF91EF91BF91AF914F
:102800009F918F917F916F915F914F913F912F9108
:102810000F900FBE0F901F9018951F920F920FB63A
:102820000F9211242F933F934F935F936F937F9356
:102830008F939F93AF93BF93EF93FF93DF93CF93C8
:10284000CDB7DEB780917C0190917D01009729F092
:10285000E0917C01F0917D010995CF91DF91FF918D
:10286000EF91BF91AF919F918F917F916F915F9108
:102870004F913F912F910F900FBE0F901F90189581
:102880001F920F920FB60F9211242F933F934F93E5
:102890005F936F937F938F939F93AF93BF93EF93C8
:1028A000FF93DF93CF93CDB7DEB780917E019091F8
:1028B0007F01009729F0E0917E01F0917F01099559
:1028C000CF91DF91FF91EF91BF91AF919F918F9148
:1028D0007F916F915F914F913F912F910F900FBE1C
:1028E0000F901F901895DF93CF9300D00F92CDB724
:1028F000DEB78A836B8381E089838A81843008F024
:102900006EC08B818F3F29F58A81882331F4EAE3F9
:10291000F0E08FEF8083198262C08A81813031F4C8
:10292000E7E3F0E08FEF8083198259C08A8182301B
:1029300031F4E4E3F0E08FEF8083198250C08A81A4
:10294000833009F04CC0E1E3F0E08FEF808319821F
:1029500046C08B81882301F58A81882329F4EAE324
:10296000F0E0108219823BC08A81813029F4E7E3CC
:10297000F0E01082198233C08A81823029F4E4E3C6
:10298000F0E0108219822BC08A81833041F5E1E3A7
:10299000F0E01082198223C08A81882331F4EAE3AF
:1029A000F0E08B81808319821AC08A81813031F4F2
:1029B000E7E3F0E08B818083198211C08A81823045
:1029C00031F4E4E3F0E08B818083198208C08A81CE
:1029D000833029F4E1E3F0E08B81808319828981DF
:1029E0000F900F900F90CF91DF910895DF93CF93C9
:1029F00000D000D0CDB7DEB78A836B834C8381E0F3
:102A000089838A81843008F0D4C08B81883008F0B3
:102A1000D0C08C81823008F0CCC08C81813009F02C
:102A200061C08A818823A9F4AAE3B0E0EAE3F0E078
:102A30008081482F8B81282F30E081E090E0022EAA
:102A400002C0880F991F0A94E2F7842B8C93198295
:102A5000B0C08A818130A9F4A7E3B0E0E7E3F0E0F9
:102A60008081482F8B81282F30E081E090E0022E7A
:102A700002C0880F991F0A94E2F7842B8C93198265
:102A800098C08A818230A9F4A4E3B0E0E4E3F0E0E6
:102A90008081482F8B81282F30E081E090E0022E4A
:102AA00002C0880F991F0A94E2F7842B8C93198235
:102AB00080C08A81833009F07CC0A1E3B0E0E1E30B
:102AC000F0E08081482F8B81282F30E081E090E07A
:102AD000022E02C0880F991F0A94E2F7842B8C9370
:102AE000198267C08C81882309F063C08A8188239A
:102AF000B1F4AAE3B0E0EAE3F0E08081482F8B81F3
:102B0000282F30E081E090E0022E02C0880F991F4C
:102B10000A94E2F7809584238C9319824AC08A81B3
:102B20008130B1F4A7E3B0E0E7E3F0E08081482F23
:102B30008B81282F30E081E090E0022E02C0880FC8
:102B4000991F0A94E2F7809584238C93198231C0EF
:102B50008A818230B1F4A4E3B0E0E4E3F0E0808164
:102B6000482F8B81282F30E081E090E0022E02C0B8
:102B7000880F991F0A94E2F7809584238C93198219
:102B800018C08A818330A9F4A1E3B0E0E1E3F0E06A
:102B90008081482F8B81282F30E081E090E0022E49
:102BA00002C0880F991F0A94E2F7809584238C93C2
:102BB000198289810F900F900F900F90CF91DF9124
:102BC0000895DF93CF9300D00F92CDB7DEB78A83FD
:102BD0006B8381E089838A81843008F06EC08B81A9
:102BE0008F3F29F58A81882331F4EBE3F0E08FEF02
:102BF0008083198262C08A81813031F4E8E3F0E099
:102C00008FEF8083198259C08A81823031F4E5E3E5
:102C1000F0E08FEF8083198250C08A81833009F001
:102C20004CC0E2E3F0E08FEF8083198246C08B81D5
:102C3000882301F58A81882329F4EBE3F0E01082F0
:102C400019823BC08A81813029F4E8E3F0E01082E8
:102C5000198233C08A81823029F4E5E3F0E01082E2
:102C600019822BC08A81833041F5E2E3F0E01082C3
:102C7000198223C08A81882331F4EBE3F0E08B8151
:102C8000808319821AC08A81813031F4E8E3F0E050
:102C90008B818083198211C08A81823031F4E5E30F
:102CA000F0E08B818083198208C08A81833029F407
:102CB000E2E3F0E08B818083198289810F900F908D
:102CC0000F90CF91DF910895DF93CF9300D000D084
:102CD000CDB7DEB78A836B834C8381E089838A8199
:102CE000843008F0D4C08B81883008F0D0C08C814B
:102CF000823008F0CCC08C81813009F061C08A81BB
:102D00008823A9F4ABE3B0E0EBE3F0E08081482F47
:102D10008B81282F30E081E090E0022E02C0880FE6
:102D2000991F0A94E2F7842B8C931982B0C08A8190
:102D30008130A9F4A8E3B0E0E8E3F0E08081482F17
:102D40008B81282F30E081E090E0022E02C0880FB6
:102D5000991F0A94E2F7842B8C93198298C08A8178
:102D60008230A9F4A5E3B0E0E5E3F0E08081482FEC
:102D70008B81282F30E081E090E0022E02C0880F86
:102D8000991F0A94E2F7842B8C93198280C08A8160
:102D9000833009F07CC0A2E3B0E0E2E3F0E08081A0
:102DA000482F8B81282F30E081E090E0022E02C076
:102DB000880F991F0A94E2F7842B8C93198267C0BD
:102DC0008C81882309F063C08A818823B1F4ABE346
:102DD000B0E0EBE3F0E08081482F8B81282F30E0DA
:102DE00081E090E0022E02C0880F991F0A94E2F75A
:102DF000809584238C9319824AC08A818130B1F4F2
:102E0000A8E3B0E0E8E3F0E08081482F8B81282F31
:102E100030E081E090E0022E02C0880F991F0A94F2
:102E2000E2F7809584238C93198231C08A818230A5
:102E3000B1F4A5E3B0E0E5E3F0E08081482F8B81B9
:102E4000282F30E081E090E0022E02C0880F991F09
:102E50000A94E2F7809584238C93198218C08A81A2
:102E60008330A9F4A2E3B0E0E2E3F0E08081482FF0
:102E70008B81282F30E081E090E0022E02C0880F85
:102E8000991F0A94E2F7809584238C931982898193
:102E90000F900F900F900F90CF91DF910895DF93D7
:102EA000CF9300D000D0CDB7DEB78A837C836B830D
:102EB00081E089838A81843058F58A81882341F4AE
:102EC000EBE3F0E08081EB81FC818083198220C0FC
:102ED0008A81813041F4E8E3F0E08081EB81FC817C
:102EE0008083198215C08A81823041F4E5E3F0E0E5
:102EF0008081EB81FC81808319820AC08A818330C2
:102F000039F4E2E3F0E08081EB81FC818083198277
:102F100089810F900F900F900F90CF91DF910895BE
:102F2000DF93CF9300D000D00F92CDB7DEB78A8366
:102F30006B835D834C8381E089838A81843008F0D0
:102F400063C08B81883008F05FC08A818823A9F430
:102F5000E9E3F0E08081282F30E08B81882F90E03A
:102F6000A90102C0559547958A95E2F7CA0181707B
:102F7000EC81FD818083198247C08A818130A9F468
:102F8000E6E3F0E08081282F30E08B81882F90E00D
:102F9000A90102C0559547958A95E2F7CA0181704B
:102FA000EC81FD81808319822FC08A818230A9F44F
:102FB000E3E3F0E08081282F30E08B81882F90E0E0
:102FC000A90102C0559547958A95E2F7CA0181701B
:102FD000EC81FD818083198217C08A818330A1F43E
:102FE000E0E3F0E08081282F30E08B81882F90E0B3
:102FF000A90102C0559547958A95E2F7CA018170EB
:10300000EC81FD818083198289810F900F900F9050
:103010000F900F90CF91DF910895DF93CF9300D061
:10302000CDB7DEB78A8381E089838A81843078F5E1
:103030008A81882349F4ABE3B0E0EBE3F0E08081E0
:1030400080958C93198223C08A81813049F4A8E34A
:10305000B0E0E8E3F0E0808180958C93198217C09E
:103060008A81823049F4A5E3B0E0E5E3F0E08081B5
:1030700080958C9319820BC08A81833041F4A2E33E
:10308000B0E0E2E3F0E0808180958C931982898141
:103090000F900F90CF91DF910895DF93CF9300D0E1
:1030A0000F92CDB7DEB78A836B8381E089838A81F3
:1030B000843008F063C08B81883008F05FC08A815B
:1030C0008823A9F4ABE3B0E0EBE3F0E08081482F84
:1030D0008B81282F30E081E090E0022E02C0880F23
:1030E000991F0A94E2F784278C93198247C08A813A
:1030F0008130A9F4A8E3B0E0E8E3F0E08081482F54
:103100008B81282F30E081E090E0022E02C0880FF2
:10311000991F0A94E2F784278C9319822FC08A8121
:103120008230A9F4A5E3B0E0E5E3F0E08081482F28
:103130008B81282F30E081E090E0022E02C0880FC2
:10314000991F0A94E2F784278C93198217C08A8109
:103150008330A1F4A2E3B0E0E2E3F0E08081482F05
:103160008B81282F30E081E090E0022E02C0880F92
:10317000991F0A94E2F784278C93198289810F9012
:103180000F900F90CF91DF910895DF93CF9300D0F0
:10319000CDB7DEB789836A838A818F3FC1F4898185
:1031A000882329F4E7E2F0E08FEF80833FC0898134
:1031B000813029F4E6E2F0E08FEF808337C0898127
:1031C0008230A1F5E0E5F0E08FEF80832FC08A81A7
:1031D0008823A9F48981882321F4E7E2F0E01082B2
:1031E00025C08981813021F4E6E2F0E010821EC022
:1031F00089818230D9F4E0E5F0E0108217C089813E
:10320000882329F4E7E2F0E08A8180830FC0898176
:10321000813029F4E6E2F0E08A81808307C0898169
:10322000823021F4E0E5F0E08A8180830F900F90F6
:10323000CF91DF910895DF93CF9300D00F92CDB758
:10324000DEB789836A834B838B81813009F046C066
:1032500089818823A1F4A7E2B0E0E7E2F0E0808171
:10326000482F8A81282F30E081E090E0022E02C0B2
:10327000880F991F0A94E2F7842B8C937AC0898176
:103280008130A1F4A6E2B0E0E6E2F0E08081482FD0
:103290008A81282F30E081E090E0022E02C0880F62
:1032A000991F0A94E2F7842B8C9363C08981823042
:1032B00009F05FC0A0E5B0E0E0E5F0E08081482FD4
:1032C0008A81282F30E081E090E0022E02C0880F32
:1032D000991F0A94E2F7842B8C934BC08B8188232F
:1032E00009F047C089818823A9F4A7E2B0E0E7E2AA
:1032F000F0E08081482F8A81282F30E081E090E043
:10330000022E02C0880F991F0A94E2F78095842349
:103310008C932FC089818130A9F4A6E2B0E0E6E267
:10332000F0E08081482F8A81282F30E081E090E012
:10333000022E02C0880F991F0A94E2F78095842319
:103340008C9317C089818230A1F4A0E5B0E0E0E55C
:10335000F0E08081482F8A81282F30E081E090E0E2
:10336000022E02C0880F991F0A94E2F780958423E9
:103370008C930F900F900F90CF91DF910895DF9372
:10338000CF930F92CDB7DEB7898381E06FEA0E94B9
:10339000C51882E067E040E00E941B1982E066E009
:1033A00040E00E941B1982E065E040E00E941B198A
:1033B000EFE5F0E08081882F90E067E070E041E089
:1033C00050E00E948A128981882329F480E060E419
:1033D0000E94C51837C08981813029F480E061E4FA
:1033E0000E94C5182FC08981823029F480E062E4F0
:1033F0000E94C51827C08981833029F480E063E4E6
:103400000E94C5181FC08981843029F480E064E4DB
:103410000E94C51817C08981853029F480E065E4D1
:103420000E94C5180FC08981863029F480E066E4C7
:103430000E94C51807C08981873021F480E067E4C5
:103440000E94C5180F90CF91DF910895DF93CF931D
:103450000F92CDB7DEB789838981813031F481E065
:1034600066E041E00E941B1908C08981882329F485
:1034700081E066E040E00E941B190F90CF91DF9140
:103480000895DF93CF9300D00F92CDB7DEB79B8323
:103490008A8381E08983E4E2F0E080819181CC013C
:1034A000A0E0B0E028E833E140E050E0BC01CD010D
:1034B0000E940228DC01CB01072E7AE0B695A79581
:1034C000979587957A95D1F7702DEA81FB81918345
:1034D000808389810F900F900F90CF91DF91089595
:1034E000DF93CF9300D0CDB7DEB79A8389838981EC
:1034F0009A81009731F089819A819093810180931C
:1035000080010F900F90CF91DF9108951F920F923D
:103510000FB60F9211242F933F934F935F936F93A6
:103520007F938F939F93AF93BF93EF93FF93DF931B
:10353000CF93CDB7DEB78091800190918101009744
:1035400029F0E0918001F09181010995CF91DF91FF
:10355000FF91EF91BF91AF919F918F917F916F916B
:103560005F914F913F912F910F900FBE0F901F9041
:103570001895DF93CF9300D000D0CDB7DEB780E0B1
:1035800090E0A0E0B0E089839A83AB83BC838EE0B7
:103590000E94850883E09E012F5F3F4FB9010E9482
:1035A000A60A80E060E00E94BE0B87E893E10E94DB
:1035B000B00C89E690E00E948C0C0F900F900F9059
:1035C0000F90CF91DF910895DF93CF9300D00F92AA
:1035D000CDB7DEB78B838B81882F90E0AA2797FD2C
:1035E000A095BA2FBC01CD010E948504DC01CB015E
:1035F000BC01CD0120E030E044E353E40E945504D7
:103600001816BCF18B81882F90E0AA2797FDA09512
:10361000BA2FBC01CD010E948504DC01CB01BC01A5
:10362000CD0120E030E044E353E40E941903DC01C3
:10363000CB01BC01CD0120E030E048EF53E40E9413
:103640001F02DC01CB01BC01CD0120E030E042EDE6
:1036500052E40E94F201DC01CB01BC01CD010E94C9
:103660004900DC01CB019A83898389819A810E9478
:103670008C0C0F900F900F90CF91DF910895DF93F6
:10368000CF9300D00F92CDB7DEB78A836B8381E0F2
:1036900089838A81843048F48B81883030F48A8130
:1036A0006B8141E00E94F614898389810F900F900D
:1036B0000F90CF91DF910895DF93CF9300D00F92B9
:1036C000CDB7DEB78A836B8381E089838A818430BA
:1036D00030F58B81883018F58B81882349F422E8F6
:1036E00031E08A816B81A9010E949017898317C0FC
:1036F0008B81863049F423E831E08A816B81A9010E
:103700000E94901789830BC08B81823041F424E89A
:1037100031E08A816B81A9010E9490178983898198
:103720000F900F900F90CF91DF910895DF93CF937B
:1037300000D0CDB7DEB789836A8381E00E94BF19CC
:103740000F900F90CF91DF910895DF93CF9300D02A
:10375000CDB7DEB79A83898381E00E94261A8981DA
:103760009A810E94411A0F900F90CF91DF91089596
:10377000DF93CF9300D00F92CDB7DEB78A836B83F0
:1037800081E089838A81843048F48B81883030F4E9
:103790008A816B8141E00E94F614898389810F90B0
:1037A0000F900F90CF91DF910895DF93CF9300D0CA
:1037B00000D0CDB7DEB78A836B834C8381E08983E9
:1037C0008A81843010F58B818830F8F48C818330C5
:1037D000E0F48C81813039F48A816B8141E00E9470
:1037E0006416898312C08C81882339F48A816B81A5
:1037F00040E00E946416898308C08C81823029F4DD
:103800008A816B810E944D18898389810F900F9066
:103810000F900F90CF91DF9108950F931F93DF9337
:10382000CF93CDB7DEB7C654D0400FB6F894DEBF05
:103830000FBECDBF80E067E041E00E94F61480E05B
:1038400066E041E00E94F61480E065E041E00E94FD
:10385000F61480E064E041E00E94F61481E061E04B
:1038600041E00E94F61481E062E041E00E94F6141B
:1038700081E063E041E00E94F614FE01ED5BFF4F42
:1038800080E090E0A0E0B0E480839183A283B383E2
:103890008E01015C1F4FFE01ED5BFF4F6081718166
:1038A0008281938120E030E04AE755E40E941F02C4
:1038B000DC01CB01F80180839183A283B383FE01F5
:1038C000FF96608171818281938120E030E040E841
:1038D0005FE30E94250488232CF481E090E09EAFF2
:1038E0008DAF46C0FE01FF96608171818281938118
:1038F00020E03FEF4FE757E40E94C503181664F538
:10390000FE01ED5BFF4F608171818281938120E038
:1039100030E040E251E40E941F02DC01CB01BC0117
:10392000CD010E944900DC01CB019EAF8DAF0FC0DD
:1039300080E991E09CAF8BAF8BAD9CAD0197F1F727
:103940009CAF8BAF8DAD9EAD01979EAF8DAF8DAD12
:103950009EAD009769F716C0FE01FF9660817181E8
:10396000828193810E944900DC01CB019EAF8DAF23
:103970008DAD9EAD9AAF89AF89AD9AAD0197F1F744
:103980009AAF89AF82E00E94A51E80E090E0A0E09F
:10399000B0E48DAB9EABAFABB8AF6DA97EA98FA9DC
:1039A00098AD20E030E04AE755E40E941F02DC01B8
:1039B000CB0189AB9AABABABBCAB69A97AA98BA99C
:1039C0009CA920E030E040E85FE30E9425048823C2
:1039D0002CF481E090E098AB8FA73FC069A97AA949
:1039E0008BA99CA920E03FEF4FE757E40E94C50355
:1039F00018164CF56DA97EA98FA998AD20E030E08E
:103A000040E251E40E941F02DC01CB01BC01CD0168
:103A10000E944900DC01CB0198AB8FA70FC080E961
:103A200091E09EA78DA78DA59EA50197F1F79EA772
:103A30008DA78FA598A9019798AB8FA78FA598A957
:103A4000009769F714C069A97AA98BA99CA90E945B
:103A50004900DC01CB0198AB8FA78FA598A99CA743
:103A60008BA78BA59CA50197F1F79CA78BA788E254
:103A70000E94A51E80E090E0A0E0B0E48FA398A78C
:103A8000A9A7BAA76FA178A589A59AA520E030E0DB
:103A90004AE755E40E941F02DC01CB018BA39CA3E3
:103AA000ADA3BEA36BA17CA18DA19EA120E030E0BF
:103AB00040E85FE30E94250488232CF481E090E035
:103AC0009AA389A33FC06BA17CA18DA19EA120E0F8
:103AD0003FEF4FE757E40E94C50318164CF56FA15E
:103AE00078A589A59AA520E030E040E251E40E9443
:103AF0001F02DC01CB01BC01CD010E944900DC01A9
:103B0000CB019AA389A30FC080E991E098A38F8F7E
:103B10008F8D98A10197F1F798A38F8F89A19AA112
:103B200001979AA389A389A19AA1009769F714C064
:103B30006BA17CA18DA19EA10E944900DC01CB015B
:103B40009AA389A389A19AA19E8F8D8F8D8D9E8D19
:103B50000197F1F79E8F8D8F8FE00E94A51E80E068
:103B600090E0A0E0B0E4898F9A8FAB8FBC8F698D15
:103B70007A8D8B8D9C8D20E030E04AE755E40E94E1
:103B80001F02DC01CB018D8B9E8BAF8BB88F6D89B3
:103B90007E898F89988D20E030E040E85FE30E94C5
:103BA000250488232CF481E090E09C8B8B8B3FC014
:103BB0006D897E898F89988D20E03FEF4FE757E42C
:103BC0000E94C50318164CF5698D7A8D8B8D9C8DDE
:103BD00020E030E040E251E40E941F02DC01CB0112
:103BE000BC01CD010E944900DC01CB019C8B8B8B79
:103BF0000FC080E991E09A8B898B89899A89019716
:103C0000F1F79A8B898B8B899C8901979C8B8B8B85
:103C10008B899C89009769F714C06D897E898F898B
:103C2000988D0E944900DC01CB019C8B8B8B8B898A
:103C30009C89988B8F878F8598890197F1F7988B4E
:103C40008F8781E00E94A51E80E090E0A0E0B0E4B4
:103C50008B879C87AD87BE876B857C858D859E8590
:103C600020E030E04AE755E40E941F02DC01CB016E
:103C70008F839887A987BA876F81788589859A8588
:103C800020E030E040E85FE30E94250488232CF424
:103C900081E090E09E838D833FC06F817885898528
:103CA0009A8520E03FEF4FE757E40E94C5031816BE
:103CB0004CF56B857C858D859E8520E030E040E26B
:103CC00051E40E941F02DC01CB01BC01CD010E9426
:103CD0004900DC01CB019E838D830FC080E991E018
:103CE0009C838B838B819C810197F1F79C838B83D1
:103CF0008D819E8101979E838D838D819E8100970A
:103D000069F714C06F81788589859A850E9449007A
:103D1000DC01CB019E838D838D819E819A83898373
:103D200089819A810197F1F79A83898386E00E94BD
:103D3000A51ECA5BDF4F0FB6F894DEBF0FBECDBF26
:103D4000CF91DF911F910F910895DF93CF93CDB75E
:103D5000DEB76D970FB6F894DEBF0FBECDBF8D8F67
:103D600081E061E040E00E94641681E062E040E0B2
:103D70000E94641680E06D8D0E94E11581E063E091
:103D800041E00E94641680E090E0A0E0B0E4898FFA
:103D90009A8FAB8FBC8F698D7A8D8B8D9C8D20E037
:103DA00030E04AE755E40E941F02DC01CB018D8B15
:103DB0009E8BAF8BB88F6D897E898F89988D20E01F
:103DC00030E040E85FE30E94250488232CF481E082
:103DD00090E09C8B8B8B3FC06D897E898F89988DFD
:103DE00020E03FEF4FE757E40E94C50318164CF55B
:103DF000698D7A8D8B8D9C8D20E030E040E251E41E
:103E00000E941F02DC01CB01BC01CD010E944900D0
:103E1000DC01CB019C8B8B8B0FC080E991E09A8BEE
:103E2000898B89899A890197F1F79A8B898B8B897C
:103E30009C8901979C8B8B8B8B899C89009769F758
:103E400014C06D897E898F89988D0E944900DC019C
:103E5000CB019C8B8B8B8B899C89988B8F878F85D3
:103E600098890197F1F7988B8F8781E063E040E0B4
:103E70000E9464168D8D982F9295907F80E0692F17
:103E80000E94E11581E063E041E00E94641680E059
:103E900090E0A0E0B0E48B879C87AD87BE876B8500
:103EA0007C858D859E8520E030E04AE755E40E94C0
:103EB0001F02DC01CB018F839887A987BA876F81A6
:103EC000788589859A8520E030E040E85FE30E94AC
:103ED000250488232CF481E090E09E838D833FC0ED
:103EE0006F81788589859A8520E03FEF4FE757E419
:103EF0000E94C50318164CF56B857C858D859E85C3
:103F000020E030E040E251E40E941F02DC01CB01DE
:103F1000BC01CD010E944900DC01CB019E838D8351
:103F20000FC080E991E09C838B838B819C810197FA
:103F3000F1F79C838B838D819E8101979E838D8376
:103F40008D819E81009769F714C06F81788589857E
:103F50009A850E944900DC01CB019E838D838D816F
:103F60009E819A83898389819A810197F1F79A8347
:103F7000898381E063E040E00E9464166D960FB68D
:103F8000F894DEBF0FBECDBFCF91DF910895DF93D0
:103F9000CF93CDB7DEB76D970FB6F894DEBF0FBEE7
:103FA000CDBF8D8F81E061E041E00E94641681E029
:103FB00062E040E00E94641680E06D8D0E94E11591
:103FC00081E063E041E00E94641680E090E0A0E0C0
:103FD000B0E4898F9A8FAB8FBC8F698D7A8D8B8D72
:103FE0009C8D20E030E04AE755E40E941F02DC018E
:103FF000CB018D8B9E8BAF8BB88F6D897E898F891E
:10400000988D20E030E040E85FE30E94250488239B
:104010002CF481E090E09C8B8B8B3FC06D897E8976
:104020008F89988D20E03FEF4FE757E40E94C5034A
:1040300018164CF5698D7A8D8B8D9C8D20E030E0C3
:1040400040E251E40E941F02DC01CB01BC01CD0122
:104050000E944900DC01CB019C8B8B8B0FC080E957
:1040600091E09A8B898B89899A890197F1F79A8BCC
:10407000898B8B899C8901979C8B8B8B8B899C89E5
:10408000009769F714C06D897E898F89988D0E9489
:104090004900DC01CB019C8B8B8B8B899C89988B95
:1040A0008F878F8598890197F1F7988B8F8781E0AB
:1040B00063E040E00E9464168D8D982F9295907F6A
:1040C00080E0692F0E94E11581E063E041E00E94F9
:1040D000641680E090E0A0E0B0E48B879C87AD8719
:1040E000BE876B857C858D859E8520E030E04AE724
:1040F00055E40E941F02DC01CB018F839887A987BA
:10410000BA876F81788589859A8520E030E040E81C
:104110005FE30E94250488232CF481E090E09E83D5
:104120008D833FC06F81788589859A8520E03FEF38
:104130004FE757E40E94C50318164CF56B857C8544
:104140008D859E8520E030E040E251E40E941F0210
:10415000DC01CB01BC01CD010E944900DC01CB0197
:104160009E838D830FC080E991E09C838B838B813C
:104170009C810197F1F79C838B838D819E810197B0
:104180009E838D838D819E81009769F714C06F8116
:10419000788589859A850E944900DC01CB019E8340
:1041A0008D838D819E819A83898389819A810197EC
:1041B000F1F79A83898381E063E040E00E9464160E
:1041C0006D960FB6F894DEBF0FBECDBFCF91DF91D5
:1041D0000895DF93CF9300D000D000D0CDB7DEB7E5
:1041E0009E838D8319821A821B821C8215C02981AD
:1041F0003A818D819E81FC01E20FF31F80810E9434
:10420000C71F89819A81AB81BC810196A11DB11D17
:1042100089839A83AB83BC8329813A818D819E8176
:10422000FC01E20FF31F8081882309F726960FB661
:10423000F894DEBF0FBECDBFCF91DF910895DF931D
:10424000CF93CDB7DEB72C970FB6F894DEBF0FBE75
:10425000CDBF9C878B878B859C859E012F5F3F4FB1
:10426000B9014AE050E00E947A28CE0101960E94EE
:10427000E9202C960FB6F894DEBF0FBECDBFCF91CC
:10428000DF910895DF93CF93CDB7DEB7C254D0400E
:104290000FB6F894DEBF0FBECDBFFE01EF5BFF4F40
:1042A0008083FE01EE5BFF4F6083FE01EF5BFF4FFB
:1042B0008081813009F0A0C0FE01FD96108211823C
:1042C0001282138284C080E090E0A0E0B0E48DAB65
:1042D0009EABAFABB8AF6DA97EA98FA998AD20E01A
:1042E00030E04AE755E40E941F02DC01CB0189ABB4
:1042F0009AABABABBCAB69A97AA98BA99CA920E00E
:1043000030E040E85FE30E94250488232CF481E03C
:1043100090E098AB8FA73FC069A97AA98BA99CA907
:1043200020E03FEF4FE757E40E94C50318164CF515
:104330006DA97EA98FA998AD20E030E040E251E45C
:104340000E941F02DC01CB01BC01CD010E9449008B
:10435000DC01CB0198AB8FA70FC080E991E09EA74D
:104360008DA78DA59EA50197F1F79EA78DA78FA577
:1043700098A9019798AB8FA78FA598A9009769F77F
:1043800014C069A97AA98BA99CA90E944900DC01E3
:10439000CB0198AB8FA78FA598A99CA78BA78BA5BE
:1043A0009CA50197F1F79CA78BA78CE10E94A51E05
:1043B000FE01FD9680819181A281B3810196A11DAC
:1043C000B11DFE01FD9680839183A283B383FE011C
:1043D000EE5BFF4F8081282F30E040E050E0FE018F
:1043E000FD9680819181A281B38182179307A407F2
:1043F000B50708F468CF98C1FE01EF5BFF4F8081DD
:10440000882309F098C019AE1AAE1BAE1CAE80C04E
:1044100080E090E0A0E0B0E48FA398A7A9A7BAA796
:104420006FA178A589A59AA520E030E04AE755E478
:104430000E941F02DC01CB018BA39CA3ADA3BEA3F2
:104440006BA17CA18DA19EA120E030E040E85FE35C
:104450000E94250488232CF481E090E09AA389A38C
:104460003FC06BA17CA18DA19EA120E03FEF4FE753
:1044700057E40E94C50318164CF56FA178A589A5CD
:104480009AA520E030E040E251E40E941F02DC01E6
:10449000CB01BC01CD010E944900DC01CB019AA3F4
:1044A00089A30FC080E991E098A38F8F8F8D98A189
:1044B0000197F1F798A38F8F89A19AA101979AA3E9
:1044C00089A389A19AA1009769F714C06BA17CA167
:1044D0008DA19EA10E944900DC01CB019AA389A372
:1044E00089A19AA19E8F8D8F8D8D9E8D0197F1F759
:1044F0009E8F8D8F88E10E94A51E89AD9AADABADD0
:10450000BCAD0196A11DB11D89AF9AAFABAFBCAFD9
:10451000FE01EE5BFF4F8081282F30E040E050E04D
:1045200089AD9AADABADBCAD82179307A407B507B3
:1045300008F46ECFF9C0FE01EF5BFF4F808182303F
:1045400009F076C080E090E0A0E0B0E4898F9A8F17
:10455000AB8FBC8F698D7A8D8B8D9C8D20E030E088
:104560004AE755E40E941F02DC01CB018D8B9E8B34
:10457000AF8BB88F6D897E898F89988D20E030E070
:1045800040E85FE30E94250488232CF481E090E05A
:104590009C8B8B8B3FC06D897E898F89988D20E0A5
:1045A0003FEF4FE757E40E94C50318164CF5698D9D
:1045B0007A8D8B8D9C8D20E030E040E251E40E94AA
:1045C0001F02DC01CB01BC01CD010E944900DC01CE
:1045D000CB019C8B8B8B0FC080E991E09A8B898BF0
:1045E00089899A890197F1F79A8B898B8B899C89A4
:1045F00001979C8B8B8B8B899C89009769F714C0E2
:104600006D897E898F89988D0E944900DC01CB01DC
:104610009C8B8B8B8B899C89988B8F878F859889B6
:104620000197F1F7988B8F8780E80E94A51E7CC0C8
:10463000FE01EF5BFF4F8081833009F075C080E0A1
:1046400090E0A0E0B0E48B879C87AD87BE876B8548
:104650007C858D859E8520E030E04AE755E40E9408
:104660001F02DC01CB018F839887A987BA876F81EE
:10467000788589859A8520E030E040E85FE30E94F4
:10468000250488232CF481E090E09E838D833FC035
:104690006F81788589859A8520E03FEF4FE757E461
:1046A0000E94C50318164CF56B857C858D859E850B
:1046B00020E030E040E251E40E941F02DC01CB0127
:1046C000BC01CD010E944900DC01CB019E838D839A
:1046D0000FC080E991E09C838B838B819C81019743
:1046E000F1F79C838B838D819E8101979E838D83BF
:1046F0008D819E81009769F714C06F8178858985C7
:104700009A850E944900DC01CB019E838D838D81B7
:104710009E819A83898389819A810197F1F79A838F
:10472000898380EC0E94A51ECE5BDF4F0FB6F89404
:10473000DEBF0FBECDBFCF91DF910895DF93CF9342
:10474000CDB7DEB72E970FB6F894DEBF0FBECDBF44
:1047500080E090E0A0E0B0E48B879C87AD87BE87C7
:104760006B857C858D859E8520E030E04AE755E4A9
:104770000E941F02DC01CB018F839887A987BA872B
:104780006F81788589859A8520E030E040E85FE395
:104790000E94250488232CF481E090E09E838D8381
:1047A0003FC06F81788589859A8520E03FEF4FE78C
:1047B00057E40E94C50318164CF56B857C858D85E2
:1047C0009E8520E030E040E251E40E941F02DC01BF
:1047D000CB01BC01CD010E944900DC01CB019E83CD
:1047E0008D830FC080E991E09C838B838B819C81BA
:1047F0000197F1F79C838B838D819E8101979E8326
:104800008D838D819E81009769F714C06F817885B3
:1048100089859A850E944900DC01CB019E838D83A6
:104820008D819E819A83898389819A810197F1F78D
:104830009A83898381E00E94A51E2E960FB6F89474
:10484000DEBF0FBECDBFCF91DF910895DF93CF9331
:1048500000D000D0CDB7DEB78A837C836B838A819A
:104860008830F8F48A81882F90E00896880F991F85
:10487000880F991F880F991F0E94A51E19820EC0CC
:104880008981282F30E08B819C81FC01E20FF31F8E
:1048900080810E94C71F89818F5F898389818830C9
:1048A00078F382E00E94A51E0F900F900F900F905A
:1048B000CF91DF910895DF93CF93CDB7DEB782E03C
:1048C0006FE00E94731482E06FEF0E94E115CF91B8
:1048D000DF910895DF93CF93CDB7DEB7A2970FB6E0
:1048E000F894DEBF0FBECDBF9AA389A387E08D8F5A
:1048F000E9A1FAA110821E8E2FC182E06E8D40E0E8
:104900000E9464161F8E1CC18F8D982F9C5F9E0184
:10491000205E3F4F82E0692FA9010E94901788A175
:104920008D8F88A1882309F008C180E090E0A0EA7B
:10493000B0E4898F9A8FAB8FBC8F698D7A8D8B8D08
:104940009C8D20E030E04AE755E40E941F02DC0124
:10495000CB018D8B9E8BAF8BB88F6D897E898F89B4
:10496000988D20E030E040E85FE30E942504882332
:104970002CF481E090E09C8B8B8B3FC06D897E890D
:104980008F89988D20E03FEF4FE757E40E94C503E1
:1049900018164CF5698D7A8D8B8D9C8D20E030E05A
:1049A00040E251E40E941F02DC01CB01BC01CD01B9
:1049B0000E944900DC01CB019C8B8B8B0FC080E9EE
:1049C00091E09A8B898B89899A890197F1F79A8B63
:1049D000898B8B899C8901979C8B8B8B8B899C897C
:1049E000009769F714C06D897E898F89988D0E9420
:1049F0004900DC01CB019C8B8B8B8B899C89988B2C
:104A00008F878F8598890197F1F7988B8F878F8D86
:104A1000982F9C5F9E01205E3F4F82E0692FA90185
:104A20000E94901788A1813009F08EC080E090E04C
:104A3000A0EAB0E48B879C87AD87BE876B857C85B9
:104A40008D859E8520E030E04AE755E40E941F02F4
:104A5000DC01CB018F839887A987BA876F8178851E
:104A600089859A8520E030E040E85FE30E942504D4
:104A700088232CF481E090E09E838D833FC06F817A
:104A8000788589859A8520E03FEF4FE757E40E94BB
:104A9000C50318164CF56B857C858D859E8520E0B9
:104AA00030E040E251E40E941F02DC01CB01BC0176
:104AB000CD010E944900DC01CB019E838D830FC094
:104AC00080E991E09C838B838B819C810197F1F736
:104AD0009C838B838D819E8101979E838D838D81A5
:104AE0009E81009769F714C06F81788589859A85C2
:104AF0000E944900DC01CB019E838D838D819E81C4
:104B00009A83898389819A810197F1F79A838983AE
:104B10008E8D482F50E08F8D282F30E0CA01880FEE
:104B2000991F880F991F820F931FFC01E859FE4FB0
:104B30008081E9A1FAA1808307C08F8D8F5F8F8F5D
:104B40008F8D843008F4E0CE82E06E8D41E00E94CB
:104B500064168E8D8F5F8E8F8E8D843008F4CDCE4F
:104B6000A2960FB6F894DEBF0FBECDBFCF91DF91F6
:104B70000895DF93CF93CDB7DEB782E063E041E0E5
:104B80000E94F61482E064E041E00E94F61482E0A4
:104B900065E041E00E94F61482E066E041E00E9498
:104BA000F614CF91DF910895DF93CF930F92CDB795
:104BB000DEB7898381E069810E94B30F80E069815B
:104BC0000E94B30F82E063E040E00E94641682E03E
:104BD00064E040E00E94641682E063E041E00E94ED
:104BE000641682E064E040E00E9464160F90CF916A
:104BF000DF910895DF93CF930F92CDB7DEB789830E
:104C000081E069810E94B30F80E069810E94B30F47
:104C100082E063E041E00E94641682E064E040E0EC
:104C20000E94641682E065E041E00E94641682E022
:104C300066E040E00E9464160F90CF91DF910895E6
:104C4000DF93CF930F92CDB7DEB7898381E069817F
:104C50000E94B30F80E069810E94B30F82E063E09D
:104C600040E00E94641682E064E041E00E94641625
:104C700082E065E040E00E94641682E066E041E088
:104C80000E9464160F90CF91DF910895DF93CF9328
:104C90000F92CDB7DEB7898381E069810E94B30F9F
:104CA00080E069810E94B30F82E063E041E00E94EE
:104CB000641682E064E040E00E94641682E065E0F1
:104CC00040E00E94641682E066E040E00E946416C4
:104CD0000F90CF91DF910895DF93CF930F92CDB7CF
:104CE000DEB7898381E069810E94B30F80E069812A
:104CF0000E94B30F82E063E040E00E94641682E00D
:104D000064E040E00E94641682E065E040E00E94BA
:104D1000641682E066E040E00E9464160F90CF9136
:104D2000DF910895DF93CF9300D00F92CDB7DEB718
:104D30008A836B8381E089838A81843048F48B8104
:104D4000883030F48A816B8141E00E94F6148983B7
:104D500089810F900F900F90CF91DF910895DF938D
:104D6000CF9300D000D0CDB7DEB78A836B834C835E
:104D700081E089838A81843010F58B818830F8F452
:104D80008C818330E0F48C81813039F48A816B81AD
:104D900041E00E946416898312C08C81882339F413
:104DA0008A816B8140E00E946416898308C08C81EF
:104DB000823029F48A816B810E944D188983898110
:104DC0000F900F900F900F90CF91DF910895DF9388
:104DD000CF93CDB7DEB7A0970FB6F894DEBF0FBE66
:104DE000CDBF0E94B91A18A21F8E05C18F8D0E94D7
:104DF000E41A80E090E0A0E2B2E4898F9A8FAB8F52
:104E0000BC8F698D7A8D8B8D9C8D20E030E04AE7D8
:104E100055E40E941F02DC01CB018D8B9E8BAF8B72
:104E2000B88F6D897E898F89988D20E030E040E8C9
:104E30005FE30E94250488232CF481E090E09C8BA2
:104E40008B8B3FC06D897E898F89988D20E03FEFE5
:104E50004FE757E40E94C50318164CF5698D7A8D0B
:104E60008B8D9C8D20E030E040E251E40E941F02D7
:104E7000DC01CB01BC01CD010E944900DC01CB016A
:104E80009C8B8B8B0FC080E991E09A8B898B8989F1
:104E90009A890197F1F79A8B898B8B899C89019765
:104EA0009C8B8B8B8B899C89009769F714C06D89CB
:104EB0007E898F89988D0E944900DC01CB019C8BF3
:104EC0008B8B8B899C89988B8F878F85988901978D
:104ED000F1F7988B8F878F8D98A1843B910509F00E
:104EE00085C084EB90E09E8F8D8F7AC08D8D0E945F
:104EF000E41A80E090E0A0E2B2E48B879C87AD8763
:104F0000BE876B857C858D859E8520E030E04AE7F5
:104F100055E40E941F02DC01CB018F839887A9878B
:104F2000BA876F81788589859A8520E030E040E8EE
:104F30005FE30E94250488232CF481E090E09E83A7
:104F40008D833FC06F81788589859A8520E03FEF0A
:104F50004FE757E40E94C50318164CF56B857C8516
:104F60008D859E8520E030E040E251E40E941F02E2
:104F7000DC01CB01BC01CD010E944900DC01CB0169
:104F80009E838D830FC080E991E09C838B838B810E
:104F90009C810197F1F79C838B838D819E81019782
:104FA0009E838D838D819E81009769F714C06F81E8
:104FB000788589859A850E944900DC01CB019E8312
:104FC0008D838D819E819A83898389819A810197BE
:104FD000F1F79A8389838D8D9E8D05979E8F8D8F96
:104FE0008D8D9E8D181619060CF480CF8F8D98A18B
:104FF000059698A38F8F8F8D98A1853B91050CF412
:10500000F5CEF1CE629FD001739FF001829FE00D3B
:10501000F11D649FE00DF11D929FF00D839FF00D37
:10502000749FF00D659FF00D9927729FB00DE11DE3
:10503000F91F639FB00DE11DF91FBD01CF011124C0
:105040000895A1E21A2EAA1BBB1BFD010DC0AA1FC9
:10505000BB1FEE1FFF1FA217B307E407F50720F0E1
:10506000A21BB30BE40BF50B661F771F881F991F5C
:105070001A9469F760957095809590959B01AC01A5
:10508000BD01CF0108952F923F924F925F926F9290
:105090007F928F929F92AF92BF92CF92DF92EF92C8
:1050A000FF920F931F93CF93DF93CDB7DEB7CA1B49
:1050B000DB0B0FB6F894DEBF0FBECDBF09942A8874
:1050C000398848885F846E847D848C849B84AA841C
:1050D000B984C884DF80EE80FD800C811B81AA81A9
:1050E000B981CE0FD11D0FB6F894DEBF0FBECDBF74
:1050F000ED010895FB019F01E8944230C4F0453270
:10510000B4F44A3029F497FB1EF4909581959F4F93
:10511000642F77270E94AB28805D8A330CF0895D6D
:105120008193CB010097A1F716F45DE251931082B1
:10513000C9010C949B28DC01FC01672F7191772336
:10514000E1F7329704C07C916D9370836291AE1742
:10515000BF07C8F30895AA1BBB1B51E107C0AA1FD4
:10516000BB1FA617B70710F0A61BB70B881F991F08
:105170005A95A9F780959095BC01CD010895F894B2
:02518000FFCF5F
:10518200000000000000000000010202030303030C
:1051920004040404040404040505050505050505C5
:1051A20005050505050505050606060606060606A5
:1051B200060606060606060606060606060606068D
:1051C2000606060606060606070707070707070775
:1051D200070707070707070707070707070707075D
:1051E200070707070707070707070707070707074D
:1051F200070707070707070707070707070707073D
:105202000707070707070707080808080808080824
:10521200080808080808080808080808080808080C
:1052220008080808080808080808080808080808FC
:1052320008080808080808080808080808080808EC
:1052420008080808080808080808080808080808DC
:1052520008080808080808080808080808080808CC
:1052620008080808080808080808080808080808BC
:1052720008080808080808080808080808080808AC
:105282000808080808080808313233413435364224
:08529200373839432A30234468
:00000001FF
